:0400000007EF00F016
:0A000800018233ED03F07FEF03F0F7
:100600000000050A0F14191E23282D32373C4146DD
:100610004B50555A5F64696E73787D82878C9196D2
:100620009BA0A5AAAFB4B9BEC3C8CDD2D7DCE1E6C2
:10063000EBF0F5FAF5F0EBE6E1DCD7D2CDC8C3BEBE
:10064000B9B4AFAAA5A09B96918C87827D78736E72
:1006500069645F5A55504B46413C37322D28231E62
:1006600019140F0A05000600F6CF03F0F7CF04F0C7
:10067000F8CF05F0F5CF06F09EA241EF03F043EF6F
:1006800003F05EEF03F09E9208C0F6FF0800F5CF7E
:1006900083FF828000000000000000008290082A92
:1006A000010E630F026E0850025CD8B05AEF03F0DF
:1006B0005CEF03F05EEF03F0010E086E06C0F5FF7D
:1006C00005C0F8FF04C0F7FF03C0F6FF0192110058
:1006D000956A949008C0F6FF0800F5CF83FF082ABA
:1006E0008290FC0ECA16870ECA16960ECB6E9D829D
:1006F000CA84F28EF28C7BEF03F007EF00F0240E39
:10070000F66E070EF76E000EF86E0900F5CF08F0D2
:10071000076A01900192000EF86E060EF76E000156
:0507200068EF03F00189
:020000040030CA
:08000000FF021F1EFF8181FFBA
:00000001FF
