:0400000007EF00F016
:0A000800018233ED03F07FEF03F0F7
:10060000007F878F979FA6AEB5BCC3CAD0D6DCE16A
:10061000E6EBEFF2F6F8FAFCFDFEFFFEFDFCFAF861
:10062000F6F2EFEBE6E1DCD6D0CAC3BCB5AEA69FCE
:10063000978F877F776F675F585049423B342E28EA
:10064000221D18130F0C080604020100000001020D
:100650000406080C0F13181D22282E343B42495063
:10066000585F676F77000600F6CF03F0F7CF04F00E
:10067000F8CF05F0F5CF06F09EA241EF03F043EF6F
:1006800003F05EEF03F09E9208C0F6FF0800F5CF7E
:1006900083FF828000000000000000008290082A92
:1006A000010E630F026E0850025CD8B05AEF03F0DF
:1006B0005CEF03F05EEF03F0010E086E06C0F5FF7D
:1006C00005C0F8FF04C0F7FF03C0F6FF0192110058
:1006D000956A949008C0F6FF0800F5CF83FF082ABA
:1006E0008290FC0ECA16870ECA16960ECB6E9D829D
:1006F000CA84F28EF28C7BEF03F007EF00F0240E39
:10070000F66E070EF76E000EF86E0900F5CF08F0D2
:10071000076A01900192000EF86E060EF76E000156
:0507200068EF03F00189
:020000040030CA
:08000000FF021F1EFF8181FFBA
:00000001FF
