:0400000007EF00F016
:0A000800018201ED03F034EF03F074
:1006000000000600D9CF0CF0DACF0DF09EA20BEF60
:1006100003F00DEF03F02EEF03F09E9282800000B6
:1006200000000000000082900A2A090E0A641BEFF5
:1006300003F01DEF03F02EEF03F00A6A0B2A070EFA
:100640000B6425EF03F027EF03F028EF03F00B6AAC
:100650000B50020FD96EDA6ADF50836E0DC0DAFFDD
:100660000CC0D9FF01921100C40EF66E060EF76E93
:10067000000EF86E00EE02F010EE08F00900F5CF63
:10068000EEFFE550E150FAE10B6A0A6A019001922F
:1006900000014BEF03F0956A94900B50020FD96E56
:1006A000DA6ADF50836E8290FC0ECA16870ECA1675
:1006B000640ECB6E9D82CA84F28EF28C5EEF03F0E4
:0C06C00007EF00F00020406080A0C0E0C8
:020000040030CA
:08000000FF021F1EFF8181FFBA
:00000001FF
