:0400000007EF00F016
:0A000800018262ED28F0CEEF2BF02C
:1006000000566C6F633D252E326656005672656D3E
:100610003D252E32665600494E46494E49545900F2
:10062000696E66696E697479004E414E00696E6646
:10063000006E616E006C61006C65006C66006C673A
:1006400000563D0025660000286A000E276E1D50EA
:10065000D8B42DEF03F02FEF03F03AEF03F01D5065
:10066000D96EDA6A1BC0DEFF1CC0DDFF3AEF03F073
:100670001B4A1C2A1BC0D9FF1CC0DAFF200EDE1843
:10068000D8B445EF03F048EF03F0010E49EF03F053
:10069000000E2D6E2E6A2D502E10D8A452EF03F0AE
:1006A00054EF03F038EF03F01BC0D9FF1CC0DAFF92
:1006B000DF501F6E1F502D6E2E6A2DC020F0F70EDA
:1006C0002026040E206467EF03F069EF03F038EF93
:1006D00003F02A6A2D0E2D182E10D8A472EF03F005
:1006E00074EF03F07AEF03F0010E2A6E1B4A1C2A06
:1006F00086EF03F02B0E2D182E10D8A482EF03F0F6
:1007000084EF03F086EF03F076EF03F0336A8AEFAD
:1007100003F0332A33501B24D96E000E1C20DA6EEE
:10072000DF50D8B496EF03F098EF03F0CAEF03F070
:1007300033501B24D96E000E1C20DA6EDF501F6E62
:100740003350200F206E20C0F6FF060EF76E080013
:10075000F5501F18D8B4AFEF03F0B1EF03F089EFF5
:1007600003F033501B24D96E000E1C20DA6EDF50CC
:100770001F6E3350170F206E20C0F6FF060EF76E67
:100780000800F5501F18D8B4C8EF03F0CAEF03F003
:1007900089EF03F0020E3364D0EF03F0D2EF03F0E1
:1007A000FCEF03F0000E2F6E000E306E800E316EE7
:1007B0007F0E326E1D50D8B4E0EF03F0E2EF03F08D
:1007C000F4EF0AF0080E3318D8B4E9EF03F0EBEFBA
:1007D00003F0EDEF03F0030E336E33501B241F6E56
:1007E000000E1C20206E1D50D96EDA6A1FC0DEFF7D
:1007F00020C0DDFFF4EF0AF0336A00EF04F0332A83
:1008000033501B24D96E000E1C20DA6EDF50D8B492
:100810000CEF04F00EEF04F040EF04F033501B2413
:10082000D96E000E1C20DA6EDF501F6E3350310F70
:10083000206E20C0F6FF060EF76E0800F5501F1858
:10084000D8B425EF04F027EF04F0FFEF03F03350A6
:100850001B24D96E000E1C20DA6EDF501F6E335041
:10086000290F206E20C0F6FF060EF76E0800F55027
:100870001F18D8B43EEF04F040EF04F0FFEF03F090
:10088000030E3318D8A447EF04F049EF04F0B2EF99
:1008900004F0430E026E88EC2EF002C02FF003C06D
:1008A00030F004C031F005C032F01D50D8B45BEF19
:1008B00004F05DEF04F0F4EF0AF033501B26000E55
:1008C0001C221BC0D9FF1CC0DAFF280EDE18D8A4DA
:1008D0006CEF04F06EEF04F0A9EF04F0336A72EFEE
:1008E00004F0332A33501B24D96E000E1C20DA6E1C
:1008F000DF50D8B47EEF04F080EF04F08FEF04F007
:1009000033501B24D96E000E1C20DA6E290EDE181F
:10091000D8A48DEF04F08FEF04F071EF04F03350A2
:100920001B24D96E000E1C20DA6E290EDE18D8A406
:100930009CEF04F09EEF04F0A9EF04F033501F6E1B
:10094000206A010E1F26000E20221F501B26205059
:100950001C221D50D96EDA6A1BC0DEFF1CC0DDFFF1
:10096000F4EF0AF02E6A000E2D6E000E2F6E000EB0
:10097000306E000E316E000E326E256A266A2C6AC9
:10098000000E2B6E336AC6EF04F0332A33501B245B
:10099000D96E000E1C20DA6E300EDE18D8B4D3EFFC
:1009A00004F0D5EF04F0C5EF04F03350D8B4DBEF1A
:1009B00004F0DDEF04F073EF08F033501B24D96E20
:1009C000000E1C20DA6E780EDE18D8B4EAEF04F0C0
:1009D000ECEF04F0FBEF04F033501B24D96E000E53
:1009E0001C20DA6E580EDE18D8A4F9EF04F0FBEFE5
:1009F00004F073EF08F033501B241F6E000E1C2010
:100A0000206E010E1F24D96E000E2020DA6EDF50FA
:100A1000216E2150026E036AD7EC2CF002500310B5
:100A2000D8A415EF05F017EF05F02EEF05F03350C1
:100A30001B241F6E000E1C20206E010E1F24D96E79
:100A4000000E2020DA6E2E0EDE18D8B42AEF05F044
:100A50002CEF05F02EEF05F09BEF07F033C025F0EB
:100A6000332A33501B24D96E000E1C20DA6E300E50
:100A7000DE18D8B43EEF05F040EF05F030EF05F09A
:100A800033501B24D96E000E1C20DA6E700EDE1857
:100A9000D8B44DEF05F04FEF05F0BBEF06F0335043
:100AA0001B24D96E000E1C20DA6E500EDE18D8A45E
:100AB0005CEF05F05EEF05F060EF05F0BBEF06F0D0
:100AC00033501B24D96E000E1C20DA6E2E0EDE1859
:100AD000D8A46DEF05F06FEF05F075EF05F02A88EB
:100AE00033C026F0332ABBEF06F033501B24D96EF7
:100AF000000E1C20DA6EDF501F6E1F50026E036A5C
:100B0000D7EC2CF002500310D8B489EF05F08BEF2E
:100B100005F09BEF07F0296A33501B24D96E000EB5
:100B20001C20DA6EDF501F6E1F50026E036A4DEC00
:100B30002EF002500310D8B4A0EF05F0A2EF05F09C
:100B4000ADEF05F033501B24D96E000E1C20DA6E79
:100B5000DF50D00F296EBDEF05F033501B24D96E46
:100B6000000E1C20DA6EDF501F6E1F50026E036AEB
:100B700020EC2EF00250C90F296E2EBECBEF05F0EF
:100B80002E5007E1080E2D5CD8B0C9EF05F0CBEF71
:100B900005F0EAEF05F02D5007081F6ED8901F36BC
:100BA000D8901F3629C020F0216A226A236A1F2AA2
:100BB000DFEF05F0D89020362136223623361F2E5F
:100BC000DAEF05F020502F1221503012225031124E
:100BD000235032122D4A2E2A040E2B26000E2C22D0
:100BE000332A40EF05F033501B24D96E000E1C2031
:100BF000DA6E300EDE18D8A400EF06F002EF06F031
:100C000011EF06F02D502E10D8A409EF06F00BEFCF
:100C100006F011EF06F0FC0E2B26FF0E2C22BAEF89
:100C200006F033501B24D96E000E1C20DA6EDF5004
:100C30001F6E1F50026E036AD7EC2CF00250031097
:100C4000D8B425EF06F027EF06F08AEF06F0296A00
:100C500033501B24D96E000E1C20DA6EDF501F6E3D
:100C60001F50026E036A4DEC2EF002500310D8B4F0
:100C70003CEF06F03EEF06F049EF06F033501B2440
:100C8000D96E000E1C20DA6EDF50D00F296E59EF9E
:100C900006F033501B24D96E000E1C20DA6EDF5094
:100CA0001F6E1F50026E036A20EC2EF00250C90F17
:100CB000296E2EBE67EF06F02E5007E1080E2D5C60
:100CC000D8B065EF06F067EF06F086EF06F02D501E
:100CD00007081F6ED8901F36D8901F3629C020F005
:100CE000216A226A236A1F2A7BEF06F0D8902036F9
:100CF0002136223623361F2E76EF06F020502F1293
:100D00002150301222503112235032122D4A2E2AF5
:100D1000BAEF06F033501F6E206A2650216E226A09
:100D2000010E2126000E22221F50211807E120501B
:100D30002218D8A49EEF06F0A0EF06F0C2EF06F04E
:100D400026501F6E206A2550216E226A010E212630
:100D5000000E22221F50211807E120502218D8A48B
:100D6000B4EF06F0B6EF06F0C2EF06F025C033F0A0
:100D70009BEF07F0332A2AB8C0EF06F0C2EF06F067
:100D8000F3EF05F033501B26000E1C22336A1BC004
:100D9000D9FF1CC0DAFF700EDE18D8B4D2EF06F00F
:100DA000D4EF06F0E3EF06F01BC0D9FF1CC0DAFF5A
:100DB000500EDE18D8B4DFEF06F0E1EF06F0E3EFF7
:100DC00006F09BEF07F0332A20EE01F01B50D926E6
:100DD0001C50DA222B0EDE18D8A4F1EF06F0F3EF48
:100DE00006F0F6EF06F0332A07EF07F020EE01F0E9
:100DF0001B50D9261C50DA222D0EDE18D8A403EF82
:100E000007F005EF07F007EF07F02A86332A335083
:100E10001B24D96E000E1C20DA6EDF501F6E1F508F
:100E2000026E036A4DEC2EF002500310D8A41BEFA3
:100E300007F01DEF07F020EF07F0336A9BEF07F094
:100E400033501B26000E1C22336A28EF07F0332A8A
:100E500033501B24D96E000E1C20DA6E300EDE18C3
:100E6000D8B435EF07F037EF07F027EF07F02E6A19
:100E7000000E2D6E64EF07F03350D8B442EF07F048
:100E800044EF07F051EF07F02DC002F02EC003F041
:100E9000056A0A0E046E63EC2EF002C02DF003C04A
:100EA0002EF033501B24D96E000E1C20DA6EDF505A
:100EB0001F6ED00E1F24206E216AFF0E21222050AB
:100EC0002D2621502E22332A33501B24D96E000E9A
:100ED0001C20DA6EDF501F6E1F50026E036A4DEC4D
:100EE0002EF002500310D8A478EF07F07AEF07F045
:100EF0003CEF07F03350D8A480EF07F082EF07F003
:100F00008CEF07F0000E1B6E000E1C6E000E1D6EA7
:100F1000000E1E6E2AEF0BF02AA691EF07F093EF5A
:100F200007F097EF07F02D6C2E1ED8B02E2A2D500B
:100F30002B262E502C221D50D8B4A1EF07F0A3EF82
:100F400007F0B0EF07F033501B241F6E000E1C207B
:100F5000206E1D50D96EDA6A1FC0DEFF20C0DDFF93
:100F60002F50301031103210D8A4B9EF07F0BBEF7A
:100F700007F0C5EF07F0000E1B6E000E1C6E000E92
:100F80001D6E000E1E6E2AEF0BF0FF0E2F141F6E4B
:100F9000000E3014206E000E3114216E000E32143B
:100FA000226E22502110201009E1810E1F5CD8A072
:100FB000DCEF07F0DEEF07F0F0EF07F0000E2F2672
:100FC000010E3022000E3122000E3222F0EF07F027
:100FD000D8902F363036313632362B06D8A02C0634
:100FE00032AEF5EF07F0F7EF07F0E8EF07F02CAEC1
:100FF00003EF08F0830E2B5CFF0E2C58D8B003EFE4
:1010000008F005EF08F011EF08F0FF0E2C6E810ECE
:101010002B6E000E2F6E000E306E000E316E000E25
:10102000326E810E2B1808E12C28D8B41AEF08F084
:101030001CEF08F024EF08F0D8902F363036313608
:1010400032362B06D8A02C062CBE30EF08F02C50E0
:1010500009E1800E2B5CD8A030EF08F032EF08F0E9
:1010600042EF08F0000E2F6E000E306E000E316E53
:10107000000E326E2C6A800E2B6E286A220E276EAE
:10108000F4EF0AF0090E1F6ED8903232313230324E
:101090002F321F2E44EF08F0FF0E2F16FF0E3016D2
:1010A0007F0E3116000E32167F0E2B241F6E000E9F
:1010B0002C20206EFF0E1F14216E226A236A246AE0
:1010C000170ED8902136223623362436E82E61EFCB
:1010D00008F021502F122250301223503112245088
:1010E0003212F4EF0AF02AB878EF08F07AEF08F03D
:1010F0008CEF08F01BC0D9FF1CC0DAFF2E0EDE18E3
:10110000D8A485EF08F087EF08F08CEF08F02A8864
:101110001B4A1C2A73EF08F01BC0D9FF1CC0DAFF62
:10112000DF501F6E1F50026E036A4DEC2EF002500E
:101130000310D8A49EEF08F0A0EF08F0A2EF08F08B
:10114000F0EF08F02A82090E2D182E10D8B4ABEF5C
:1011500008F0ADEF08F0E3EF08F02AA8B2EF08F0CE
:10116000B4EF08F0B7EF08F02B06D8A02C062D4AF4
:101170002E2A2FC002F030C003F031C004F032C07C
:1011800005F00A0E066E000E076E000E086E000EC9
:10119000096E41EC2CF002C02FF003C030F004C007
:1011A00031F005C032F01BC0D9FF1CC0DAFFDF50A0
:1011B0001F6ED00E1F261F502F26000E3022312208
:1011C0003222ECEF08F02AB8E8EF08F0EAEF08F076
:1011D000ECEF08F02B4A2C2A1B4A1C2A73EF08F06C
:1011E0002E6A000E2D6E1BC0D9FF1CC0DAFF650EE3
:1011F000DE18D8B4FEEF08F000EF09F00DEF09F0AB
:101200001BC0D9FF1CC0DAFF450EDE18D8A40BEFB7
:1012100009F00DEF09F093EF09F01B4A1C2A1BC0DF
:10122000D9FF1CC0DAFF2D0EDE18D8A41AEF09F082
:101230001CEF09F021EF09F02A861B4A1C2A30EF27
:1012400009F01BC0D9FF1CC0DAFF2B0EDE18D8A492
:101250002CEF09F02EEF09F030EF09F01B4A1C2AA1
:101260001BC0D9FF1CC0DAFF300EDE18D8B43BEF2C
:1012700009F03DEF09F02EEF09F0296A5AEF09F065
:101280001BC0D9FF1CC0DAFFDF501F6ED00E1F2617
:101290000A0E2D02F3CF20F0F4CF21F02E02F350EE
:1012A00021261F5020242D6E000E21202E6E1B4A59
:1012B0001C2A292A1BC0D9FF1CC0DAFFDF501F6E71
:1012C0001F50026E036A4DEC2EF002500310D8A49A
:1012D0006CEF09F06EEF09F040EF09F02950D8A447
:1012E00074EF09F076EF09F088EF09F02FEEFFF0C8
:1012F0001B50D9261C50DA22300EDE18D8B483EFEA
:1013000009F085EF09F088EF09F01B06D8A01C064C
:101310002AA68DEF09F08FEF09F093EF09F02D6CFD
:101320002E1ED8B02E2A2D502B262E502C221D508A
:10133000D8B49DEF09F09FEF09F0ADEF09F02AA2B4
:10134000A4EF09F0A6EF09F0ADEF09F01D50D96E3A
:10135000DA6A1BC0DEFF1CC0DDFF2FC002F030C008
:1013600003F031C004F032C005F0000E64EC24F04C
:1013700002C02FF003C030F004C031F005C032F0DD
:101380002FC002F030C003F031C004F032C005F0CD
:10139000000E066E000E076E000E086E000E096E3F
:1013A000A5EC2AF0D8A0D7EF09F0D9EF09F0E3EFC8
:1013B00009F0000E1B6E000E1C6E000E1D6E000E5E
:1013C0001E6E2AEF0BF02CBEEAEF09F0E8EF09F0F1
:1013D00078EF0AF02B6C2C1ED8B02C2A0EEF0AF0F6
:1013E0002FC002F030C003F031C004F032C005F06D
:1013F000F90E066E020E076E150E086E500E096E7F
:10140000B0EC1EF002C02FF003C030F004C031F089
:1014100005C032F0F60E2B26FF0E2C222CBE1CEF40
:101420000AF02C5007E10A0E2B5CD8B01AEF0AF034
:101430001CEF0AF0F0EF09F03BEF0AF02FC002F0CA
:1014400030C003F031C004F032C005F0000E066E6B
:10145000000E076E200E086E410E096EB0EC1EF0F5
:1014600002C02FF003C030F004C031F005C032F0EC
:101470002B06D8A02C062B502C10D8A442EF0AF033
:1014800044EF0AF01EEF0AF02FC002F030C003F064
:1014900031C004F032C005F0000E066E000E076E7B
:1014A000800E086E000E096EE1EC26F0D8B05BEFFE
:1014B0000AF05DEF0AF0F4EF0AF02AA062EF0AF0FA
:1014C00064EF0AF06EEF0AF0000E1B6E000E1C6E49
:1014D000800E1D6E800E1E6E2AEF0BF0000E1B6E2E
:1014E000000E1C6E800E1D6E000E1E6E2AEF0BF09D
:1014F0002CBE83EF0AF02C5008E12B04D8A083EF18
:101500000AF085EF0AF0F4EF0AF0A5EF0AF02FC019
:1015100002F030C003F031C004F032C005F0F90E23
:10152000066E020E076E150E086E500E096E8CECDC
:101530001AF002C02FF003C030F004C031F005C033
:1015400032F0F60E2B26FF0E2C222C5007E10A0E4D
:101550002B5CD8B0AEEF0AF0B0EF0AF087EF0AF0DC
:10156000CFEF0AF02FC002F030C003F031C004F01A
:1015700032C005F0000E066E000E076E200E086EDB
:10158000410E096E8CEC1AF002C02FF003C030F04F
:1015900004C031F005C032F02B06D8A02C062B5029
:1015A0002C10D8A4D6EF0AF0D8EF0AF0B2EF0AF068
:1015B000FF0E026EFF0E036E7F0E046E7F0E056E31
:1015C0002FC006F030C007F031C008F032C009F07B
:1015D000E1EC26F0D8B0EFEF0AF0F1EF0AF0F4EF0B
:1015E0000AF0286A220E276E27502810D8B4FBEF85
:1015F0000AF0FDEF0AF009EF0BF027C079F028C0E0
:101600007AF0000E2F6E000E306E800E316E7F0E5F
:10161000326E2AA00EEF0BF010EF0BF022EF0BF062
:101620002FC002F030C003F031C004F032C005F02A
:10163000EDEC2DF002C02FF003C030F004C031F00B
:1016400005C032F02FC01BF030C01CF031C01DF0BF
:1016500032C01EF012000101456B1FC146F120C1CE
:1016600047F121C148F122C149F149BF3CEF0BF0DC
:101670003AEF0BF050EF0BF0010E456F46C199F0B9
:1016800047C19AF048C19BF049C19CF0B3EC2DF0E2
:1016900099C046F19AC047F19BC048F19CC049F1FE
:1016A00001014B6B000E4A6FD5C035F1D6C036F143
:1016B0004551D8B45EEF0BF060EF0BF072EF0BF01A
:1016C0004551D8A466EF0BF068EF0BF06DEF0BF00F
:1016D0002B6B2B0E2A6F70EF0BF02B6B2D0E2A6FDE
:1016E0002AC145F146C199F047C19AF048C19BF023
:1016F00049C19CF0E5EC27F0000199059A11D8A4A6
:1017000084EF0BF086EF0BF0BAEF0BF001014551BF
:10171000D8B48DEF0BF08FEF0BF097EF0BF045C1C6
:1017200000F23507D8A036074B6B010E4A6F000E4A
:101730004A250001996F020E01014B2100019A6FA9
:101740002D0E9B6F95EC2DF00101FD0E3527FF0E40
:1017500036231DC1AFF01EC1B0F0000E0001B16F05
:10176000020EB26F35C1B3F036C1B4F00BEC2CF001
:1017700056EF10F046C199F047C19AF048C19BF06E
:1017800049C19CF0E5EC27F0000199519A11D8A4C9
:10179000CCEF0BF0CEEF0BF0EEEF0BF0010145516B
:1017A000D8B4D5EF0BF0D7EF0BF0DFEF0BF045C15E
:1017B00000F23507D8A036074B6B010E4A6F000EBA
:1017C0004A250001996F020E01014B2100019A6F19
:1017D000310E9B6F95EC2DF0A4EF0BF0000E010184
:1017E0004C6F000E4D6F800E4E6F3F0E4F6F346B7F
:1017F000000E336F46C199F047C19AF048C19BF083
:1018000049C19CF0000E00019D6F000E9E6F000EFE
:101810009F6F000EA06F4FEC2AF00001D8B013EFBD
:101820000CF015EF0CF00FEF0DF022EF0CF037C1BC
:101830004CF138C14DF139C14EF13AC14FF10101BE
:10184000334B342B4CC1A7F04DC1A8F04EC1A9F0C9
:101850004FC1AAF0000E0001AB6F000EAC6F200E5E
:10186000AD6F410EAE6F78EC18F0A7C037F1A8C08D
:1018700038F1A9C039F1AAC03AF101013751465DEA
:101880000001996F01013851475900019A6F010118
:101890003951485900019B6F01013A5149590001E2
:1018A0009C6FABEC2CF000019CBF62EF0CF09C51E4
:1018B0009B119A1109E1020E995DD8A062EF0CF01C
:1018C00064EF0CF017EF0CF037C1C0F038C1C1F075
:1018D00039C1C2F03AC1C3F046C1C4F047C1C5F036
:1018E00048C1C6F049C1C7F05EEC26F00001D8A09F
:1018F0007CEF0CF07EEF0CF017EF0CF001014C5177
:10190000465D0001996F01014D51475900019A6FE1
:1019100001014E51485900019B6F01014F51495936
:1019200000019C6FABEC2CF000019CBFA5EF0CF00C
:101930009C519B119A1107E1020E995DD8B0A3EF5B
:101940000CF0A5EF0CF0F5EF0CF04CC146F14DC1D9
:1019500047F14EC148F14FC149F10FEF0DF04CC1B5
:10196000C0F04DC1C1F04EC1C2F04FC1C3F0000E76
:10197000C46F000EC56F200EC66F410EC76F9FEC7F
:101980001CF0C0C04CF1C1C04DF1C2C04EF1C3C08B
:101990004FF101013307D8A034074C51465D0001D7
:1019A000996F01014D51475900019A6F01014E5144
:1019B000485900019B6F01014F51495900019C6F2B
:1019C000ABEC2CF000019CBFF3EF0CF09C519B1191
:1019D0009A1107E1020E995DD8B0F1EF0CF0F3EF28
:1019E0000CF0F5EF0CF0A5EF0CF046C1C0F047C1CC
:1019F000C1F048C1C2F049C1C3F04CC1C4F04DC1EF
:101A0000C5F04EC1C6F04FC1C7F05EEC26F0000134
:101A1000D8A00DEF0DF00FEF0DF0AFEF0CF023C1DC
:101A20002DF12DC12EF1D8BF18EF0DF01AEF0DF0EA
:101A300020EF0DF0D7C026F1D8C027F124EF0DF02C
:101A40000101276B060E266F26C131F127C132F145
:101A50000101314B322B660E2E19D8A432EF0DF056
:101A600034EF0DF053EF0DF034BF3BEF0DF039EFD5
:101A70000DF046EF0DF0000E4C6F000E4D6F800E16
:101A80004E6F3F0E4F6F346B000E336F670E2D1984
:101A9000D8B44DEF0DF04FEF0DF053EF0DF0335183
:101AA0003127345132233C6B000E3B6F46C13DF170
:101AB00047C13EF148C13FF149C140F14CC137F146
:101AC0004DC138F14EC139F14FC13AF1E4EF0DF09B
:101AD0003DC1C0F03EC1C1F03FC1C2F040C1C3F042
:101AE0004CC1C4F04DC1C5F04EC1C6F04FC1C7F0E6
:101AF0009FEC1CF0C0C0CCF0C1C0CDF0C2C0CEF095
:101B0000C3C0CFF077EC20F0CCC041F1CDC042F1A2
:101B1000CEC043F1CFC044F141C199F042C19AF027
:101B200043C19BF044C19CF0DAEC25F099C02FF141
:101B30009AC030F13DC1C0F03EC1C1F03FC1C2F01A
:101B400040C1C3F041C1ABF042C1ACF043C1ADF004
:101B500044C1AEF04CC1A7F04DC1A8F04EC1A9F0F0
:101B60004FC1AAF078EC18F0A7C0C4F0A8C0C5F027
:101B7000A9C0C6F0AAC0C7F04EEC2DF0C0C03DF120
:101B8000C1C03EF1C2C03FF1C3C040F14CC1C0F082
:101B90004DC1C1F04EC1C2F04FC1C3F0000E0001F3
:101BA000C46F000EC56F200EC66F410EC76F9FEC4D
:101BB0001CF0C0C04CF1C1C04DF1C2C04EF1C3C059
:101BC0004FF101013B4B3C2B31513B5D3C51800AB5
:101BD0000001D06F01013251800A0001D059D8A014
:101BE000F4EF0DF0F6EF0DF068EF0DF04CC1A7F03B
:101BF0004DC1A8F04EC1A9F04FC1AAF0000EAB6FC5
:101C0000000EAC6FA00EAD6F400EAE6F78EC18F00A
:101C1000A7C041F1A8C042F1A9C043F1AAC044F154
:101C20003DC1C0F03EC1C1F03FC1C2F040C1C3F0F0
:101C300041C1C4F042C1C5F043C1C6F044C1C7F0C0
:101C40005EEC26F00001D8B028EF0EF02AEF0EF07F
:101C500035EF0EF0000E0101416F000E426F000ED5
:101C6000436F000E446F5FEF0EF03DC199F03EC12F
:101C70009AF03FC19BF040C19CF041C19DF042C130
:101C80009EF043C19FF044C1A0F04FEC2AF0000148
:101C9000D8A04DEF0EF04FEF0EF05FEF0EF0010108
:101CA0002FB155EF0EF057EF0EF05FEF0EF0000E74
:101CB000416F000E426F000E436F000E446F46C12D
:101CC00099F047C19AF048C19BF049C19CF041C1CD
:101CD0009DF042C19EF043C19FF044C1A0F01CECB6
:101CE00016F099C03DF19AC03EF19BC03FF19CC0F7
:101CF00040F13DC1C0F03EC1C1F03FC1C2F040C1A2
:101D0000C3F0000E0001AB6F000EAC6F200EAD6F84
:101D1000410EAE6F37C1A7F038C1A8F039C1A9F0A4
:101D20003AC1AAF078EC18F0A7C0C4F0A8C0C5F07A
:101D3000A9C0C6F0AAC0C7F05EEC26F00001D8A08A
:101D4000A4EF0EF0A6EF0EF0D0EF0EF00101334B32
:101D5000342B37C1A7F038C1A8F039C1A9F03AC176
:101D6000AAF0000E0001AB6F000EAC6F200EAD6F3D
:101D7000410EAE6F78EC18F0A7C037F1A8C038F16B
:101D8000A9C039F1AAC03AF1660E01012E19D8A4F2
:101D9000CCEF0EF0CEEF0EF0D0EF0EF0314B322B39
:101DA00037C14CF138C14DF139C14EF13AC14FF153
:101DB00033C124F134C125F101012C6B296B000ED4
:101DC000286F3C6B000E3B6FCCEF0FF03DC1C0F0B5
:101DD0003EC1C1F03FC1C2F040C1C3F04CC1C4F02C
:101DE0004DC1C5F04EC1C6F04FC1C7F09FEC1CF00D
:101DF000C0C0CCF0C1C0CDF0C2C0CEF0C3C0CFF0E7
:101E000077EC20F0CCC041F1CDC042F1CEC043F11F
:101E1000CFC044F141C199F042C19AF043C19BF057
:101E200044C19CF0DAEC25F000019ABF23EF0FF0DB
:101E30009A5107E10A0E995DD8B021EF0FF023EF18
:101E40000FF033EF0FF041C199F042C19AF043C156
:101E50009BF044C19CF0DAEC25F099C02FF19AC0B8
:101E600030F137EF0FF00101306B090E2F6F0101D8
:101E70002C51D8A43EEF0FF040EF0FF068EF0FF0B9
:101E800025BF47EF0FF045EF0FF068EF0FF0000EA2
:101E90004A25D96E020E4B21DA6E2E0EDF6E4A4BAA
:101EA0004B2B3507D8A03607010E2C6F68EF0FF0CB
:101EB000000E4A25D96E020E4B21DA6E300EDF6E0F
:101EC0004A4B4B2B3507D8A036072807D8A029073F
:101ED00028512911D8A46FEF0FF071EF0FF058EFD0
:101EE0000FF0000E4A25D96E020E4B21DA6E2F51EB
:101EF000300FDF6E4A4B4B2B3507D8A036073DC15C
:101F0000C0F03EC1C1F03FC1C2F040C1C3F041C109
:101F1000ABF042C1ACF043C1ADF044C1AEF04CC136
:101F2000A7F04DC1A8F04EC1A9F04FC1AAF078ECBE
:101F300018F0A7C0C4F0A8C0C5F0A9C0C6F0AAC0D8
:101F4000C7F04EEC2DF0C0C03DF1C1C03EF1C2C0A3
:101F50003FF1C3C040F14CC1C0F04DC1C1F04EC112
:101F6000C2F04FC1C3F0000E0001C46F000EC56F78
:101F7000200EC66F410EC76F9FEC1CF0C0C04CF125
:101F8000C1C04DF1C2C04EF1C3C04FF101012407E1
:101F9000D8A025073B4B3C2B31513B5D3C51800A7F
:101FA0000001D06F01013251800A0001D059D8B030
:101FB000DCEF0FF0DEEF0FF0EDEF0FF001014BBFA4
:101FC000EBEF0FF04B5109E14B0E4A5DD8A0EBEF60
:101FD0000FF0EDEF0FF0E6EF0EF001013C6B4F0E4E
:101FE0003B6F000E3B25D96E020E3C21DA6EDF6A94
:101FF000000E0001D06F020ED16F01014A510001A5
:10200000D05F01014B510001D15B01013B51000147
:10201000D025996F01013C510001D1219A6F000E2A
:102020009B6F020E9C6F4AC19DF04BC19EF001EC6C
:102030002DF001014A513B5D4A6F4B513C594B6FAA
:102040004551D8A426EF10F029EF10F0010E2AEF29
:1020500010F0000E3B6F3C6B4551D8B432EF10F0DE
:1020600034EF10F03FEF10F04A07D8A04B07000EF6
:102070004A25D96E020E4B21DA6E45C1DFFF3B5176
:10208000355F3C51365B1DC1AFF01EC1B0F0000E94
:102090004A250001B16F020E01014B210001B26F10
:1020A00035C1B3F036C1B4F00BEC2CF01200575030
:1020B000D96EDA6ADFCFF6FF060EF76E0800F5502C
:1020C000250AD8A466EF10F068EF10F09EEF12F02A
:1020D0005750D96EDA6ADF2A0001DE6B000EDD6F21
:1020E000DD51DE11D8A477EF10F07AEF10F0010E79
:1020F0007BEF10F0000EE06F5750D96EDA6ADFCF39
:10210000F6FF060EF76E0800F5CF5AF0BF0E5A26FE
:10211000190E5A648EEF10F090EF10F09DEF10F052
:102120005750D96EDA6ADFCFF6FF060EF76E080059
:10213000F5505D6E5E6AADEF10F05750D96EDA6AF9
:10214000DFCFF6FF060EF76E0800F5505A6E5B6A99
:10215000200E5A105D6E5B505E6E5DC067F067507A
:10216000D8B4B5EF10F0B7EF10F03DEF11F05750C5
:10217000D96EDA6ADF505A6E010E5A265AC0F6FF3F
:10218000060EF76E0800F5CF5BF0BF0E5B26190E4A
:102190005B64CDEF10F0CFEF10F0E0EF10F0575090
:1021A000D96EDA6ADF505A6E010E5A265AC0F6FF0F
:1021B000060EF76E0800F5505F6E606AF4EF10F0DF
:1021C0005750D96EDA6ADF505A6E010E5A265AC03D
:1021D000F6FF060EF76E0800F5505B6E5C6A200E87
:1021E0005B105F6E5C50606E5FC068F06850D8B482
:1021F000FCEF10F0FEEF10F03DEF11F05750D96EEC
:10220000DA6ADF505A6E020E5A265AC0F6FF060EE0
:10221000F76E0800F5CF5BF0BF0E5B26190E5B640E
:1022200014EF11F016EF11F027EF11F05750D96E9F
:10223000DA6ADF505A6E020E5A265AC0F6FF060EB0
:10224000F76E0800F550616E626A3BEF11F057506F
:10225000D96EDA6ADF505A6E020E5A265AC0F6FF5D
:10226000060EF76E0800F5505B6E5C6A200E5B1080
:10227000616E5C50626E61C069F0610E6718D8B41F
:1022800044EF11F046EF11F061EF11F0650E6718A1
:10229000D8B44DEF11F04FEF11F061EF11F0660E71
:1022A0006718D8B456EF11F058EF11F061EF11F044
:1022B000670E6718D8A45FEF11F061EF11F09BEF84
:1022C00011F05750D96EDA6ADF2A56C034F06A0E20
:1022D000356E51EC13F034C065F035C066F066BE63
:1022E0007AEF11F0665008E16504D8A07AEF11F09A
:1022F0007CEF11F095EF11F058C0D9FF59C0DAFF0B
:10230000020EDF26DF5CD96EDA6ADECF63F0DECF45
:1023100064F063C0D9FF64C0DAFF6AC0DEFF6BC03F
:10232000DEFF6CC0DEFF6DC0DEFF65C056F066C02C
:1023300057F050EF13F0670E026E036A350E046E0D
:10234000066A020E056E35EC29F002500310D8B46F
:10235000ACEF11F0AEEF11F0E7EF11F0670E026E87
:10236000036A380E046E066A020E056E35EC29F01B
:1023700002500310D8B4BFEF11F0C1EF11F0E7EF36
:1023800011F0670E026E036A3B0E046E066A020EBF
:10239000056E35EC29F002500310D8B4D2EF11F0DD
:1023A000D4EF11F0E7EF11F0670E026E036A3E0EF4
:1023B000046E066A020E056E35EC29F00250031019
:1023C000D8A4E5EF11F0E7EF11F04DEF12F056C091
:1023D00034F06A0E356E51EC13F034C065F035C040
:1023E00066F066BEFCEF11F0665008E16504D8A007
:1023F000FCEF11F0FEEF11F046EF12F05750D96EDE
:10240000DA6ADFCFF6FF060EF76E0800F5CF5AF056
:10241000BF0E5A261A0E5A6010EF12F012EF12F089
:102420002DEF12F058C0D9FF59C0DAFF020EDF2697
:10243000DF5CD96EDA6ADECF63F0DECF64F063C0B2
:10244000D9FF64C0DAFF6AC0DEFF6BC0DEFF6CC07C
:10245000DEFF6DC0DEFF46EF12F058C0D9FF59C055
:10246000DAFF020EDF26DF5CD96EDA6ADECF63F0B8
:10247000DECF64F063C0D9FF64C0DAFF6AC0DEFF5C
:102480006BC0DEFF6CC0DEFF6DC0DEFF5750D96E43
:10249000DA6A020EDF2695EF11F05750D96EDA6A2C
:1024A000DFCFF6FF060EF76E0800F550250AD8A418
:1024B0005CEF12F05EEF12F098EF12F056C00DF0E4
:1024C00076EC2CF056C004F063EC27F004C06EF0FC
:1024D00005C06FF0250E6E186F10D8A472EF12F0C1
:1024E00074EF12F080EF12F05750D96EDA6ADF2ADB
:1024F0000001D94BDA2B576A000E566E50EF13F0DD
:102500006E2808E16F28D8B488EF12F08AEF12F035
:1025100092EF12F06EC002F06FC003F056C004F0EC
:10252000FAEC2AF0FF0E576EFE0E566E50EF13F0C7
:102530005750D96EDA6ADF2A7BEF12F056C004F0EA
:1025400063EC27F004C06EF005C06FF05750D96EF1
:10255000DA6ADFCFF6FF060EF76E0800F550200AA4
:10256000D8B4B5EF12F0B7EF12F0CBEF12F057502E
:10257000D96EDA6ADFCFF6FF060EF76E0800F5CFE8
:102580005AF0F70E5A26050E5A60C9EF12F0CBEF3B
:1025900012F02BEF13F05750D96EDA6ADF2A57503A
:1025A000D96EDA6ADFCFF6FF060EF76E0800F55037
:1025B000200AD8B4DEEF12F0E0EF12F0CBEF12F009
:1025C0005750D96EDA6ADFCFF6FF060EF76E0800B5
:1025D000F5CF5AF0F70E5A26040E5A64F2EF12F0B5
:1025E000F4EF12F0CBEF12F001EF13F00001D94B32
:1025F000DA2B56C004F063EC27F004C06EF005C07F
:102600006FF0200E6E186F10D8B409EF13F00BEFB7
:1026100013F0F6EF12F06EC05AF0F70E5A26040EC1
:102620005A6415EF13F017EF13F0F6EF12F06E285F
:1026300008E16F28D8B41FEF13F021EF13F07BEF00
:1026400012F06EC002F06FC003F056C004F0FAEC56
:102650002AF07BEF12F05750D96EDA6ADFCFF6FF1F
:10266000060EF76E0800F5505A6E5B6A6E505A18E7
:1026700007E16F505B18D8A440EF13F042EF13F05E
:1026800044EF13F074EF12F06E2806E16F28D8A41F
:102690004CEF13F04EEF13F08AEF12F056685768C4
:1026A000120034C00DF076EC2CF00001DD51DE118B
:1026B000D8A45DEF13F05FEF13F064EF13F0456AF9
:1026C0004F0E446E68EF13F0DDC044F0DEC045F0FD
:1026D000455009E14F0E445CD8A071EF13F073EF41
:1026E00013F078EF13F0476A4F0E466E7CEF13F04D
:1026F00044C046F045C047F0536A000E526E52C0C7
:102700004EF053C04FF04B6A000E4A6E4A504B10C9
:10271000D8A48DEF13F090EF13F0010E91EF13F0AA
:10272000000E496E49C048F096EF15F034C004F031
:1027300063EC27F004C054F005C055F0542806E1BE
:102740005528D8A4A6EF13F0A8EF13F0C1EF13F0AB
:102750000001DD51DE11D8A4B0EF13F0B2EF13F099
:10276000BBEF13F052505310D8A4B9EF13F0BBEFE6
:1027700013F0C1EF13F054C034F055C035F01BEF27
:1027800016F04A504B10D8A4C8EF13F0CAEF13F05C
:102790000FEF14F02B0E54185510D8B4D2EF13F0DD
:1027A000D4EF13F0DEEF13F02D0E54185510D8A40B
:1027B000DCEF13F0DEEF13F00FEF14F05250531074
:1027C000D8B4E5EF13F0E7EF13F0FDEF13F04E5040
:1027D000521809E14F505318D8B4F1EF13F0F3EF4A
:1027E00013F0FDEF13F054C002F055C003F034C0F5
:1027F00004F0FAEC2AF0A5EF15F04B6A010E4A6ED0
:102800007A0E5224D96E010E5320DA6E54C0DFFFC7
:10281000524A532A0001D94BDA2B96EF15F0495052
:10282000D8A415EF14F017EF14F030EF14F02E0EBB
:1028300054185510D8A41FEF14F021EF14F030EF06
:1028400014F04E504F10D8B428EF14F02AEF14F0C3
:102850002CEF14F0F3EF13F0010E496E00EF14F0BB
:102860004E504F10D8A437EF14F039EF14F0A1EF09
:1028700014F04850D8A43FEF14F041EF14F068EF83
:1028800014F054C036F0BF0E3626190E36644BEFE6
:1028900014F04DEF14F053EF14F054C03AF055C05B
:1028A0003BF058EF14F0200E54103A6E55503B6E2A
:1028B000650E3A183B10D8B460EF14F063EF14F0D3
:1028C000010E64EF14F0000E386E396A8DEF14F0CB
:1028D00054C036F0BF0E3626190E366472EF14F06F
:1028E00074EF14F07AEF14F054C03CF055C03DF092
:1028F0007FEF14F0200E54103C6E55503D6E700E5C
:102900003C183D10D8B487EF14F08AEF14F0010E94
:102910008BEF14F0000E386E396A38503910D8B485
:1029200094EF14F096EF14F0A1EF14F0010E52247E
:102930004E6E000E53204F6E4B6A000E4A6E00EF33
:1029400014F04E504F10D8A4A8EF14F0AAEF14F0D2
:10295000F0EF14F0010E4A24366E000E4B20376E55
:102960005250361807E153503718D8A4BAEF14F074
:10297000BCEF14F0F0EF14F054C036F0BF0E362662
:10298000190E3664C6EF14F0C8EF14F0CEEF14F051
:1029900054C03EF055C03FF0D3EF14F0200E541059
:1029A0003E6E55503F6E780E3E183F10D8A4DBEFB8
:1029B00014F0DDEF14F0F0EF14F0790E5224D96E1C
:1029C000010E5320DA6E300EDE18D8A4EAEF14F0B0
:1029D000ECEF14F0F0EF14F0010E486E00EF14F07D
:1029E0004850D8A4F6EF14F0F8EF14F00AEF15F001
:1029F00054C036F0D00E3626090E366402EF15F0BC
:102A000005EF15F0010E06EF15F0000E406E416A5D
:102A10002AEF15F0010E426E54C036F0D00E362665
:102A2000090E366416EF15F018EF15F027EF15F0C4
:102A300054C036F0200E36129F0E3626050E366430
:102A400024EF15F026EF15F027EF15F0426A42C08B
:102A500040F0416A40504110D8A431EF15F033EFF7
:102A600015F000EF14F054C036F0BF0E3626190EE4
:102A700036643DEF15F03FEF15F045EF15F054C00B
:102A800050F055C051F04AEF15F0200E5410506E22
:102A90005550516E52504A1807E153504B18D8A464
:102AA00054EF15F056EF15F0F3EF13F0690E5018D0
:102AB0005110D8B45EEF15F060EF15F06AEF15F025
:102AC0006E0E50185110D8A468EF15F06AEF15F08B
:102AD000F3EF13F034C00DF054C00EF052C00FF0FD
:102AE00053C010F046C011F047C012F082EC21F044
:102AF0000DC050F00EC051F051BE89EF15F051508D
:102B000006E15004D8B087EF15F089EF15F08BEF90
:102B100015F0A5EF15F05050522651505322505049
:102B20000001D9275150DA23A5EF15F04650525C29
:102B30005350800A366E4750800A3658D8A0A3EF0B
:102B400015F0A5EF15F096EF13F07A0E5224D96E1A
:102B5000010E5320DA6EDF6A79C04EF07AC04FF072
:102B60007A6A000E796E7A0E1B6E010E1C6E4C0E88
:102B70001D6E24EC03F03550D96EDA6A1BC0DEFFFF
:102B80001CC0DEFF1DC0DEFF1EC0DEFF436A7950A1
:102B90007A10D8B4CEEF15F0D0EF15F0DCEF15F0C9
:102BA000220E79187A10D8B4D8EF15F0DAEF15F0B4
:102BB000DCEF15F0010E436E4350D8A4E2EF15F0A0
:102BC000E5EF15F0010EE6EF15F0000E496E4EC070
:102BD00079F04FC07AF04950D8A4F1EF15F0F3EF37
:102BE00015F017EF16F052505310D8B4FAEF15F055
:102BF000FCEF15F017EF16F07A0E4C1809E1010EF4
:102C00004D18D8B406EF16F008EF16F017EF16F0CF
:102C10000001E051D8B40FEF16F012EF16F0010EDC
:102C200013EF16F0000E346E356A1BEF16F0FF0E30
:102C3000356EFE0E346E120000019C51800BA56FA4
:102C40009C519C25A76F9BAF28EF16F02AEF16F03A
:102C50002BEF16F0A781A751D8B431EF16F033EF60
:102C600016F047EF16F0A729D8A439EF16F03BEF7E
:102C700016F043EF16F0000E996F000E9A6F000EDB
:102C80009B6F000E9C6F9B8F9C6B4FEF16F0000E9E
:102C9000996F000E9A6F000E9B6F000E9C6FA051F3
:102CA000800BA66FA551A619D8B459EF16F05BEFAB
:102CB00016F05CEF16F0A58DA051A025A66F9FAF72
:102CC00064EF16F066EF16F067EF16F0A681A651D6
:102CD000D8B46DEF16F06FEF16F083EF16F0A6295B
:102CE000D8A475EF16F077EF16F07FEF16F0000E10
:102CF0009D6F000E9E6F000E9F6F000EA06F9F8F46
:102D0000A06B8BEF16F0000E9D6F000E9E6F000EF5
:102D10009F6F000EA06FA751A65DD8B092EF16F07E
:102D200094EF16F0BBEF16F0A5AD99EF16F09BEF00
:102D300016F09DEF16F0800EA51BA7C0A8F0A6C048
:102D4000A7F0A8C0A6F099C0A8F09DC099F0A8C0AF
:102D50009DF09AC0A8F09EC09AF0A8C09EF09BC0BB
:102D6000A8F09FC09BF0A8C09FF09CC0A8F0A0C096
:102D70009CF0A8C0A0F0A86BA751A6C0A1F0A26BC0
:102D8000A15F000EA25BA2BFCFEF16F0A25109E136
:102D90001A0EA15DD8A0CFEF16F0D1EF16F008EF14
:102DA00017F099519A119B119C11D8A4DAEF16F0E3
:102DB000DDEF16F0010EDEEF16F0000EA86F000E2C
:102DC000996F000E9A6F000E9B6F000E9C6FA6C04D
:102DD000A7F011EF17F0A8A1F0EF16F0F2EF16F040
:102DE000F8EF16F0D890A8310109A86FFAEF16F0A5
:102DF000D890A83399A1FFEF16F001EF17F002EF7A
:102E000017F0A88F9C359C339B339A339933A72BAB
:102E1000A651A75DD8A00FEF17F011EF17F0EBEF59
:102E200016F0A5BD16EF17F018EF17F058EF17F0D2
:102E3000A751D8A41EEF17F020EF17F02AEF17F0D4
:102E4000000E996F000E9A6F000E9B6F000E9C6F24
:102E500077EF18F09D5199279E519A239F519B23FC
:102E6000A0519C239CA137EF17F039EF17F0E5EF45
:102E700017F0A8A13EEF17F040EF17F046EF17F05C
:102E8000D890A8310109A86F48EF17F0D890A8335F
:102E900099A14DEF17F04FEF17F050EF17F0A88FF3
:102EA0009C359C339B339A339933A72BE5EF17F06E
:102EB0009D51995D9E519A599F519B599C51800AF1
:102EC000A16FA051800AA159D8B069EF17F06BEF3C
:102ED00017F096EF17F099519D5DA16F9A519E5989
:102EE000A26F9B519F59A36F9C51A059A46FFF0ED5
:102EF000A125996FFF0EA2219A6FFF0EA3219B6F50
:102F0000FF0EA4219C6F800EA51BA86DA851D8A40C
:102F10008CEF17F08EEF17F09EEF17F0010E992748
:102F2000000E9A239B239C239EEF17F09D51995FDF
:102F30009E519A5B9F519B5BA0519C5B99519A114A
:102F40009B119C11D8A4A7EF17F0A9EF17F0DEEFA3
:102F500017F0A851D8A4AFEF17F0B1EF17F0DEEFDC
:102F600017F0000E996F000E9A6F000E9B6F000E07
:102F70009C6F77EF18F0D89099379A379B379C372A
:102F8000A8AFC5EF17F0C7EF17F0C8EF17F099819A
:102F9000A8A1CDEF17F0CFEF17F0D3EF17F0D8803F
:102FA000A837D5EF17F0D890A837A751D8B4DBEFE2
:102FB00017F0DDEF17F0DEEF17F0A7079BAFE3EF99
:102FC00017F0E5EF17F0BBEF17F0A66BA8AFEBEF2C
:102FD00017F0EDEF17F005EF18F0A8C0A1F07F0E85
:102FE000A117D8B4F6EF17F0F8EF17F0FCEF17F0D1
:102FF000010EA66F05EF18F099A101EF18F003EF8D
:1030000018F005EF18F0F8EF17F0A651D8B40BEF51
:1030100018F00DEF18F038EF18F0010E9927000E98
:103020009A239B239C239CA118EF18F01AEF18F009
:1030300038EF18F099C0A1F09AC0A2F09BC0A3F09D
:103040009CC0A4F0A435A433A333A233A133A1C000
:1030500099F0A2C09AF0A3C09BF0A4C09CF0A7294D
:10306000D8B435EF18F037EF18F038EF18F0A72B79
:10307000A729D8B43EEF18F040EF18F048EF18F049
:10308000A751D8A446EF18F048EF18F059EF18F000
:10309000000E996F000E9A6F000E9B6F000E9C6FD2
:1030A000A751D8A456EF18F058EF18F059EF18F0C0
:1030B000A56BA7A15EEF18F060EF18F063EF18F0B2
:1030C0009B8F64EF18F09B9FD890A7319C6FA5AFA2
:1030D0006CEF18F06EEF18F06FEF18F09C8F99C03E
:1030E00099F09AC09AF09BC09BF09CC09CF0120093
:1030F0000001AA51800BB36FAA51AA25B96FA9AFDD
:1031000084EF18F086EF18F087EF18F0B981B95105
:10311000D8B48DEF18F08FEF18F0A2EF18F0B9299E
:10312000D8A495EF18F097EF18F09FEF18F0000E65
:10313000A76F000EA86F000EA96F000EAA6FA98FCF
:10314000AAEF18F0000EA76F000EA86F000EA96F6F
:10315000000EAA6FAE51800BB31BAE51AE25B86FF7
:10316000ADAFB5EF18F0B7EF18F0B8EF18F0B881C1
:10317000B851D8B4BEEF18F0C0EF18F0D3EF18F084
:10318000B829D8A4C6EF18F0C8EF18F0D0EF18F09F
:10319000000EAB6F000EAC6F000EAD6F000EAE6F89
:1031A000AD8FDBEF18F0000EAB6F000EAC6F000EB2
:1031B000AD6F000EAE6FB851D8B4E1EF18F0E3EF89
:1031C00018F0EBEF18F0B951D8A4E9EF18F0EBEFD5
:1031D00018F0F5EF18F0000EA76F000EA86F000EA4
:1031E000A96F000EAA6F8BEF1AF0AD51A703F3CFB2
:1031F000BEF0F4CFBFF0BE51B46FB56BB66BB76B1A
:10320000BF51BA6FBB6BBC6BBD6BAC51A803F3CFA6
:10321000BEF0F4CFBFF0BE51B427000EB523B623E5
:10322000B723BF51BA27000EBB23BC23BD23AB512C
:10323000A903F3CFBEF0F4CFBFF0BE51B427000E08
:10324000B523B623B723BF51BA27000EBB23BC2337
:10325000BD23B6C0B7F0B5C0B6F0B4C0B5F0B46B1E
:10326000AB51A803F3CFBEF0F4CFBFF0BE51B427EB
:10327000BF51B523000EB623000EB723AC51A703F0
:10328000F3CFBEF0F4CFBFF0BE51B427BF51B5238A
:10329000000EB623000EB723B6C0B7F0B5C0B6F027
:1032A000B4C0B5F0B46BAB51A703F3CFBEF0F4CF0D
:1032B000BFF0BE51B427BF51B523000EB623000E98
:1032C000B723AD51A803F3CFBEF0F4CFBFF0BE518A
:1032D000BA27BF51BB23000EBC23000EBD23AC5147
:1032E000A903F3CFBEF0F4CFBFF0BE51BA27BF5150
:1032F000BB23000EBC23000EBD23AD51A903F3CFA9
:10330000BEF0F4CFBFF0BE51AF6FBF51B06FB16B25
:10331000B26BB1C0B2F0B0C0B1F0AFC0B0F0AF6B43
:10332000AF51BA27B051BB23B151BC23B251BD2319
:10333000B4C0AFF0B5C0B0F0B6C0B1F0B7C0B2F035
:10334000190EA8EF19F0D890B233B133B033AF33C0
:10335000E82EA3EF19F0AF51BA27B051BB23B151FA
:10336000BC23B251BD23B6C0B7F0B5C0B6F0B4C0EF
:10337000B5F0B46BB851B9C0AFF0B06BAF27000E69
:10338000B023820EAF25BE6FFF0EB021BF6FDEEF00
:1033900019F0D890BA37BB37BC37BD37B7AFD3EFCA
:1033A00019F0D5EF19F0D6EF19F0BA81D890B437EB
:1033B000B537B637B737BE07D8A0BF07BCAFE3EF06
:1033C00019F0E5EF19F0C9EF19F0B86BB7AFEBEFF3
:1033D00019F0EDEF19F011EF1AF0FF0EB415AF6F01
:1033E000FF0EB515B06FFF0EB615B16F7F0EB71596
:1033F000B26FAF51B011B111B211D8B402EF1AF0DF
:1034000004EF1AF008EF1AF0010EB86F11EF1AF07E
:10341000BAA10DEF1AF00FEF1AF011EF1AF004EF46
:103420001AF0B851D8B417EF1AF019EF1AF03DEFAF
:103430001AF0010EBA27000EBB23BC23BD23BDA189
:1034400024EF1AF026EF1AF03DEF1AF0BAC0AFF0F1
:10345000BBC0B0F0BCC0B1F0BDC0B2F0B235B23349
:10346000B133B033AF33AFC0BAF0B0C0BBF0B1C00E
:10347000BCF0B2C0BDF0BE4BBF2BBFBF48EF1AF0CF
:10348000BF5108E1BE29D8A048EF1AF04AEF1AF060
:1034900054EF1AF0000EBA6F000EBB6F800EBC6FB7
:1034A0007F0EBD6F81EF1AF0BFBF61EF1AF0BF5101
:1034B00006E1BE05D8B05FEF1AF061EF1AF06CEFCD
:1034C0001AF0000EBA6F000EBB6F000EBC6F000E3C
:1034D000BD6FB36B81EF1AF0BEC0B9F0FF0EBA1723
:1034E000FF0EBB177F0EBC17000EBD17B9A17BEFF7
:1034F0001AF07DEF1AF07EEF1AF0BC8FD890B93138
:10350000BD6FB351BD13BAC0A7F0BBC0A8F0BCC01B
:10351000A9F0BDC0AAF012000550800B0E6E055038
:103520000524146E04AE97EF1AF099EF1AF09AEF93
:103530001AF014801450D8B4A0EF1AF0A2EF1AF0C9
:10354000B5EF1AF01428D8A4A8EF1AF0AAEF1AF0D1
:10355000B2EF1AF0000E026E000E036E000E046E43
:10356000000E056E048EBDEF1AF0000E026E000E06
:10357000036E000E046E000E056E0950800B0E1ACD
:1035800009500924136E08AEC8EF1AF0CAEF1AF0FA
:10359000CBEF1AF013801350D8B4D1EF1AF0D3EF59
:1035A0001AF0E6EF1AF01328D8A4D9EF1AF0DBEFDF
:1035B0001AF0E3EF1AF0000E066E000E076E000E12
:1035C000086E000E096E088EEEEF1AF0000E066E01
:1035D000000E076E000E086E000E096E1350D8B470
:1035E000F4EF1AF0F6EF1AF0FEEF1AF01450D8A428
:1035F000FCEF1AF0FEEF1AF008EF1BF0000E026E5F
:10360000000E036E000E046E000E056E9EEF1CF0A1
:1036100008500202F3CF19F0F4CF1AF019500F6ED0
:10362000106A116A126A1A50156E166A176A186AB9
:1036300007500302F3CF19F0F4CF1AF019500F26F8
:10364000000E1022112212221A501526000E1622E8
:103650001722182206500402F3CF19F0F4CF1AF003
:1036600019500F26000E1022112212221A50152670
:10367000000E16221722182211C012F010C011F0ED
:103680000FC010F00F6A06500302F3CF19F0F4CF09
:103690001AF019500F261A501022000E1122000E97
:1036A000122207500202F3CF19F0F4CF1AF019508A
:1036B0000F261A501022000E1122000E122211C0E5
:1036C00012F010C011F00FC010F00F6A0650020285
:1036D000F3CF19F0F4CF1AF019500F261A50102218
:1036E000000E1122000E122208500302F3CF19F02F
:1036F000F4CF1AF0195015261A501622000E172270
:10370000000E182207500402F3CF19F0F4CF1AF07C
:10371000195015261A501622000E1722000E1822D4
:1037200008500402F3CF19F0F4CF1AF019500A6EC2
:103730001A500B6E0C6A0D6A0CC00DF00BC00CF029
:103740000AC00BF00A6A0A5015260B5016220C50BC
:1037500017220D5018220FC00AF010C00BF011C034
:103760000CF012C00DF0190EBBEF1BF0D8900D320B
:103770000C320B320A32E82EB6EF1BF00A50152637
:103780000B5016220C5017220D50182211C012F0A7
:1037900010C011F00FC010F00F6A135014C00AF0DF
:1037A0000B6A0A26000E0B22820E0A24196EFF0EE7
:1037B0000B201A6EF1EF1BF0D8901536163617361F
:1037C000183612AEE6EF1BF0E8EF1BF0E9EF1BF046
:1037D0001580D8900F361036113612361906D8A03B
:1037E0001A0617AEF6EF1BF0F8EF1BF0DCEF1BF03C
:1037F000136A12AEFEEF1BF000EF1CF024EF1CF07A
:10380000FF0E0F140A6EFF0E10140B6EFF0E111434
:103810000C6E7F0E12140D6E0A500B100C100D1052
:10382000D8B415EF1CF017EF1CF01BEF1CF0010EC5
:10383000136E24EF1CF015A020EF1CF022EF1CF0FB
:1038400024EF1CF017EF1CF01350D8B42AEF1CF033
:103850002CEF1CF050EF1CF0010E1526000E162266
:103860001722182218A037EF1CF039EF1CF050EF88
:103870001CF015C00AF016C00BF017C00CF018C0F1
:103880000DF00D340D320C320B320A320AC015F035
:103890000BC016F00CC017F00DC018F0194A1A2A08
:1038A0001ABE5BEF1CF01A5008E11928D8A05BEF94
:1038B0001CF05DEF1CF067EF1CF0000E156E000EA3
:1038C000166E800E176E7F0E186E94EF1CF01ABEE7
:1038D00074EF1CF01A5006E11904D8B072EF1CF016
:1038E00074EF1CF07FEF1CF0000E156E000E166ECC
:1038F000000E176E000E186E0E6A94EF1CF019C0C1
:1039000014F0FF0E1516FF0E16167F0E1716000E7A
:10391000181614A08EEF1CF090EF1CF091EF1CF025
:10392000178ED8901430186E0E50181215C002F071
:1039300016C003F017C004F018C005F01200000113
:10394000C351800B0101046F0001C351C325010164
:103950000B6F0001C2AFAFEF1CF0B1EF1CF0B3EF83
:103960001CF001010B8101010B51D8B4BAEF1CF01E
:10397000BCEF1CF0D2EF1CF00B29D8A4C2EF1CF056
:10398000C4EF1CF0CDEF1CF0000E0001C06F000E64
:10399000C16F000EC26F000EC36F0001C28FC36BF8
:1039A000DBEF1CF0000E0001C06F000EC16F000EB7
:1039B000C26F000EC36FC751800B0101041B0001D1
:1039C000C751C72501010C6F0001C6AFEAEF1CF01B
:1039D000ECEF1CF0EEEF1CF001010C8101010C5129
:1039E000D8B4F5EF1CF0F7EF1CF00DEF1DF00C292B
:1039F000D8A4FDEF1CF0FFEF1CF008EF1DF0000E47
:103A00000001C46F000EC56F000EC66F000EC76FB9
:103A10000001C68FC76B16EF1DF0000E0001C46FCA
:103A2000000EC56F000EC66F000EC76FC451C511E2
:103A3000C611C711D8A41FEF1DF021EF1DF03BEFF9
:103A40001DF0000EC06F000EC16F000EC26F000EA1
:103A5000C36F800EC2137F0EC31301010451000116
:103A6000C313C0C0C0F0C1C0C1F0C2C0C2F0C3C067
:103A7000C3F0AFEF1EF001010B51D8A442EF1DF0CF
:103A800044EF1DF04FEF1DF0000E0001C06F000E5F
:103A9000C16F000EC26F000EC36FAFEF1EF00C516E
:103AA0000BC1C8F00001C96BC85F000EC95B7F0E77
:103AB000C8250101056F000E0001C9210101066F33
:103AC000C0C000F1C1C001F1C2C002F1C3C003F126
:103AD000000E0001C06F000EC16F000EC26F000E1D
:103AE000C36F000E0101076F000E086F000E096F13
:103AF000000E0A6F0C6BC9EF1DF00C51D8B483EFA8
:103B00001DF085EF1DF0A0EF1DF0D89000370137B4
:103B1000023703370001D890C037C137C237C337E7
:103B200001010AAF96EF1DF098EF1DF09AEF1DF01E
:103B30000001C0810101D8900737083709370A37DB
:103B40000001C4510101005D0001C551010101598D
:103B50000001C651010102590001C7510101035979
:103B6000D8A0B5EF1DF0B7EF1DF0C8EF1DF00A8D1E
:103B70000001C4510101005F0001C5510101015B59
:103B80000001C6510101025B0001C7510101035B45
:103B90000C2B190E0C65CFEF1DF0D1EF1DF07DEF52
:103BA0001DF00051011102110311D8B4DAEF1DF01C
:103BB000DCEF1DF0F7EF1DF00781F7EF1DF0D89057
:103BC000C037C137C237C33701010AAFEAEF1DF072
:103BD000ECEF1DF0EEEF1DF00001C0810101D89067
:103BE0000737083709370A370507D8A00607000145
:103BF000C2AFFDEF1DF0FFEF1DF0DFEF1DF0010183
:103C00000C6B0AAF06EF1EF008EF1EF034EF1EF04B
:103C1000FF0E07150001C86FFF0E01010815000116
:103C2000C96FFF0E010109150001CA6F7F0E010166
:103C30000A150001CB6FC851C911CA11CB11D8B4F4
:103C400024EF1EF026EF1EF02BEF1EF0010E0101F7
:103C50000C6F34EF1EF0C0A130EF1EF032EF1EF0FB
:103C600034EF1EF026EF1EF001010C51D8B43BEFEB
:103C70001EF03DEF1EF063EF1EF0010E0001C027A5
:103C8000000EC123C223C323C3A149EF1EF04BEF93
:103C90001EF063EF1EF0C0C0C8F0C1C0C9F0C2C0C2
:103CA000CAF0C3C0CBF0CB35CB33CA33C933C8332A
:103CB000C8C0C0F0C9C0C1F0CAC0C2F0CBC0C3F018
:103CC0000101054B062B010106BF6FEF1EF00651E7
:103CD00008E10529D8A06FEF1EF071EF1EF07DEF0F
:103CE0001EF0000E066F0569000E0001C06F000E89
:103CF000C16F000EC26F000EC36F010106BF8BEFD4
:103D00001EF0065106E10505D8B089EF1EF08BEFD5
:103D10001EF099EF1EF0066B000E056F000E0001FD
:103D2000C06F000EC16F000EC26F000EC36F0101A5
:103D3000046B05C10BF10BA1A0EF1EF0A2EF1EF06A
:103D4000A6EF1EF00001C28FA8EF1EF00001C29F77
:103D50000101D8900B310001C36F2DEF1DF012004F
:103D60000550800B126E05500524196E04AEBBEF92
:103D70001EF0BDEF1EF0BEEF1EF019801950D8B432
:103D8000C4EF1EF0C6EF1EF0DAEF1EF01928D8A41B
:103D9000CCEF1EF0CEEF1EF0D6EF1EF0000E026E3E
:103DA000000E036E000E046E000E056E048E056A92
:103DB000E2EF1EF0000E026E000E036E000E046EA7
:103DC000000E056E0950800B121A095009241A6E54
:103DD00008AEEDEF1EF0EFEF1EF0F0EF1EF01A80D0
:103DE0001A50D8B4F6EF1EF0F8EF1EF00CEF1FF0EB
:103DF0001A28D8A4FEEF1EF000EF1FF008EF1FF006
:103E0000000E066E000E076E000E086E000E096EA4
:103E1000088E096A14EF1FF0000E066E000E076E82
:103E2000000E086E000E096E0650071008100910EB
:103E3000D8A41DEF1FF01FEF1FF037EF1FF0000E8B
:103E4000026E000E036E000E046E000E056E800EF4
:103E500004127F0E05121250051202C002F003C0B8
:103E600003F004C004F005C005F076EF20F019500F
:103E7000D8A43DEF1FF03FEF1FF049EF1FF0000EF9
:103E8000026E000E036E000E046E000E056E76EFDD
:103E900020F01A5019C00AF00B6A0A5E000E0B5A85
:103EA0007F0E0A24136E000E0B20146E02C00EF05B
:103EB00003C00FF004C010F005C011F0000E026E38
:103EC000000E036E000E046E000E056E000E156EE1
:103ED000000E166E000E176E000E186E1A6AA9EF0D
:103EE0001FF01A50D8B477EF1FF079EF1FF090EF62
:103EF0001FF0D8900E360F3610361136D890023695
:103F000003360436053618AE88EF1FF08AEF1FF02F
:103F10008BEF1FF00280D8901536163617361836FC
:103F200006500E5C07500F58085010580950115891
:103F3000D8A09DEF1FF09FEF1FF0A8EF1FF0188C87
:103F400006500E5E07500F5A0850105A0950115A69
:103F50001A2A190E1A64AFEF1FF0B1EF1FF071EFBC
:103F60001FF00E500F1010101110D8B4BAEF1FF040
:103F7000BCEF1FF0D4EF1FF01580D4EF1FF0D890E6
:103F8000023603360436053618AEC9EF1FF0CBEF04
:103F90001FF0CCEF1FF00280D8901536163617367A
:103FA00018361306D8A0140604AED9EF1FF0DBEFC5
:103FB0001FF0BFEF1FF01A6A18AEE1EF1FF0E3EF3A
:103FC0001FF007EF20F0FF0E15140A6EFF0E1614F7
:103FD0000B6EFF0E17140C6E7F0E18140D6E0A5028
:103FE0000B100C100D10D8B4F8EF1FF0FAEF1FF003
:103FF000FEEF1FF0010E1A6E07EF20F002A003EF94
:1040000020F005EF20F007EF20F0FAEF1FF01A5034
:10401000D8B40DEF20F00FEF20F033EF20F0010EB9
:104020000226000E03220422052205A01AEF20F02A
:104030001CEF20F033EF20F002C00AF003C00BF0B9
:1040400004C00CF005C00DF00D340D320C320B32F3
:104050000A320AC002F00BC003F00CC004F00DC01D
:1040600005F0134A142A14BE3EEF20F0145008E164
:104070001328D8A03EEF20F040EF20F04BEF20F0C7
:10408000000E146E1368000E026E000E036E000E1A
:10409000046E000E056E14BE58EF20F0145006E1B9
:1040A0001304D8B056EF20F058EF20F064EF20F062
:1040B000146A000E136E000E026E000E036E000EE8
:1040C000046E000E056E126A13C019F019A06BEF92
:1040D00020F06DEF20F070EF20F0048E71EF20F0F3
:1040E000049ED8901930056E2BEF1FF012006FC19F
:1040F00019F170C11AF171C11BF172C11CF1CCC070
:1041000019F1CDC01AF1CEC01BF1CFC01CF1810E48
:1041100001010D6FFF0E0E6F19C10FF11AC110F1E1
:104120001BC111F11CC112F1180E9CEF20F0D890A8
:104130001233113310330F33E82E97EF20F00F5165
:104140000D25176F000E0E21186F18BFB1EF20F06C
:10415000185109E1170E175DD8A0B1EF20F0B3EFA9
:1041600020F0BDEF20F0CCC0CCF0CDC0CDF0CEC063
:10417000CEF0CFC0CFF081EF21F018BFC2EF20F01A
:10418000C4EF20F035EF21F017C10DF1FF0E0E6FD7
:10419000FF0E0F6F7F0E106F000E116F0D67D3EFC4
:1041A00020F0DBEF20F01135113310330F330E33D5
:1041B0000D2FCEEF20F00EC113F10FC114F110C17D
:1041C00015F111C116F10101135119150D6F14519B
:1041D0001A150E6F15511B150F6F16511C15106F08
:1041E0000D510E110F111011D8A4F9EF20F0FBEFB3
:1041F00020F0FDEF20F0B3EF20F019C10DF11AC14E
:104200000EF11BC10FF11CC110F1200E0DEF21F0BA
:10421000D89010330F330E330D33E82E08EF21F012
:104220000D510E110F111011D8B419EF21F01BEF21
:1042300021F023EF21F01351192714511A2315519E
:104240001B2316511C23131D0D6F141D0E6F151DFE
:104250000F6F161D106F0D5119170E511A170F51B0
:104260001B1710511C1779EF21F019C10DF11AC15C
:104270000EF11BC10FF11CC110F1200E45EF21F012
:10428000D89010330F330E330D33E82E40EF21F06A
:104290000D510E110F111011D8A451EF21F053EF51
:1042A00021F05DEF21F0000E196F000E1A6F000E65
:1042B0001B6F000E1C6F79EF21F0D89019350D6F30
:1042C0001A350E6F1B350F6F1C35106F0D510E1107
:1042D0000F111011D8B46FEF21F071EF21F079EFC9
:1042E00021F0000E196F000E1A6F800E1B6FBF0EAB
:1042F0001C6F19C1CCF01AC1CDF01BC1CEF01CC18E
:10430000CFF01200E5C017F0E6C018F0030E0F243E
:10431000136E000E1020146E1350115C1250800AA0
:10432000156E1450800A1558D8B099EF21F09BEF04
:1043300021F0A0EF21F00E6A000E0D6E8AEF22F040
:104340000FC021F010C022F00EC013F0BF0E1326D4
:10435000190E1364AEEF21F0B0EF21F0B5EF21F0AC
:104360000EC01BF01C6ABDEF21F0200E0EC013F032
:10437000146A13101B6E14501C6E690E1B181C104F
:10438000D8A4C5EF21F0C8EF21F0010EC9EF21F04C
:10439000000E196E1A6A7A0E2124D96E010E22209F
:1043A000DA6E0EC0DFFF214A222A30EF22F00DC064
:1043B00004F063EC27F004C01FF005C020F01F28B4
:1043C00006E12028D8A4E7EF21F0E9EF21F0EFEF94
:1043D00021F01FC00DF020C00EF08AEF22F01FC0A8
:1043E00013F0BF0E1326190E1364F9EF21F0FBEF43
:1043F00021F001EF22F01FC01DF020C01EF006EFDB
:1044000022F0200E1F101D6E20501E6E1950170F27
:10441000D96EDA6ADF50136E0F50135C2124146ECC
:1044200014C0F6FF060EF76E0800F550156E166AFA
:104430001D50151809E11E501618D8B422EF22F0AD
:1044400024EF22F026EF22F045EF22F07A0E21240D
:10445000D96E010E2220DA6E1FC0DFFFD3EF21F0EC
:10446000030E0F24136E000E1020146E1350215CE7
:104470002250800A156E1450800A1558D8A043EFB8
:1044800022F045EF22F0D7EF21F0030E0F24136E38
:10449000000E1020146E1350215C2250800A156EFD
:1044A0001450800A1558D8B058EF22F05AEF22F075
:1044B00087EF22F01FC002F020C003F00DC004F00F
:1044C000FAEC2AF076EF22F02106D8A022067A0E26
:1044D0002124D96E010E2220DA6EDF50136E1350A4
:1044E000026E036A0DC004F0FAEC2AF021500F5C52
:1044F0001050800A136E2250800A1358D8A083EF00
:1045000022F085EF22F064EF22F09BEF21F00E6A9B
:10451000030E0D6E120001015251D96EDA6ADFCF1F
:10452000F6FF060EF76E0800F550250AD8A49BEF9B
:1045300022F09DEF22F073EF23F05251D96EDA6A28
:10454000DF2A0001D66B000ED56FD5C0DFF0D7692A
:10455000D86901015251D96EDA6ADFCFF6FF060E33
:10456000F76E0800F5502E0AD8A4B9EF22F0BBEF81
:1045700022F0CBEF22F05251D96EDA6ADF2A52C113
:1045800099F053C19AF054C19BF0F5EC29F099C011
:10459000D7F09AC0D8F001015251D96EDA6ADF50D3
:1045A0005A6F5AC1F6FF060EF76E0800F5CF59F1A3
:1045B000E4EF22F05A2BF3EF22F06C0E596FF3EF79
:1045C00022F0596BF3EF22F059514C0AD8B4DAEFCC
:1045D00022F02A0AD8B4DDEF22F00A0AD8B4DAEFC2
:1045E00022F0E1EF22F05AC1F6FF060EF76E080046
:1045F000F550660AD8A4FFEF22F001EF23F06CEF2C
:1046000023F037EF23F053C1D9FF54C1DAFFDFCFD6
:10461000D2F0040EDE26DFCFD3F0000EDD22D2C0B2
:10462000D9FFD3C0DAFFDECF55F1DECF56F1DECFB2
:1046300057F1DECF58F142EF23F053C1D9FF54C1F7
:10464000DAFFDFCFD2F0040EDE26DFCFD3F0000E8C
:10465000DD22D2C0D9FFD3C0DAFFDECF55F1DECFE5
:1046600056F1DECF57F1DECF58F142EF23F059512A
:104670004C0AD8B41DEF23F0200AD8B403EF23F07E
:1046800042EF23F05251D96EDA6A5A29DF6E60EF99
:1046900023F050C11DF151C11EF155C11FF156C18A
:1046A00020F157C121F158C122F15AC1F6FF060E7F
:1046B000F76E0800F5CF23F12BEC0BF087EF23F01A
:1046C0005AC1F6FF060EF76E0800F550660AD8B418
:1046D00049EF23F06CEF23F001015251D96EDA6AF1
:1046E000DF2A87EF23F05251D96EDA6ADFCFF6FF67
:1046F000060EF76E0800F55000019F6FA06B50C1C9
:10470000A1F051C1A2F0CFEC28F06CEF23F0120021
:104710000001A16F0001A151D8B491EF23F093EFF4
:1047200023F0B5EF23F09CBF9AEF23F098EF23F02E
:10473000B5EF23F099C09DF09AC09EF09BC09FF00A
:104740009CC0A0F09D1F9E1F9F1FA01F9D2B000EB1
:104750009E239F23A0239DC0A3F09EC0A4F09FC0D2
:10476000A5F0A0C0A6F0BDEF23F099C0A3F09AC0B9
:10477000A4F09BC0A5F09CC0A6F099519A119B1182
:104780009C11D8A4C6EF23F0C8EF23F0D2EF23F09A
:10479000000E996F000E9A6F000E9B6F000E9C6FBB
:1047A00063EF24F0960EA26FDCEF23F0A22BD890DB
:1047B000A633A533A433A333000EA3159D6F000EBB
:1047C000A4159E6F000EA5159F6FFE0EA615A06F77
:1047D0009D519E119F11A011D8A4F1EF23F0F3EF8A
:1047E00023F0D6EF23F001EF24F0A22B010EA32734
:1047F000000EA423A523A623D890A633A533A43363
:10480000A333000EA3159D6F000EA4159E6F000E1E
:10481000A5159F6FFF0EA615A06F9D519E119F11AC
:10482000A011D8A416EF24F018EF24F0F5EF23F030
:1048300020EF24F0A207D890A337A437A537A637D6
:10484000A5BF25EF24F027EF24F02FEF24F0020E70
:10485000A2612DEF24F02FEF24F01AEF24F0A2B183
:1048600034EF24F036EF24F037EF24F0A59FD890F2
:10487000A233A2C09DF09E6B9F6BA06B9DC0A0F069
:104880009F6B9E6B9D6B9D51A3139E51A4139F51D3
:10489000A513A051A613A151D8B451EF24F053EFA2
:1048A00024F05BEF24F09CBF5AEF24F058EF24F083
:1048B0005BEF24F0A68FA3C099F0A4C09AF0A5C026
:1048C0009BF0A6C09CF012000A6E0A50D8B46BEFA1
:1048D00024F06DEF24F08FEF24F005BE74EF24F088
:1048E00072EF24F08FEF24F002C006F003C007F04F
:1048F00004C008F005C009F0061E071E081E091EA8
:10490000062A000E07220822092206C00CF007C062
:104910000DF008C00EF009C00FF097EF24F002C0B0
:104920000CF003C00DF004C00EF005C00FF00250F3
:10493000031004100510D8A4A0EF24F0A2EF24F077
:10494000ACEF24F0000E026E000E036E000E046E3B
:10495000000E056E3DEF25F0960E0B6EB6EF24F0BF
:104960000B2AD8900F320E320D320C32000E0C147E
:10497000066E000E0D14076E000E0E14086EFE0E6D
:104980000F14096E0650071008100910D8A4CBEFB9
:1049900024F0CDEF24F0B0EF24F0DBEF24F00B2A6D
:1049A000010E0C26000E0D220E220F22D8900F327F
:1049B0000E320D320C32000E0C14066E000E0D1469
:1049C000076E000E0E14086EFF0E0F14096E0650CF
:1049D000071008100910D8A4F0EF24F0F2EF24F02B
:1049E000CFEF24F0FAEF24F00B06D8900C360D36FA
:1049F0000E360F360EBEFFEF24F001EF25F009EF63
:104A000025F0020E0B6007EF25F009EF25F0F4EF1B
:104A100024F00BB00EEF25F010EF25F011EF25F08C
:104A20000E9ED8900B320BC006F0076A086A096A1E
:104A300006C009F0086A076A066A06500C12075099
:104A40000D1208500E1209500F120A50D8B42BEF55
:104A500025F02DEF25F035EF25F005BE34EF25F0DC
:104A600032EF25F035EF25F00F8E0CC002F00DC0AF
:104A700003F00EC004F00FC005F01200948EAC9845
:104A8000AC84B896810EAF6EAB8EAB889D8AF28CEB
:104A9000F28EC150F00B0E09C16EC08EC050F80BE3
:104AA0000409C06EC280956A836A8FEC2BF0C282C3
:104AB000C2B25DEF25F05FEF25F058EF25F0C3CFD0
:104AC0006DF1C4CF6EF1000E0001AB6F000EAC6F44
:104AD000A00EAD6F400EAE6F6DC199F06EC19AF031
:104AE0009B6B9C6B000E88EC23F099C0A7F09AC0DA
:104AF000A8F09BC0A9F09CC0AAF078EC18F0A7C061
:104B0000C0F0A8C0C1F0A9C0C2F0AAC0C3F0000E96
:104B10000001C46FC00EC56F7F0EC66F440EC76F15
:104B20009FEC1CF0C0C069F1C1C06AF1C2C06BF15A
:104B3000C3C06CF1000E00019D6F010ED0EC2DF092
:104B4000010E0101606F69C161F16AC162F16BC15F
:104B500063F16CC164F176EC2EF00101DA51D8A456
:104B6000B4EF25F0B6EF25F0C9EF25F0000E0001F7
:104B70009D6F020ED0EC2DF00C0E0101606FE1C0B4
:104B800061F1E2C062F1E3C063F1E4C064F176EC8C
:104B90002EF0060E0101686F130E676FAD0EE82E42
:104BA000FED7672FFCD7682FFAD700D057EF25F034
:104BB00007EF00F000019B359C35A26FA251D8A4ED
:104BC000E4EF25F0E6EF25F0F0EF25F0000E996F09
:104BD000000E9A6F000E9B6F000E9C6F5DEF26F02B
:104BE00099C09DF09AC09EF09BC09FF09CC0A0F021
:104BF000200E00EF26F0D890A0339F339E339D33D4
:104C0000E82EFBEF25F09D51A16F9B8FFF0E9917AA
:104C1000FF0E9A17FF0E9B17000E9C17960EA25FB1
:104C2000A2BF17EF26F015EF26F02DEF26F0A251C8
:104C3000800A970FD8B01FEF26F021EF26F023EF60
:104C400026F0E6EF25F0D8909C339B339A339933C6
:104C5000A23F23EF26F045EF26F01F0EA26533EFAB
:104C600026F035EF26F03DEF26F0E6EF25F0D89060
:104C700099379A379B379C37A207A251D8A443EFA4
:104C800026F045EF26F037EF26F0A151D8B44BEFD0
:104C900026F04DEF26F055EF26F09C1F9B1F9A1F24
:104CA000996D000E9A239B239C2399C099F09AC07A
:104CB0009AF09BC09BF09CC09CF01200000E00017B
:104CC000C015C86F000EC115C96F800EC215CA6F1E
:104CD0007F0EC315CB6FC851C911CA11CB11D8A40F
:104CE00074EF26F076EF26F07EEF26F0000EC06F10
:104CF000000EC16F000EC26F000EC36F000EC41510
:104D0000C86F000EC515C96F800EC615CA6F7F0E1D
:104D1000C715CB6FC851C911CA11CB11D8A493EFD5
:104D200026F095EF26F09DEF26F0000EC46F000EE2
:104D3000C56F000EC66F000EC76FC3AFA2EF26F09F
:104D4000A4EF26F0ADEF26F0C06DC11FD8B0C12B87
:104D5000C21FD8B0C22B800EC357C7AFB2EF26F028
:104D6000B4EF26F0BDEF26F0C46DC51FD8B0C52B3B
:104D7000C61FD8B0C62B800EC757000EC01B000E32
:104D8000C11B000EC21B800EC31B000EC41B000EF5
:104D9000C51B000EC61B800EC71BC451C05DC5518C
:104DA000C159C651C259C751C359D8B0DAEF26F01C
:104DB000DCEF26F0DFEF26F0D890E0EF26F0D88089
:104DC0001200000E02140A6E000E03140B6E800E09
:104DD00004140C6E7F0E05140D6E0A500B100C108F
:104DE0000D10D8A4F6EF26F0F8EF26F000EF27F02C
:104DF000000E026E000E036E000E046E000E056EB5
:104E0000000E06140A6E000E07140B6E800E0814B6
:104E10000C6E7F0E09140D6E0A500B100C100D1045
:104E2000D8A415EF27F017EF27F01FEF27F0000E9B
:104E3000066E000E076E000E086E000E096E05AEBF
:104E400024EF27F026EF27F02FEF27F0026C031E48
:104E5000D8B0032A041ED8B0042A800E055609AE25
:104E600034EF27F036EF27F03FEF27F0066C071EF0
:104E7000D8B0072A081ED8B0082A800E0956000E9E
:104E8000021A000E031A000E041A800E051A000EF4
:104E9000061A000E071A000E081A800E091A06508C
:104EA000025C075003580850045809500558D8B000
:104EB0005CEF27F05EEF27F061EF27F0D89062EF0C
:104EC00027F0D88012000450D8A469EF27F06BEFC8
:104ED00027F089EF27F07B50D8A471EF27F073EF0C
:104EE00027F07BEF27F0B8EC2EF002C00BF003C0E8
:104EF0000CF0E0EF27F07B06770E7B24D96EDA6AA0
:104F0000010EDA22DF50066E06500B6E0C6AE0EFDF
:104F100027F00450D96EDA6A070ED926DE50DE106B
:104F2000D8B495EF27F097EF27F0B0EF27F00450B3
:104F3000D96EDA6A070ED926DE06000EDD5ADECFFC
:104F400006F0DDCF07F004500624D96EDA6A040EAD
:104F5000D926DF50086E08500B6E0C6AE0EF27F080
:104F60000450D96EDA6A020ED926DECF06F0DDCF04
:104F700007F00450D96EDA6ADECF08F0DDCF09F011
:104F800006500824D96E07500920DA6EDF500A6EE9
:104F90000A500B6E0C6A0B500C10D8A4D2EF27F0FD
:104FA000D4EF27F0D8EF27F00B680C68E0EF27F07C
:104FB0000450D96EDA6A020ED926DE2A000EDD22EE
:104FC0000BC004F00CC005F0120073C1A3F074C153
:104FD000A4F075C1A5F076C1A6F099C0A3F09AC05F
:104FE000A4F09BC0A5F09CC0A6F0A3C09DF0A4C0F7
:104FF0009EF0A5C09FF0A6C0A0F0180E06EF28F006
:105000000001D890A0339F339E339D33E82E00EFEC
:1050100028F09D51A16FA26BA151A211D8A413EF4A
:1050200028F015EF28F033EF28F0D890A3359D6FC6
:10503000A4359E6FA5359F6FA635A06F9D519E111B
:105040009F11A011D8A427EF28F029EF28F02EEF08
:1050500028F09A6B020E996F61EF28F09A6B030E9D
:10506000996F61EF28F0A129A211D8A43AEF28F096
:105070003CEF28F05EEF28F0A3C09DF0A4C09EF0A6
:10508000A5C09FF0A6C0A0F0090ED8909D379E370E
:105090009F37A037E82E45EF28F09D519E119F11B4
:1050A000A011D8B456EF28F059EF28F0010E5AEFAE
:1050B00028F0000E996F9A6B61EF28F09A6B040E3E
:1050C000996F12000600D9CF91F0DACF92F0F3CFAA
:1050D00093F0F4CF94F0F6CF95F0F7CF96F0F8CFA9
:1050E00097F0F5CF98F09EAA78EF28F07AEF28F0A5
:1050F000BDEF28F0AECF78F00A0E7818D8B483EF61
:1051000028F085EF28F092EF28F0010E0101DA6F08
:105110007CC0D9FF7DC0DAFF78C0DFFF7C4A7D2AE2
:10512000BDEF28F07CC0D9FF7DC0DAFFDF6ACA0E70
:105130007C6E010E7D6ECA0E026E010E036E410E74
:10514000046E066A020E056E35EC29F0025003105B
:10515000D8A4ADEF28F0AFEF28F0BDEF28F0CC0ECB
:105160000001806F010E816F440E826FE10E836F2C
:10517000846B37EC2EF00101DA6B98C0F5FF97C015
:10518000F8FF96C0F7FF95C0F6FF94C0F4FF93C0F8
:10519000F3FF92C0DAFF91C0D9FF01921100000124
:1051A000A151A211D8B4D7EF28F0D9EF28F0E2EF3F
:1051B00028F0A151A211D8A4E0EF28F0E2EF28F0E6
:1051C000E7EF28F09F51B1EC2EF034EF29F020EEFC
:1051D00009F0A151D926A251DA22DE50DE10D8B44E
:1051E000F4EF28F0F6EF28F011EF29F020EE09F0A7
:1051F000A151D926A251DA2210EE02F0A151E126E6
:10520000A251E222DE50E65CE650800AA76FDE5033
:10521000800AA759D8B00FEF29F011EF29F034EF29
:1052200029F020EE02F0A151D926A251DA22DECFD8
:10523000A3F0DDCFA4F0A1C0D9FFA2C0DAFFDECF7A
:10524000A5F0DDCFA6F0A351A525D96EA451A621C6
:10525000DA6E9FC0DFFF20EE02F0A151D926A251E5
:10526000DA22DE2A000EDD2212000506D8A006068C
:10527000052806E10628D8A440EF29F042EF29F0DE
:105280004DEF29F0036A000E026E95EF29F0024AF5
:10529000032A042A0506D8A0060602C0D9FF03C0C7
:1052A000DAFFDF50D8B457EF29F059EF29F084EF37
:1052B00029F004C0F6FF060EF76E0800F55000094D
:1052C000D8B465EF29F067EF29F084EF29F0055095
:1052D0000610D8B46EEF29F070EF29F084EF29F0B2
:1052E00002C0D9FF03C0DAFFDF50076E04C0F6FF2B
:1052F000060EF76E0800F5500718D8B482EF29F0B3
:1053000084EF29F047EF29F002C0D9FF03C0DAFF8C
:10531000DF50076E04C0F6FF060EF76E0800F5506A
:10532000075C026E036AD8A00306120071C077F012
:105330000001DA6B000ED96FD9C0DBF0DAC0DCF007
:1053400079C073F07AC074F0C4EF29F07A6A000E65
:10535000796E70C056F0770E576E72C058F0596A69
:1053600057EC10F056C075F057C076F076BEBDEF22
:1053700029F0BBEF29F0BFEF29F0D2EF29F07550EB
:105380000001DB277650DC2377C0F6FF060EF76EB0
:105390000800F5500009D8A4D0EF29F0D2EF29F089
:1053A000A6EF29F073C079F074C07AF0752806E191
:1053B0007628D8A4DEEF29F0E0EF29F0F0EF29F00D
:1053C0000001DB51DC11D8A4E8EF29F0EAEF29F065
:1053D000F0EF29F075C070F076C071F0F4EF29F0AD
:1053E000DBC070F0DCC071F012000001A06B000E99
:1053F0009F6F9951D96EDA6ADFCFF6FF060EF76E0E
:105400000800F5502A0AD8A408EF2AF00AEF2AF07B
:1054100037EF2AF09951D96EDA6ADF2A9AC0D9FF9C
:105420009BC0DAFFDFCF9CF0020EDE26DFCF9DF0BF
:10543000000EDD229CC0D9FF9DC0DAFFDECF9FF0B9
:10544000DDCFA0F04AEF2AF00A0E9F03F3CF9CF0C5
:10545000F4CF9DF0A003F3509D279E519C259F6F94
:10546000000E9D21A06F9951D96EDA6ADF2A9951F9
:10547000D96EDA6ADFCFF6FF060EF76E0800F55038
:10548000D00F9E6F090E9E6548EF2AF04AEF2AF072
:1054900024EF2AF09FC099F0A0C09AF01200000EED
:1054A00000019915A16F000E9A15A26F800E9B1531
:1054B000A36F7F0E9C15A46FA151A211A311A4117B
:1054C000D8A465EF2AF067EF2AF06FEF2AF0000EFC
:1054D000996F000E9A6F000E9B6F000E9C6F000E6E
:1054E0009D15A16F000E9E15A26F800E9F15A36FD4
:1054F0007F0EA015A46FA151A211A311A411D8A4CD
:1055000084EF2AF086EF2AF08EEF2AF0000E9D6FCE
:10551000000E9E6F000E9F6F000EA06F9D51991997
:105520000FE19E519A190CE19F519B1909E1A0517D
:105530009C19D8B49EEF2AF0A0EF2AF0A3EF2AF02E
:10554000D890A4EF2AF0D8801200000E02140A6E40
:10555000000E03140B6E800E04140C6E7F0E0514E7
:105560000D6E0A500B100C100D10D8A4BAEF2AF0D3
:10557000BCEF2AF0C4EF2AF0000E026E000E036E9C
:10558000000E046E000E056E000E06140A6E000E6C
:1055900007140B6E800E08140C6E7F0E09140D6E2E
:1055A0000A500B100C100D10D8A4D9EF2AF0DBEF25
:1055B0002AF0E3EF2AF0000E066E000E076E000ED2
:1055C000086E000E096E065002180FE1075003180E
:1055D0000CE10850041809E109500518D8B4F3EF9C
:1055E0002AF0F5EF2AF0F8EF2AF0D890F9EF2AF038
:1055F000D8801200022806E10328D8A402EF2BF07D
:1056000004EF2BF006EF2BF048EF2BF00450D8A45A
:105610000CEF2BF00EEF2BF022EF2BF0030E7B188C
:10562000D8B415EF2BF017EF2BF048EF2BF0770ED7
:105630007B24D96EDA6A010EDA2202C0DFFF7B2AF0
:1056400048EF2BF00450D96EDA6A070ED926030E04
:10565000DE18DE10D8B42FEF2BF031EF2BF048EF2F
:105660002BF00450D96EDA6A070ED926DF50056E8A
:1056700004500524D96EDA6A040ED92602C0DFFF71
:105680000450D96EDA6A070ED926DE2A000EDD2212
:10569000120000019A6F9AC099F0010E000199174B
:1056A000993B83509919EF0B9919836E9AC099F021
:1056B000D8909933010E9917993B994783509919BE
:1056C000DF0B9919836E9AC099F0D8909933D890CE
:1056D0009933010E9917993B994799478350991926
:1056E000BF0B9919836E9AC099F0D8909933D890CE
:1056F0009933D8909933010E991799339933835080
:1057000099197F0B9919836E8382530EE82EFED769
:1057100000008392530EE82EFED700001200839201
:10572000839E839C839A8398020E00019F6F450E8F
:105730009E6FA90EE82EFED79E2FFCD79F2FFAD77B
:1057400000D0030E49EC2BF0210E00019E6F760E67
:10575000E82EFED79E2FFCD70000030E49EC2BF05D
:10576000FA0EE82EFED7030E49EC2BF0020E49ECA0
:105770002BF0280E00019B6F000E09EC2EF00C0E92
:1057800000019B6F000E09EC2EF0060E00019B6FCE
:10579000000E09EC2EF099EC2EF012007A0EF66E47
:1057A0005D0EF76E000EF86E0900F5CFDAF1780E97
:1057B000F66E5D0EF76E000EF86E0900F5CFE5F09F
:1057C0000900F5CFE6F0760EF66E5D0EF76E000E70
:1057D000F86E0900F5CF7CF00900F5CF7DF002EE00
:1057E00000F0500EEE6AE806FDE101EE6FF06B0E80
:1057F000EE6AE806FDE100EED5F0100EEE6AE8066E
:10580000FDE17B6A7A6A796A01900192000EF86E76
:1058100000013EEF25F00001B4BF13EF2CF011EFB3
:105820002CF016EF2CF0B46B000EB36FB76B000EBC
:10583000B66F27EF2CF0A06B200E9F6FAFC0A1F0CA
:10584000B0C0A2F0CFEC28F00001B64BB72BB3519B
:10585000B65DB751800AB56FB451800AB559D8A06A
:1058600034EF2CF036EF2CF01BEF2CF0B1C0A8F089
:10587000B2C0A9F0AFC0AAF0B0C0ABF072EC2DF08E
:105880001200000E0A6E000E0B6E000E0C6E000E63
:105890000D6E02A04EEF2CF050EF2CF058EF2CF0D4
:1058A00006500A2607500B2208500C2209500D22E0
:1058B000D8900636073608360936D89005320432B5
:1058C000033202320250031004100510D8A46BEF0B
:1058D0002CF06DEF2CF049EF2CF00AC002F00BC059
:1058E00003F00CC004F00DC005F0120098EF2CF08E
:1058F000200E0F181010D8B480EF2CF082EF2CF08F
:1059000098EF2CF00FC00EF0F70E0E26040E0E646A
:105910008CEF2CF08EEF2CF098EF2CF00FC002F0F3
:1059200010C003F00DC004F0FAEC2AF0AAEF2CF03E
:105930000DC004F063EC27F004C00FF005C010F0B8
:105940000F2806E11028D8A4A8EF2CF0AAEF2CF01D
:1059500078EF2CF0120000019CBFB1EF2CF0B3EFF8
:105960002CF0BDEF2CF099C099F09AC09AF09BC032
:105970009BF09CC09CF0D6EF2CF099C09DF09AC093
:105980009EF09BC09FF09CC0A0F09D1F9E1F9F1F7C
:10599000A01F9D2B000E9E239F23A0239DC099F046
:1059A0009EC09AF09FC09BF0A0C09CF01200010E18
:1059B000086E02C004F0D00E0426090E0464E3EF62
:1059C0002CF0E5EF2CF0FDEF2CF0200E0210046E11
:1059D000000E0310056E9F0E0424066EFF0E0520B8
:1059E000076E075009E1060E065CD8A0FAEF2CF00E
:1059F000FCEF2CF0FDEF2CF0086A08C002F0036AFF
:105A000012009BC0A2F09CC0A3F099C0A0F09AC065
:105A1000A1F01BEF2DF0A2C0D9FFA3C0DAFFDF5029
:105A20009F6FA24BA32BA0C0D9FFA1C0DAFF9FC0DC
:105A3000DFFFA04BA12B00019D07D8A09E079D2949
:105A400006E19E29D8A427EF2DF029EF2DF00BEFCA
:105A50002DF012005DC1D4F03BEF2DF05BC150F191
:105A60005CC151F1D40E0101526F5EC153F15FC1AF
:105A700054F18BEC22F0D4C0F6FF060EF76E08004E
:105A8000F5500009D8A447EF2DF049EF2DF02EEF87
:105A90002DF001015C6B000E5B6F1200000E000127
:105AA000C41B000EC51B000EC61B800EC71BC0C04A
:105AB00099F0C1C09AF0C2C09BF0C3C09CF0C4C0B2
:105AC0009DF0C5C09EF0C6C09FF0C7C0A0F01CEC02
:105AD00016F099C0C0F09AC0C1F09BC0C2F09CC043
:105AE000C3F012000001AE6B000EAD6F84EF2DF01D
:105AF000ACC09FF0A06BAAC0A1F0ABC0A2F0CFECED
:105B000028F00001AD4BAE2BAD51A825D96EAE519A
:105B1000A921DA6EDF50AC6FAC51D8A492EF2DF012
:105B200094EF2DF078EF2DF0120099C09DF09AC0FF
:105B30009EF000019B2B9B059C6F9CC0F6FF060E00
:105B4000F76E9DC0D9FF9EC0DAFF9D4B9E2B0800CB
:105B5000F5CFDFFFDF50D8A4B0EF2DF0B2EF2DF07E
:105B600099EF2DF01200000199519A119B119C118F
:105B7000D8B4BDEF2DF0BFEF2DF0C7EF2DF0000E24
:105B8000991B000E9A1B000E9B1B800E9C1B99C03C
:105B900099F09AC09AF09BC09BF09CC09CF01200B8
:105BA00000019E6F00019E05D8B4D9EF2DF0DBEF08
:105BB0002DF0E0EF2DF0A06BC00E9F6FE3EF2DF006
:105BC000A06B800E9F6F9FC0A1F09D51A127A1C027
:105BD0009BF0000E09EC2EF012000250031004108E
:105BE0000510D8B4F6EF2DF0F8EF2DF000EF2EF001
:105BF000000E021A000E031A000E041A800E051A77
:105C000002C002F003C003F004C004F005C005F0B8
:105C1000120000019C6F00019CB102D0839001D062
:105C2000838000019B390F0B49EC2BF000019B5145
:105C30000F0B49EC2BF0530EE82EFED7000012009C
:105C400002C004F09F0E04261A0E04602AEF2EF004
:105C50002CEF2EF032EF2EF05F0E0214026E036A6C
:105C600036EF2EF002C002F003C003F01200830EE4
:105C70000001856F80C086F081C087F0896B000EBF
:105C8000886F8E6B000E8D6F860E706E82C071F005
:105C9000850E726E96EC29F01200D00E0224046E6E
:105CA000FF0E0320056E05500AE10A0E045CD8A021
:105CB0005CEF2EF05FEF2EF0010E60EF2EF0000E85
:105CC000026E036A120002500402F3CF06F0F4CF12
:105CD00007F002500502F350072603500402F35068
:105CE000072606C002F007C003F01200610E010192
:105CF000656F010E666F000E5B6F000E5C6F60C11A
:105D00005DF1650E5E6F010E5F6F2AEC2DF01200E3
:105D1000FF0E066EFF0E076EFF0E086E7F0E096EF9
:105D200006C002F007C003F008C004F009C005F087
:105D30001200010E00019B6F000E09EC2EF00D0EFB
:105D400000019D6FFB0EE82EFED79D2FFCD700D0E3
:105D5000120000019D6F9DC09BF0010E09EC2EF01A
:105D6000120000019E6F00019E51A9EC2EF012005E
:0B5D7000026803681200CA012D310117
:020000040030CA
:0E000000FF01191EFF8181FF0FC00FE00F40AE
:00000001FF
