:04000000FEEF3FF0E0
:100600000050524F463A20414C414E004D49435212
:100610004F530000026E8A9002C08CFF86EC03F0FC
:100620000204D8B416EF03F018EF03F021EF03F043
:10063000020E0218D8A41FEF03F021EF03F02AEFF7
:1006400003F0030E016E980EE82EFED7012EFCD7A4
:100650002EEF03F0210EE82EFED7000012001A0E36
:10066000036EF80EE82EFED7032EFCD700D01A0E2C
:10067000036EF80EE82EFED7032EFCD700D0380EFE
:100680000AEC03F00C0E0AEC03F0010E0AEC03F086
:10069000060E0AEC03F01200F26A0F0EC16E8A6AAF
:1006A0008C6A936A956A2FEC03F09CEC03F00C0EB5
:1006B000026E65EC03F098EC03F0010E026E65EC3F
:1006C00003F061EF03F0FEEF3FF06EEF03F002C0C6
:1006D000F6FF0800F5507BEC03F0022A02C0F6FF9B
:1006E0000800F5500009D8A478EF03F07AEF03F082
:1006F00067EF03F01200016E8A8001C08CFF86EC68
:1007000003F0210EE82EFED7000012008A82100EA0
:10071000E82EFED700D08A92100EE82EFED700D029
:100720001200000EF86E060EF76E00014CEF03F09B
:10073000C00E0AEC03F01200800E0AEC03F0120067
:047FFC0091EF03F00E
:020000040030CA
:08000000FF011F1EFF8181FFBB
:00000001FF
