:04000000FEEF3FF0E0
:1006000000436F6E746167656D20696E696369612F
:100610006C0054656D706F3A202532647320202081
:1006200000507261746963612030373A0053494E5B
:10063000414C205645524445004154454E43414F9C
:100640002E2E2E00504152450000010E1C6E17BE8A
:100650002CEF03F02FEF03F0010E30EF03F0000E4C
:100660001D6E53C01AF054C01BF01D50D8B43BEFA0
:1006700003F03DEF03F052EF03F01A06D8A01B067B
:100680001D50D8A446EF03F048EF03F04DEF03F000
:10069000196A2B0E186E50EF03F0196A2D0E186EA2
:1006A00018C01DF01F6A1F0E1E6E776A82EF03F0DE
:1006B0001E06D8A01F061E50580FD96EDA6A16C043
:1006C00001F017C002F0046A0A0E036E18EC05F080
:1006D00001C007F002C008F06CEC07F00750300FC3
:1006E000DF6E1C6A1A06D8A01B0616C001F017C0E0
:1006F00002F0046A0A0E036EB8EC04F001C016F0B2
:1007000002C017F01FBE8DEF03F01F5008E11E045A
:10071000D8A08DEF03F08FEF03F0A0EF03F0165099
:100720001710D8A496EF03F098EF03F058EF03F0FA
:100730001C50D8A49EEF03F0A0EF03F058EF03F095
:100740001D50D8B4A6EF03F0A8EF03F0B1EF03F00B
:100750001E06D8A01F061E50580FD96EDA6A1DC09B
:10076000DFFF15C00EF01E50580F0F6E1AC010F0AC
:100770001BC011F05FEC06F012002150D96EDA6A4E
:10078000DFCFF6FF060EF76E0800F550250AD8A455
:10079000CCEF03F0CEEF03F031EF04F02150D96E2F
:1007A000DA6ADF2A546A000E536E53C057F0556858
:1007B000566821C001F022C002F0C4EC05F001C06F
:1007C00053F002C054F054BEEAEF03F0E8EF03F038
:1007D000EFEF03F05780536C541ED8B0542A2150C9
:1007E000D96EDA6ADF50276E27C0F6FF060EF76E65
:1007F0000800F550640AD8B400EF04F002EF04F0EA
:1008000010EF04F027C0F6FF060EF76E0800F55053
:10081000690AD8A40EEF04F010EF04F02BEF04F0F7
:100820002250D96EDA6A020EDF26DF5CD96EDA6AF0
:10083000DECF23F0DECF24F02150D96EDA6A2728EC
:10084000DF6E20C015F023C016F024C017F025EC91
:1008500003F042EF04F02150D96EDA6ADF2A42EF4A
:1008600004F02150D96EDA6ADFCFF6FF060EF76E7C
:100870000800F550016E026A20C003F06FEC05F02D
:100880002BEF04F0120003EC07F0F80E946E826A6E
:10089000E4EC07F0000E066E010E86EC07F0210E68
:1008A000076E0750D8A4060E086ED4EC06F0000EB2
:1008B000066E020E86EC07F0010E076E0750D8A4F4
:1008C000060E086ED4EC06F0270E526E0D0E516E19
:1008D000260EE82EFED7512EFCD7522EFAD700D086
:1008E000E4EC07F00A0EA1EC06F08280829282947A
:1008F000E4EC07F0000E066E010E86EC07F02D0EFC
:10090000076E0750D8A4060E086ED4EC06F00A0E47
:10091000A1EC06F0829082828294E4EC07F0000E53
:10092000066E010E86EC07F0390E076E0750D8A44C
:10093000060E086ED4EC06F0030EA1EC06F08290D1
:1009400082928284E4EC07F0000E066E010E86ECC3
:1009500007F0440E076E0750D8A4060E086ED4ECBC
:1009600006F00A0EA1EC06F048EF04F0FEEF3FF0AF
:10097000066A04BEC0EF04F0BEEF04F0C6EF04F058
:10098000036C041ED8B0042A010E066E02BECDEF21
:1009900004F0CBEF04F0D3EF04F0016C021ED8B0EA
:1009A000022A010E061A086A000E076E0350041090
:1009B000D8B4DDEF04F0DFEF04F007EF05F0010E2F
:1009C000056EE7EF04F0D89003360436052A04AE2E
:1009D000ECEF04F0EEEF04F0E3EF04F0D89007360C
:1009E00008360350015C04500258D8A0FAEF04F016
:1009F000FCEF04F001EF05F00350015E0450025AD1
:100A00000780D89004320332052EEEEF04F0065032
:100A1000D8B40DEF05F00FEF05F013EF05F0076CFC
:100A2000081ED8B0082A07C001F008C002F0120062
:100A3000066A02BE20EF05F01EEF05F026EF05F076
:100A4000016C021ED8B0022A010E066E04BE2DEF04
:100A500005F02BEF05F031EF05F0036C041ED8B064
:100A6000042A03500410D8B438EF05F03AEF05F02B
:100A70005EEF05F0010E056E42EF05F0D8900336EB
:100A80000436052A04AE47EF05F049EF05F03EEFC6
:100A900005F00350015C04500258D8A052EF05F055
:100AA00054EF05F058EF05F00350015E0450025A70
:100AB000D89004320332052E49EF05F00650D8B421
:100AC00064EF05F066EF05F06AEF05F0016C021EB9
:100AD000D8B0022A01C001F002C002F01200035097
:100AE000D8B475EF05F077EF05F07FEF05F0035010
:100AF000D8A47DEF05F07FEF05F084EF05F00150FD
:100B0000F4EC07F0C3EF05F00350D96EDA6A090E72
:100B1000D926DE50DE10D8B490EF05F092EF05F044
:100B2000ABEF05F00350D96EDA6A090ED9260350EF
:100B3000E16EE26A020EE126DE50E65CE650800AD3
:100B4000086EDE50800A0858D8B0A9EF05F0ABEF68
:100B500005F0C3EF05F00350D96EDA6A020ED9260C
:100B6000DF50046E0350D96EDA6ADF500424D96E68
:100B7000DA6A01C0DFFF0350D96EDA6A020ED926A5
:100B8000DE2A000EDD221200076A000E066E0150FA
:100B9000D96EDA6ADFCFF6FF060EF76E0800F55061
:100BA0002A0AD8A4D6EF05F0D8EF05F0FDEF05F03E
:100BB0000150D96EDA6ADF2A0250D96EDA6A020E63
:100BC000DF26DF5CD96EDA6ADECF06F0DECF07F013
:100BD00010EF06F00A0E0602F3CF03F0F4CF04F094
:100BE0000702F350042605500324066E000E04206D
:100BF000076E0150D96EDA6ADF2A0150D96EDA6ABF
:100C0000DFCFF6FF060EF76E0800F550D00F056E29
:100C1000090E05640EEF06F010EF06F0EAEF05F09E
:100C200006C001F007C002F01200036E03C001F01D
:100C3000013A0F0E0116010E0116013A83500118F8
:100C4000EF0B0118836E03C001F0050E026ED89001
:100C50000132022E27EF06F0010E0116013A01467D
:100C600083500118DF0B0118836E03C001F0060EDC
:100C7000026ED8900132022E39EF06F0010E0116F5
:100C8000013A0146014683500118BF0B0118836EDB
:100C9000016A03AE01D0012A010E011601320132B0
:100CA000835001187F0B0118836E838200D000D01F
:100CB00000008392A60EE82EFED700D0120057A0A7
:100CC00064EF06F066EF06F06CEF06F00FC009F077
:100CD0000EC00AF04FEC07F011BE73EF06F071EF93
:100CE00006F076EF06F0116A000E106E146A000E20
:100CF000136E84EF06F0026A200E016E0EC003F040
:100D00006FEC05F0134A142A1050135C1450800A3B
:100D1000126E1150800A1258D8A091EF06F093EF8E
:100D200006F07BEF06F057B098EF06F09AEF06F06A
:100D3000A0EF06F00FC009F00EC00AF04FEC07F06C
:100D400012004E6E4EC04FF0506A50BEACEF06F02F
:100D5000AAEF06F0AEEF06F0D3EF06F0000E066E37
:100D6000020E86EC07F03E0E2C6E120E2D6E4FC05A
:100D70002EF050C02FF09FEC07F03E0E076E086A71
:100D8000D4EC06F01A0E3D6E5E0E3C6E6E0EE82E32
:100D9000FED73C2EFCD73D2EFAD700D04F06D8A068
:100DA0005006A5EF06F01200EAEF06F007C0F6FFC6
:100DB00008C0F7FFF86A050EF76403D00800F55085
:100DC00005D0F6CFE1FFF7CFE2FFE750EFEC07F0F9
:100DD000074A082A07C0F6FF08C0F7FFF86A050EA1
:100DE000F76403D00800F55005D0F6CFE1FFF7CF48
:100DF000E2FFE7500009D8A400EF07F002EF07F088
:100E0000D6EF06F01200956A836A83928390820E71
:100E1000076EDE0EE82EFED7072EFCD7300E15EC3F
:100E200006F0210E076E760EE82EFED7072EFCD7B1
:100E300000D0300E15EC06F0FA0EE82EFED7300E7C
:100E400015EC06F0200E15EC06F0280EB7EC07F0B6
:100E50000C0EB7EC07F0060EB7EC07F0E4EC07F069
:100E6000120029C02BF03DEF07F028C020F02B0E18
:100E7000216E2AC022F0BDEC03F02BC0F6FF060E57
:100E8000F76E0800F5500009D8A449EF07F04BEFC2
:100E900007F035EF07F0296A000E286E12000D6A80
:100EA000000E0C6E5DEF07F00BC001F0026A0AC085
:100EB00003F06FEC05F00C4A0D2A09500C24D96E92
:100EC000DA6ADF500B6E0B50D8A469EF07F06BEFB6
:100ED00007F054EF07F0120008BE71EF07F073EF50
:100EE00007F079EF07F007C007F008C008F085EFBA
:100EF00007F007C009F008C00AF0091E0A1E094AD7
:100F00000A2A09C007F00AC008F01200076E070499
:100F1000D8B48DEF07F08FEF07F094EF07F0096A70
:100F2000C00E086E97EF07F0096A800E086E08C0C1
:100F30000AF006500A260A50B7EC07F012002E0EEF
:100F4000306E2CC031F0346A000E336E3B6A000EF6
:100F50003A6E310E286E2DC029F0300E2A6E31EC1B
:100F600007F02C503324D96EDA6ADF6A1200056E5E
:100F70008390055015EC06F00538F00B15EC06F0E3
:100F80000D0E046EFC0EE82EFED7042EFCD71200C8
:100F9000056E8380055015EC06F00538F00B15EC56
:100FA00006F00D0E046EFC0EE82EFED7042EFCD7C4
:100FB000120000EE53F0250EEE6AE806FDE1000E89
:100FC000F86E000143EF04F0010EB7EC07F00D0ED0
:100FD000066EFC0EE82EFED7062EFCD71200066E1B
:0A0FE0000650C8EC07F012001200E2
:047FFC00D9EF07F0C2
:020000040030CA
:04000000FF02191EC4
:0200060081FF78
:00000001FF
