:0400000007EF00F016
:0A000800018248ED03F07AEF03F0E7
:100600000000070EB46E928095908C6A896A0E0E77
:10061000C16E960EC06E010EC26E7E0ECA6ECB68A3
:10062000CC6AD09E9E929D82F28CF28E7F0E0A6ED4
:10063000530EE82EFED7000065EC03F002C008F070
:1006400003C009F008C006F009C007F0D8900732CF
:100650000632D8900732063206500A6EFA0E0A6445
:1006600034EF03F036EF03F03AEF03F0FA0E0A6EC0
:1006700018EF03F0140E0A6040EF03F042EF03F0AE
:1006800018EF03F0140E0A6E18EF03F007EF00F0F6
:1006900006009EA24EEF03F050EF03F063EF03F06D
:1006A0009E9283B056EF03F058EF03F05EEF03F035
:1006B0000AC0CBFFCC6A8C8063EF03F00A50FF0ABC
:1006C000CB6ECC6A8C9001921100C30EC216080E3C
:1006D000E82EFED70000C282C2B271EF03F073EFC2
:1006E00003F06CEF03F0C450046EC350026E04C0FC
:1006F00003F012000A6A01900192000101EF03F079
:020000040030CA
:08000000FF021B1EFF8181FFBE
:00000001FF
