:04000000FEEF3FF0E0
:1006000000563D252E32660A00696E66006E616EE8
:1006100000000001A16B57C0A2F058C0A3F059C060
:10062000A4F05AC0A5F0A5BF1AEF03F018EF03F02D
:100630002EEF03F0010EA16FA2C001F0A3C002F0E3
:10064000A4C003F0A5C004F001EC15F001C0A2F0B5
:1006500002C0A3F003C0A4F004C0A5F00001A76B82
:10066000000EA66FB5C091F0B6C092F0A151D8B4FB
:100670003CEF03F03EEF03F050EF03F0A151D8A49C
:1006800044EF03F046EF03F04BEF03F0876B2B0EC4
:10069000866F4EEF03F0876B2D0E866F86C0A1F03C
:1006A000A2C001F0A3C002F0A4C003F0A5C004F0F2
:1006B000F9EC11F001040210D8A461EF03F063EF2C
:1006C00003F093EF03F00001A151D8B46AEF03F0F7
:1006D0006CEF03F074EF03F0A1C000F19107D8A014
:1006E0009207A76B010EA66F000EA625016E010EE4
:1006F000A721026E090E036EE4EC14F00001FD0E5A
:100700009127FF0E922355C012F056C013F0000E31
:10071000146E010E156E91C016F092C017F0F8EC31
:1007200013F0F1EF07F0A2C001F0A3C002F0A4C0E3
:1007300003F0A5C004F0F9EC11F001500210D8A4A8
:10074000A4EF03F0A6EF03F0C3EF03F00001A15103
:10075000D8B4ADEF03F0AFEF03F0B7EF03F0A1C0F3
:1007600000F19107D8A09207A76B010EA66F000EAB
:10077000A625016E010EA721026E0D0E036EE4EC9C
:1007800014F07EEF03F0000E0001A86F000EA96FB9
:10079000800EAA6F3F0EAB6F906B000E8F6FA2C0E2
:1007A00001F0A3C002F0A4C003F0A5C004F0000E45
:1007B000056E000E066E000E076E000E086E52ECFF
:1007C00013F0D8B0E6EF03F0E8EF03F0C7EF04F062
:1007D000F5EF03F093C0A8F094C0A9F095C0AAF07B
:1007E00096C0ABF000018F4B902BA8C00FF0A9C0B2
:1007F00010F0AAC011F0ABC012F0000E136E000E84
:10080000146E200E156E410E166E4DEC0AF00FC0E0
:1008100093F010C094F011C095F012C096F0000152
:100820009351A25D016E9451A359026E9551A45942
:10083000036E9651A559046E2CEC14F004BE2CEFF7
:1008400004F004500310021009E1020E015CD8A06C
:100850002CEF04F02EEF04F0EAEF03F093C028F041
:1008600094C029F095C02AF096C02BF0A2C02CF0BD
:10087000A3C02DF0A4C02EF0A5C02FF077EC11F08E
:10088000D8A045EF04F047EF04F0EAEF03F00001D1
:10089000A851A25D016EA951A359026EAA51A45993
:1008A000036EAB51A559046E2CEC14F004BE66EF38
:1008B00004F004500310021007E1020E015CD8B0EE
:1008C00064EF04F066EF04F0AEEF04F0A8C0A2F00D
:1008D000A9C0A3F0AAC0A4F0ABC0A5F0C7EF04F074
:1008E000A8C028F0A9C029F0AAC02AF0ABC02BF0FC
:1008F000000E2C6E000E2D6E200E2E6E410E2F6EF1
:1009000060EC0CF028C0A8F029C0A9F02AC0AAF019
:100910002BC0ABF000018F07D8A09007A851A25DB3
:10092000016EA951A359026EAA51A459036EAB518D
:10093000A559046E2CEC14F004BEACEF04F0045086
:100940000310021007E1020E015CD8B0AAEF04F018
:10095000ACEF04F0AEEF04F066EF04F0A2C028F0B4
:10096000A3C029F0A4C02AF0A5C02BF0A8C02CF089
:10097000A9C02DF0AAC02EF0ABC02FF077EC11F07B
:10098000D8A0C5EF04F0C7EF04F070EF04F05BC02F
:1009900089F089C08AF00001B8BFD1EF04F0D3EF2D
:1009A00004F0D9EF04F0B7C082F0B8C083F0DCEFF8
:1009B00004F0836B060E826F82C08DF083C08EF0D0
:1009C0008D4B8E2B660E8A19D8A4E9EF04F0EBEF5D
:1009D00004F00AEF05F090BFF2EF04F0F0EF04F03E
:1009E000FDEF04F0000EA86F000EA96F800EAA6F35
:1009F0003F0EAB6F906B000E8F6F670E8919D8B4E6
:100A000004EF05F006EF05F00AEF05F08F518D2792
:100A100090518E23986B000E976FA2C099F0A3C0DF
:100A20009AF0A4C09BF0A5C09CF0A8C093F0A9C008
:100A300094F0AAC095F0ABC096F09AEF05F099C07B
:100A400028F09AC029F09BC02AF09CC02BF0A8C0C7
:100A50002CF0A9C02DF0AAC02EF0ABC02FF060EC96
:100A60000CF028C041F029C042F02AC043F02BC04E
:100A700044F027EC0EF041C09DF042C09EF043C010
:100A80009FF044C0A0F09DC001F09EC002F09FC046
:100A900003F0A0C004F0F4EC10F001C08BF002C031
:100AA0008CF099C028F09AC029F09BC02AF09CC015
:100AB0002BF09DC013F09EC014F09FC015F0A0C095
:100AC00016F0A8C00FF0A9C010F0AAC011F0ABC07A
:100AD00012F04DEC0AF00FC02CF010C02DF011C038
:100AE0002EF012C02FF07FEC14F028C099F029C02E
:100AF0009AF02AC09BF02BC09CF0A8C028F0A9C097
:100B000029F0AAC02AF0ABC02BF0000E2C6E000E0C
:100B10002D6E200E2E6E410E2F6E60EC0CF028C054
:100B2000A8F029C0A9F02AC0AAF02BC0ABF00001A0
:100B3000974B982B8D51975D9851800A5C6E8E5122
:100B4000800A5C58D8A0A7EF05F0A9EF05F01FEFC9
:100B500005F0A8C00FF0A9C010F0AAC011F0ABC0FA
:100B600012F0000E136E000E146EA00E156E400EE5
:100B7000166E4DEC0AF00FC09DF010C09EF011C033
:100B80009FF012C0A0F099C028F09AC029F09BC035
:100B90002AF09CC02BF09DC02CF09EC02DF09FC071
:100BA0002EF0A0C02FF077EC11F0D8B0DAEF05F0FE
:100BB000DCEF05F0E7EF05F0000E00019D6F000E81
:100BC0009E6F000E9F6F000EA06F10EF06F099C091
:100BD00001F09AC002F09BC003F09CC004F09DC0DD
:100BE00005F09EC006F09FC007F0A0C008F052ECD0
:100BF00013F0D8A0FEEF05F000EF06F010EF06F0BE
:100C000000018BB106EF06F008EF06F010EF06F0DA
:100C1000000E9D6F000E9E6F000E9F6F000EA06F66
:100C2000A2C001F0A3C002F0A4C003F0A5C004F06C
:100C30009DC005F09EC006F09FC007F0A0C008F060
:100C4000F2EC07F001C099F002C09AF003C09BF0EB
:100C500004C09CF099C028F09AC029F09BC02AF0EB
:100C60009CC02BF0000E136E000E146E200E156E3D
:100C7000410E166E93C00FF094C010F095C011F0A5
:100C800096C012F04DEC0AF00FC02CF010C02DF001
:100C900011C02EF012C02FF077EC11F0D8A053EF56
:100CA00006F055EF06F07EEF06F000018F4B902B1B
:100CB00093C00FF094C010F095C011F096C012F0E0
:100CC000000E136E000E146E200E156E410E166E81
:100CD0004DEC0AF00FC093F010C094F011C095F0E5
:100CE00012C096F0660E00018A19D8A47AEF06F0B9
:100CF0007CEF06F07EEF06F08D4B8E2B93C0A8F0B4
:100D000094C0A9F095C0AAF096C0ABF08FC080F057
:100D100090C081F00001886B856B000E846F986B2A
:100D2000000E976F78EF07F099C028F09AC029F06D
:100D30009BC02AF09CC02BF0A8C02CF0A9C02DF0BD
:100D4000AAC02EF0ABC02FF060EC0CF028C041F030
:100D500029C042F02AC043F02BC044F027EC0EF02B
:100D600041C09DF042C09EF043C09FF044C0A0F03F
:100D70009DC001F09EC002F09FC003F0A0C004F02F
:100D8000F4EC10F002BED0EF06F0025007E10A0EBC
:100D9000015CD8B0CEEF06F0D0EF06F0E0EF06F041
:100DA0009DC001F09EC002F09FC003F0A0C004F0FF
:100DB000F4EC10F001C08BF002C08CF0E4EF06F010
:100DC00000018C6B090E8B6F00018851D8A4EBEFEA
:100DD00006F0EDEF06F015EF07F081BFF4EF06F037
:100DE000F2EF06F015EF07F0000EA625D96E010E02
:100DF000A721DA6E2E0EDF6EA64BA72B9107D8A087
:100E00009207010E886F15EF07F0000EA625D96E28
:100E1000010EA721DA6E300EDF6EA64BA72B9107CD
:100E2000D8A092078407D8A0850784518511D8A43B
:100E30001CEF07F01EEF07F005EF07F0000EA625E8
:100E4000D96E010EA721DA6E8B51300FDF6EA64BE3
:100E5000A72B9107D8A0920799C028F09AC029F033
:100E60009BC02AF09CC02BF09DC013F09EC014F0D4
:100E70009FC015F0A0C016F0A8C00FF0A9C010F0D8
:100E8000AAC011F0ABC012F04DEC0AF00FC02CF06C
:100E900010C02DF011C02EF012C02FF07FEC14F016
:100EA00028C099F029C09AF02AC09BF02BC09CF072
:100EB000A8C028F0A9C029F0AAC02AF0ABC02BF026
:100EC000000E2C6E000E2D6E200E2E6E410E2F6E1B
:100ED00060EC0CF028C0A8F029C0A9F02AC0AAF044
:100EE0002BC0ABF000018007D8A08107974B982B4F
:100EF0008D51975D9851800A5C6E8E51800A5C58C6
:100F0000D8B085EF07F087EF07F095EF07F0A7BFA0
:100F100093EF07F0A75109E14B0EA65DD8A093EF20
:100F200007F095EF07F094EF06F0986B4F0E976F70
:100F3000000E9725D96E010E9821DA6EDF6A000E39
:100F40005C6E010E5D6EA6515C5EA7515D5A9751B5
:100F50005C24016E98515D20026E000E036E010E3E
:100F6000046EA6C005F0A7C006F057EC14F000010F
:100F7000A651975DA66FA7519859A76FA151D8A404
:100F8000C4EF07F0C7EF07F0010EC8EF07F0000E3F
:100F9000976F986BA151D8B4D0EF07F0D2EF07F05C
:100FA000DDEF07F0A607D8A0A707000EA625D96E8B
:100FB000010EA721DA6EA1C0DFFF9751915F985112
:100FC000925B55C012F056C013F0000EA625146EA9
:100FD000010EA721156E91C016F092C017F0F8EC23
:100FE00013F012000450800B0D6E045004240F6E99
:100FF00003AEFDEF07F0FFEF07F000EF08F00F8002
:101000000F50D8B406EF08F008EF08F01CEF08F016
:101010000F28D8A40EEF08F010EF08F018EF08F032
:10102000000E016E000E026E000E036E000E046EC6
:10103000038E046A24EF08F0000E016E000E026EAB
:10104000000E036E000E046E0850800B0E6E0D50E5
:101050000E18D8B42EEF08F030EF08F031EF08F09A
:101060000D8C085008240E6E07AE39EF08F03BEFE8
:1010700008F03CEF08F00E800E50D8B442EF08F0B4
:1010800044EF08F058EF08F00E28D8A44AEF08F013
:101090004CEF08F054EF08F0000E056E000E066EDF
:1010A000000E076E000E086E078E086A60EF08F0EB
:1010B000000E056E000E066E000E076E000E086E26
:1010C0000F500E5CD8B067EF08F069EF08F090EFB2
:1010D00008F00DAC6EEF08F070EF08F072EF08F05A
:1010E000800E0D1A0FC010F00EC00FF010C00EF0E1
:1010F00001C010F005C001F010C005F002C010F0F2
:1011000006C002F010C006F003C010F007C003F0E4
:1011100010C007F004C010F008C004F010C008F0C0
:10112000106A0F500EC009F00A6A095E000E0A5AD2
:101130000ABEA4EF08F00A5009E11A0E095CD8A013
:10114000A4EF08F0A6EF08F0DDEF08F00150021060
:1011500003100410D8A4AFEF08F0B2EF08F0010EAE
:10116000B3EF08F0000E106E000E016E000E026E5E
:10117000000E036E000E046E0EC00FF0E6EF08F0D6
:1011800010A0C5EF08F0C7EF08F0CDEF08F0D89039
:1011900010300109106ECFEF08F0D890103201A086
:1011A000D4EF08F0D6EF08F0D7EF08F0108E043433
:1011B00004320332023201320F2A0E500F5CD8A0E3
:1011C000E4EF08F0E6EF08F0C0EF08F00DBCEBEF3D
:1011D00008F0EDEF08F02DEF09F00F50D8A4F3EF71
:1011E00008F0F5EF08F0FFEF08F0000E016E000EBA
:1011F000026E000E036E000E046E4CEF0AF00550F6
:10120000012606500222075003220850042204A09F
:101210000CEF09F00EEF09F0BAEF09F010A013EF90
:1012200009F015EF09F01BEF09F0D8901030010913
:10123000106E1DEF09F0D890103201A022EF09F0D6
:1012400024EF09F025EF09F0108E04340432033244
:10125000023201320F2ABAEF09F00550015C065044
:101260000258075003580450800A096E0850800A3B
:101270000958D8B03EEF09F040EF09F06BEF09F0E4
:101280000150055C096E025006580A6E035007585B
:101290000B6E045008580C6EFF0E0924016EFF0EF1
:1012A0000A20026EFF0E0B20036EFF0E0C20046E50
:1012B000800E0D1A106C1050D8A461EF09F063EF86
:1012C00009F073EF09F0010E0126000E022203223D
:1012D000042273EF09F00550015E0650025A0750D0
:1012E000035A0850045A0150021003100410D8A4E5
:1012F0007CEF09F07EEF09F0B3EF09F01050D8A4AD
:1013000084EF09F086EF09F0B3EF09F0000E016EEB
:10131000000E026E000E036E000E046E4CEF0AF01B
:10132000D890013602360336043610AE9AEF09F033
:101330009CEF09F09DEF09F0018010A0A2EF09F0E9
:10134000A4EF09F0A8EF09F0D8801036AAEF09F051
:10135000D89010360F50D8B4B0EF09F0B2EF09F0C2
:10136000B3EF09F00F0603AEB8EF09F0BAEF09F0DA
:1013700090EF09F00E6A10AEC0EF09F0C2EF09F06D
:10138000DAEF09F010C009F07F0E0916D8B4CBEFE0
:1013900009F0CDEF09F0D1EF09F0010E0E6EDAEF92
:1013A00009F001A0D6EF09F0D8EF09F0DAEF09F063
:1013B000CDEF09F00E50D8B4E0EF09F0E2EF09F0FC
:1013C0000DEF0AF0010E0126000E02220322042274
:1013D00004A0EDEF09F0EFEF09F00DEF0AF001C006
:1013E00009F002C00AF003C00BF004C00CF00C348A
:1013F0000C320B320A32093209C001F00AC002F085
:101400000BC003F00CC004F00F28D8B40AEF0AF0A8
:101410000CEF0AF00DEF0AF00F2A0F28D8B413EFE3
:101420000AF015EF0AF01DEF0AF00F50D8A41BEFD9
:101430000AF01DEF0AF02EEF0AF0000E016E000E0A
:10144000026E000E036E000E046E0F50D8A42BEF38
:101450000AF02DEF0AF02EEF0AF00D6A0FA033EF1D
:101460000AF035EF0AF038EF0AF0038E39EF0AF090
:10147000039ED8900F30046E0DAE41EF0AF043EF9B
:101480000AF044EF0AF0048E01C001F002C002F03D
:1014900003C003F004C004F012001250800B1B6E56
:1014A00012501224216E11AE58EF0AF05AEF0AF0D2
:1014B0005BEF0AF021802150D8B461EF0AF063EFAE
:1014C0000AF076EF0AF02128D8A469EF0AF06BEF52
:1014D0000AF073EF0AF0000E0F6E000E106E000E91
:1014E000116E000E126E118E7EEF0AF0000E0F6E5E
:1014F000000E106E000E116E000E126E1650800B54
:101500001B1A16501624206E15AE89EF0AF08BEFC9
:101510000AF08CEF0AF020802050D8B492EF0AF045
:1015200094EF0AF0A7EF0AF02028D8A49AEF0AF067
:101530009CEF0AF0A4EF0AF0000E136E000E146E7A
:10154000000E156E000E166E158EAFEF0AF0000E2F
:10155000136E000E146E000E156E000E166E2050E7
:10156000D8B4B5EF0AF0B7EF0AF0BFEF0AF0215098
:10157000D8A4BDEF0AF0BFEF0AF0C9EF0AF0000EE1
:101580000F6E000E106E000E116E000E126E5FEFE9
:101590000CF015500F02F3CF26F0F4CF27F02650B1
:1015A0001C6E1D6A1E6A1F6A2750226E236A246AF7
:1015B000256A14501002F3CF26F0F4CF27F02650FE
:1015C0001C26000E1D221E221F2227502226000E3E
:1015D00023222422252213501102F3CF26F0F4CF28
:1015E00027F026501C26000E1D221E221F222750E7
:1015F0002226000E2322242225221EC01FF01DC0F9
:101600001EF01CC01DF01C6A13501002F3CF26F010
:10161000F4CF27F026501C2627501D22000E1E2234
:10162000000E1F2214500F02F3CF26F0F4CF27F044
:1016300026501C2627501D22000E1E22000E1F229F
:101640001EC01FF01DC01EF01CC01DF01C6A1350F0
:101650000F02F3CF26F0F4CF27F026501C26275098
:101660001D22000E1E22000E1F2215501002F3CF65
:1016700026F0F4CF27F02650222627502322000EF2
:101680002422000E252214501102F3CF26F0F4CFAD
:1016900027F02650222627502322000E2422000E57
:1016A000252215501102F3CF26F0F4CF27F0265053
:1016B000176E2750186E196A1A6A19C01AF018C0E6
:1016C00019F017C018F0176A175022261850232255
:1016D000195024221A5025221CC017F01DC018F0E2
:1016E0001EC019F01FC01AF0190E7CEF0BF0D89035
:1016F0001A32193218321732E82E77EF0BF01750E2
:10170000222618502322195024221A5025221EC0A6
:101710001FF01DC01EF01CC01DF01C6A205021C00F
:1017200017F0186A1726000E1822820E1724266E4C
:10173000FF0E1820276EB2EF0BF0D890223623361A
:10174000243625361FAEA7EF0BF0A9EF0BF0AAEF5A
:101750000BF02280D8901C361D361E361F3626060A
:10176000D8A0270624AEB7EF0BF0B9EF0BF09DEF32
:101770000BF0206A1FAEBFEF0BF0C1EF0BF0E5EFEF
:101780000BF0FF0E1C14176EFF0E1D14186EFF0ECB
:101790001E14196E7F0E1F141A6E17501810191090
:1017A0001A10D8B4D6EF0BF0D8EF0BF0DCEF0BF03B
:1017B000010E206EE5EF0BF022A0E1EF0BF0E3EF5E
:1017C0000BF0E5EF0BF0D8EF0BF02050D8B4EBEFB7
:1017D0000BF0EDEF0BF011EF0CF0010E2226000ED6
:1017E00023222422252225A0F8EF0BF0FAEF0BF09C
:1017F00011EF0CF022C017F023C018F024C019F02C
:1018000025C01AF01A341A3219321832173217C09A
:1018100022F018C023F019C024F01AC025F0264A7F
:10182000272A27BE1CEF0CF0275008E12628D8A055
:101830001CEF0CF01EEF0CF028EF0CF0000E226EE7
:10184000000E236E800E246E7F0E256E55EF0CF079
:1018500027BE35EF0CF0275006E12604D8B033EF51
:101860000CF035EF0CF040EF0CF0000E226E000E85
:10187000236E000E246E000E256E1B6A55EF0CF0D1
:1018800026C021F0FF0E2216FF0E23167F0E24160F
:10189000000E251621A04FEF0CF051EF0CF052EF87
:1018A0000CF0248ED8902130256E1B50251222C0BA
:1018B0000FF023C010F024C011F025C012F0120068
:1018C0002B50800B386E2B502B243F6E2AAE6BEFC3
:1018D0000CF06DEF0CF06EEF0CF03F803F50D8B481
:1018E00074EF0CF076EF0CF08AEF0CF03F28D8A4E0
:1018F0007CEF0CF07EEF0CF086EF0CF0000E286E03
:10190000000E296E000E2A6E000E2B6E2A8E2B6A98
:1019100092EF0CF0000E286E000E296E000E2A6E5B
:10192000000E2B6E2F50800B381A2F502F24406E34
:101930002EAE9DEF0CF09FEF0CF0A0EF0CF040806E
:101940004050D8B4A6EF0CF0A8EF0CF0BCEF0CF0B0
:101950004028D8A4AEEF0CF0B0EF0CF0B8EF0CF0CC
:10196000000E2C6E000E2D6E000E2E6E000E2F6ED1
:101970002E8E2F6AC4EF0CF0000E2C6E000E2D6E12
:10198000000E2E6E000E2F6E2C502D102E102F10CC
:10199000D8A4CDEF0CF0CFEF0CF0E7EF0CF0000E79
:1019A000286E000E296E000E2A6E000E2B6E800E21
:1019B0002A127F0E2B1238502B1228C028F029C073
:1019C00029F02AC02AF02BC02BF026EF0EF03F5052
:1019D000D8A4EDEF0CF0EFEF0CF0F9EF0CF0000EE7
:1019E000286E000E296E000E2A6E000E2B6E26EF5A
:1019F0000EF040503FC030F0316A305E000E315A78
:101A00007F0E3024396E000E31203A6E28C034F03B
:101A100029C035F02AC036F02BC037F0000E286EF2
:101A2000000E296E000E2A6E000E2B6E000E3B6E0D
:101A3000000E3C6E000E3D6E000E3E6E406A59EF89
:101A40000DF04050D8B427EF0DF029EF0DF040EF26
:101A50000DF0D8903436353636363736D8902836AD
:101A600029362A362B363EAE38EF0DF03AEF0DF020
:101A70003BEF0DF02880D8903B363C363D363E3665
:101A80002C50345C2D5035582E5036582F50375826
:101A9000D8A04DEF0DF04FEF0DF058EF0DF03E8C4C
:101AA0002C50345E2D50355A2E50365A2F50375AFE
:101AB000402A190E40645FEF0DF061EF0DF021EF49
:101AC0000DF03450351036103710D8B46AEF0DF0E1
:101AD0006CEF0DF084EF0DF03B8084EF0DF0D890AB
:101AE000283629362A362B363EAE79EF0DF07BEFBD
:101AF0000DF07CEF0DF02880D8903B363C363D361B
:101B00003E363906D8A03A062AAE89EF0DF08BEFA3
:101B10000DF06FEF0DF0406A3EAE91EF0DF093EFD8
:101B20000DF0B7EF0DF0FF0E3B14306EFF0E3C14BE
:101B3000316EFF0E3D14326E7F0E3E14336E305008
:101B4000311032103310D8B4A8EF0DF0AAEF0DF019
:101B5000AEEF0DF0010E406EB7EF0DF028A0B3EF21
:101B60000DF0B5EF0DF0B7EF0DF0AAEF0DF040500E
:101B7000D8B4BDEF0DF0BFEF0DF0E3EF0DF0010EA7
:101B80002826000E29222A222B222BA0CAEF0DF094
:101B9000CCEF0DF0E3EF0DF028C030F029C031F0AC
:101BA0002AC032F02BC033F0333433323232313288
:101BB000303230C028F031C029F032C02AF033C0B2
:101BC0002BF0394A3A2A3ABEEEEF0DF03A5008E1CE
:101BD0003928D8A0EEEF0DF0F0EF0DF0FBEF0DF08F
:101BE000000E3A6E3968000E286E000E296E000E47
:101BF0002A6E000E2B6E3ABE08EF0EF03A5006E148
:101C00003904D8B006EF0EF008EF0EF014EF0EF026
:101C10003A6A000E396E000E286E000E296E000E14
:101C20002A6E000E2B6E386A39C03FF03FA01BEFC2
:101C30000EF01DEF0EF020EF0EF02A8E21EF0EF0C9
:101C40002A9ED8903F302B6EDBEF0CF0120073C051
:101C500051F074C052F075C053F076C054F041C0DA
:101C600051F042C052F043C053F044C054F0810ED2
:101C7000456EFF0E466E51C047F052C048F053C04B
:101C800049F054C04AF0180E4BEF0EF0D8904A328B
:101C9000493248324732E82E46EF0EF0475045248D
:101CA0004F6E000E4620506E50BE60EF0EF050504A
:101CB00009E1170E4F5CD8A060EF0EF062EF0EF056
:101CC0006CEF0EF041C041F042C042F043C043F01F
:101CD00044C044F02FEF0FF050BE71EF0EF073EFE1
:101CE0000EF0E3EF0EF04FC045F0FF0E466EFF0E14
:101CF000476E7F0E486E000E496E456682EF0EF00D
:101D00008AEF0EF049344932483247324632452E86
:101D10007DEF0EF046C04BF047C04CF048C04DF090
:101D200049C04EF04B505114456E4C505214466E03
:101D30004D505314476E4E505414486E4550461043
:101D400047104810D8A4A7EF0EF0A9EF0EF0ABEFA4
:101D50000EF062EF0EF051C045F052C046F053C095
:101D600047F054C048F0200EBBEF0EF0D890483238
:101D7000473246324532E82EB6EF0EF04550461057
:101D800047104810D8B4C7EF0EF0C9EF0EF0D1EFEE
:101D90000EF04B5051264C5052224D5053224E5073
:101DA00054224B1C456E4C1C466E4D1C476E4E1CFF
:101DB000486E4550511646505216475053164850DB
:101DC000541627EF0FF051C045F052C046F053C0F3
:101DD00047F054C048F0200EF3EF0EF0D890483290
:101DE000473246324532E82EEEEF0EF045504610AF
:101DF00047104810D8A4FFEF0EF001EF0FF00BEFE3
:101E00000FF0000E516E000E526E000E536E000E5B
:101E1000546E27EF0FF0D8905134456E5234466E11
:101E20005334476E5434486E45504610471048109E
:101E3000D8B41DEF0FF01FEF0FF027EF0FF0000EDB
:101E4000516E000E526E800E536EBF0E546E51C016
:101E500041F052C042F053C043F054C044F012006D
:101E60006050D96EDA6ADFCFF6FF060EF76E080013
:101E7000F550250AD8A43FEF0FF041EF0FF006EF21
:101E800010F06050D96EDA6ADF2A0001B66B000EDE
:101E9000B56FB5C07BF0B769B8696050D96EDA6AC2
:101EA000DFCFF6FF060EF76E0800F5502E0AD8A415
:101EB0005CEF0FF05EEF0FF06CEF0FF06050D96E3B
:101EC000DA6ADF2A60C001F061C002F0A7EC13F00B
:101ED00001C0B7F002C0B8F06050D96EDA6ADF50C6
:101EE000686E68C0F6FF060EF76E0800F5CF67F063
:101EF00084EF0FF0682A93EF0FF06C0E676E93EF8C
:101F00000FF0676A93EF0FF067504C0AD8B47AEF7E
:101F10000FF02A0AD8B47DEF0FF00A0AD8B47AEF8E
:101F20000FF081EF0FF068C0F6FF060EF76E0800A5
:101F3000F550660AD8A49FEF0FF0A1EF0FF000EF65
:101F400010F0CBEF0FF06150D96EDA6ADFCF62F09C
:101F5000040EDF266250D96EDA6ADECF63F0DECF80
:101F600064F0DECF65F0DECF66F0D6EF0FF06150A3
:101F7000D96EDA6ADFCF62F0040EDF266250D96EC6
:101F8000DA6ADECF63F0DECF64F0DECF65F0DECF5D
:101F900066F0D6EF0FF067504C0AD8B4B7EF0FF0E9
:101FA000200AD8B4A3EF0FF0D6EF0FF06050D96E2F
:101FB000DA6A6828DF6EF4EF0FF05EC055F05FC09C
:101FC00056F063C057F064C058F065C059F066C061
:101FD0005AF068C0F6FF060EF76E0800F5CF5BF00A
:101FE00009EC03F019EF10F068C0F6FF060EF76E6B
:101FF0000800F550660AD8B4DDEF0FF000EF10F0DE
:102000006050D96EDA6ADF2A19EF10F06050D96E8D
:10201000DA6ADFCFF6FF060EF76E0800F550026EA3
:10202000036A5EC004F05FC005F0EDEC12F000EF53
:1020300010F01200096E0950D8B421EF10F023EF10
:1020400010F045EF10F004BE2AEF10F028EF10F06A
:1020500045EF10F001C005F002C006F003C007F024
:1020600004C008F0051E061E071E081E052A000EE5
:1020700006220722082205C00BF006C00CF007C09C
:102080000DF008C00EF04DEF10F001C00BF002C0D3
:102090000CF003C00DF004C00EF00150021003104C
:1020A0000410D8A456EF10F058EF10F062EF10F0C3
:1020B000000E016E000E026E000E036E000E046E26
:1020C000F3EF10F0960E0A6E6CEF10F00A2AD8901B
:1020D0000E320D320C320B32000E0B14056E000E58
:1020E0000C14066E000E0D14076EFE0E0E14086E14
:1020F0000550061007100810D8A481EF10F083EFE8
:1021000010F066EF10F091EF10F00A2A010E0B2686
:10211000000E0C220D220E22D8900E320D320C32FF
:102120000B32000E0B14056E000E0C14066E000E22
:102130000D14076EFF0E0E14086E055006100710E2
:102140000810D8A4A6EF10F0A8EF10F085EF10F05B
:10215000B0EF10F00A06D8900B360C360D360E365E
:102160000DBEB5EF10F0B7EF10F0BFEF10F0020E9C
:102170000A60BDEF10F0BFEF10F0AAEF10F00AB048
:10218000C4EF10F0C6EF10F0C7EF10F00D9ED8901E
:102190000A320AC005F0066A076A086A05C008F034
:1021A000076A066A056A05500B1206500C120750A2
:1021B0000D1208500E120950D8B4E1EF10F0E3EF01
:1021C00010F0EBEF10F004BEEAEF10F0E8EF10F0C3
:1021D000EBEF10F00E8E0BC001F00CC002F00DC042
:1021E00003F00EC004F01200033404340A6E0A50E7
:1021F000D8A4FDEF10F0FFEF10F009EF11F0000E82
:10220000016E000E026E000E036E000E046E76EF7D
:1022100011F001C005F002C006F003C007F004C0D1
:1022200008F0200E19EF11F0D8900832073206326C
:102230000532E82E14EF11F00550096E038EFF0EE3
:102240000116FF0E0216FF0E0316000E0416960E60
:102250000A5E0ABE30EF11F02EEF11F046EF11F0DA
:102260000A50800A970FD8B038EF11F03AEF11F00A
:102270003CEF11F0FFEF10F0D8900432033202323D
:1022800001320A3E3CEF11F05EEF11F01F0E0A64BE
:102290004CEF11F04EEF11F056EF11F0FFEF10F090
:1022A000D89001360236033604360A060A50D8A4FE
:1022B0005CEF11F05EEF11F050EF11F00950D8B45F
:1022C00064EF11F066EF11F06EEF11F0041E031EC3
:1022D000021E016C000E02220322042201C001F042
:1022E00002C002F003C003F004C004F01200000EAC
:1022F0002814306E000E2914316E800E2A14326EAE
:102300007F0E2B14336E3050311032103310D8A49E
:102310008CEF11F08EEF11F096EF11F0000E286E99
:10232000000E296E000E2A6E000E2B6E000E2C146D
:10233000306E000E2D14316E800E2E14326E7F0E14
:102340002F14336E3050311032103310D8A4ABEF4D
:1023500011F0ADEF11F0B5EF11F0000E2C6E000E84
:102360002D6E000E2E6E000E2F6E2BAEBAEF11F0FA
:10237000BCEF11F0C5EF11F0286C291ED8B0292A46
:102380002A1ED8B02A2A800E2B562FAECAEF11F083
:10239000CCEF11F0D5EF11F02C6C2D1ED8B02D2AFA
:1023A0002E1ED8B02E2A800E2F56000E281A000E90
:1023B000291A000E2A1A800E2B1A000E2C1A000E53
:1023C0002D1A000E2E1A800E2F1A2C50285C2D501C
:1023D00029582E502A582F502B58D8B0F2EF11F010
:1023E000F4EF11F0F7EF11F0D890F8EF11F0D8807A
:1023F000120077C00BF078C00CF079C00DF07AC0F5
:102400000EF001C00BF002C00CF003C00DF004C0D0
:102410000EF00BC005F00CC006F00DC007F00EC0AA
:1024200008F0180E19EF12F0D89008320732063271
:102430000532E82E14EF12F00550096E0A6A0950B1
:102440000A10D8A426EF12F028EF12F046EF12F08F
:10245000D8900B34056E0C34066E0D34076E0E34B6
:10246000086E0550061007100810D8A43AEF12F0B5
:102470003CEF12F041EF12F0026A020E016E74EFAF
:1024800012F0026A030E016E74EF12F009280A10AE
:10249000D8A44DEF12F04FEF12F071EF12F00BC015
:1024A00005F00CC006F00DC007F00EC008F0090ED4
:1024B000D8900536063607360836E82E58EF12F063
:1024C0000550061007100810D8B469EF12F06CEF31
:1024D00012F0010E6DEF12F0000E016E026A74EF41
:1024E00012F0026A040E016E1200949CAC98AC8447
:1024F000B896810EAF6EAC8AAB8EC150F00B0E0950
:10250000C16EC08EC050F80B0409C06EC280000EB0
:102510006D6E000E6E6E000E6F6E000E706EC282DB
:10252000C2B295EF12F097EF12F090EF12F0C3CF16
:1025300071F0C4CF72F0000E136E000E146EA00E78
:10254000156E400E166E71C001F072C002F0036A83
:10255000046A000E1AEC10F001C00FF002C010F077
:1025600003C011F004C012F04DEC0AF00FC028F0C7
:1025700010C029F011C02AF012C02BF0000E2C6EF2
:10258000C00E2D6E7F0E2E6E440E2F6E60EC0CF082
:1025900028C06DF029C06EF02AC06FF02BC070F01B
:1025A000010E0001B06F6DC0B1F06EC0B2F06FC02F
:1025B000B3F070C0B4F033EC15F00D0E6C6EAF0ECE
:1025C0006B6EB60EE82EFED76B2EFCD76C2EFAD7AC
:1025D00000D08FEF12F0FEEF3FF004500510D8B49A
:1025E000F4EF12F0F6EF12F0FFEF12F004500510C6
:1025F000D8A4FDEF12F0FFEF12F004EF13F0025039
:1026000041EC15F051EF13F020EE09F00450D926FB
:102610000550DA22DE50DE10D8B411EF13F013EFBC
:1026200013F02EEF13F020EE09F00450D9260550D8
:10263000DA2210EE02F00450E1260550E222DE50CC
:10264000E65CE650800A0A6EDE50800A0A58D8B06E
:102650002CEF13F02EEF13F051EF13F020EE02F0F9
:102660000450D9260550DA22DECF06F0DDCF07F080
:1026700004C0D9FF05C0DAFFDECF08F0DDCF09F0D6
:1026800006500824D96E07500920DA6E02C0DFFF19
:1026900020EE02F00450D9260550DA22DE2A000E80
:1026A000DD221200000E0114096E000E02140A6EE3
:1026B000800E03140B6E7F0E04140C6E09500A106A
:1026C0000B100C10D8A467EF13F069EF13F071EF43
:1026D00013F0000E016E000E026E000E036E000E6F
:1026E000046E000E0514096E000E06140A6E800EAC
:1026F00007140B6E7F0E08140C6E09500A100B1095
:102700000C10D8A486EF13F088EF13F090EF13F0BD
:10271000000E056E000E066E000E076E000E086EAF
:10272000055001180FE1065002180CE1075003187C
:1027300009E108500418D8B4A0EF13F0A2EF13F089
:10274000A5EF13F0D890A6EF13F0D8801200076A17
:10275000000E066E0150D96EDA6ADFCFF6FF060E64
:10276000F76E0800F5502A0AD8A4B9EF13F0BBEFB2
:1027700013F0E0EF13F00150D96EDA6ADF2A02504D
:10278000D96EDA6A020EDF26DF5CD96EDA6ADECF36
:1027900006F0DECF07F0F3EF13F00A0E0602F3CFD8
:1027A00003F0F4CF04F00702F3500426055003248D
:1027B000066E000E0420076E0150D96EDA6ADF2A19
:1027C0000150D96EDA6ADFCFF6FF060EF76E080009
:1027D000F550D00F056E090E0564F1EF13F0F3EF1D
:1027E00013F0CDEF13F006C001F007C002F01200A5
:1027F00017BEFFEF13F0FDEF13F002EF14F0176AAE
:10280000000E166E1A6A000E196E12EF14F0036AAB
:10281000200E026E12C004F013C005F0EDEC12F0B1
:10282000194A1A2A1650195C1A50800A186E175045
:10283000800A1858D8A01FEF14F021EF14F007EF0A
:1028400014F014C00BF015C00CF012C00DF013C042
:102850000EF0C3EC14F0120004BE31EF14F033EFAD
:1028600014F03DEF14F001C001F002C002F003C00B
:1028700003F004C004F056EF14F001C005F002C0EC
:1028800006F003C007F004C008F0051E061E071E70
:10289000081E052A000E06220722082205C001F0A4
:1028A00006C002F007C003F008C004F0120003C025
:1028B0000AF004C00BF001C008F002C009F071EF8B
:1028C00014F00AC0D9FF0BC0DAFFDF50076E0A4AC6
:1028D0000B2A08C0D9FF09C0DAFF07C0DFFF084A8A
:1028E000092A0506D8A00606052806E10628D8A468
:1028F0007CEF14F07EEF14F061EF14F01200000E84
:102900002C1A000E2D1A000E2E1A800E2F1A28C017
:1029100001F029C002F02AC003F02BC004F02CC043
:1029200005F02DC006F02EC007F02FC008F0F2EC25
:1029300007F001C028F002C029F003C02AF004C04B
:102940002BF01200AEC069F0B0EF14F0ACC05EF036
:10295000ADC05FF0690E606EAFC061F030EC0FF09B
:1029600069C0F6FF060EF76E0800F5500009D8A4FE
:10297000BCEF14F0BEEF14F0A6EF14F00001AD6B45
:10298000000EAC6F1200116A000E106ED3EF14F03F
:102990000FC002F0036A0DC004F00EC005F0EDECAC
:1029A00012F0104A112A10500B24D96E11500C202D
:1029B000DA6EDF500F6E0F50D8A4E1EF14F0E3EFA2
:1029C00014F0C8EF14F0120001C005F002C006F0C8
:1029D000032A0304046E04C0F6FF060EF76E05C05A
:1029E000D9FF06C0DAFF054A062A0800F5CFDFFF47
:1029F000DF50D8A4FEEF14F000EF15F0E8EF14F06C
:102A000012000150021003100410D8B40AEF15F0A0
:102A10000CEF15F014EF15F0000E011A000E021A5B
:102A2000000E031A800E041A01C001F002C002F069
:102A300003C003F004C004F0120001EE00F0500ED9
:102A4000EE6AE806FDE10001B86BB76BB66BB56BDB
:102A500000EE73F0090EEE6AE806FDE1000EF86E76
:102A6000000175EF12F0B10E6A6E000E0001AC6F3E
:102A7000000EAD6FB0C0AEF06A0EAF6FA2EC14F0F6
:102A80001200016E9EA847EF15F049EF15F042EFD6
:082A900015F001C0ADFF1200BA
:047FFC001DEF15F070
:020000040030CA
:0E000000FF01191EFF8181FF0FC00FE00F40AE
:00000001FF
