:04000000FEEF3FF0E0
:100600000054656E73616F3A00252E3266205600E5
:09061000696E66006E616E000067
:10061A000001A16B5AC0A2F05BC0A3F05CC0A4F0B9
:10062A005DC0A5F0A5BF1EEF03F01CEF03F032EF8B
:10063A0003F0010EA16FA2C001F0A3C002F0A4C092
:10064A0003F0A5C004F0A6EC16F001C0A2F002C0A7
:10065A00A3F003C0A4F004C0A5F00001A76B000E2C
:10066A00A66FDCC091F0DDC092F0A151D8B440EF82
:10067A0003F042EF03F054EF03F0A151D8A448EF7E
:10068A0003F04AEF03F04FEF03F0876B2B0E866FF0
:10069A0052EF03F0876B2D0E866F86C0A1F0A2C0C1
:1006AA0001F0A3C002F0A4C003F0A5C004F0D1EC8D
:1006BA0012F001040210D8A465EF03F067EF03F00B
:1006CA0099EF03F00001A151D8B46EEF03F070EF77
:1006DA0003F078EF03F0A1C000F19107D8A09207C8
:1006EA00A76B010EA66F000EA625016E010EA721AB
:1006FA00026E100E036E89EC16F00001FD0E9127B2
:10070A00FF0E922359C016F0000E176E010E186ED6
:10071A0091C019F092C01AF0FAEC14F016C059F010
:10072A0017C05AF0F9EF07F0A2C001F0A3C002F017
:10073A00A4C003F0A5C004F0D1EC12F001500210DD
:10074A00D8A4AAEF03F0ACEF03F0C9EF03F000015D
:10075A00A151D8B4B3EF03F0B5EF03F0BDEF03F046
:10076A00A1C000F19107D8A09207A76B010EA66F4E
:10077A00000EA625016E010EA721026E140E036E4D
:10078A0089EC16F082EF03F0000E0001A86F000E4C
:10079A00A96F800EAA6F3F0EAB6F906B000E8F6F22
:1007AA00A2C001F0A3C002F0A4C003F0A5C004F0E7
:1007BA00000E056E000E066E000E076E000E086E25
:1007CA0009EC14F0D8B0ECEF03F0EEEF03F0CDEF44
:1007DA0004F0FBEF03F093C0A8F094C0A9F095C011
:1007EA00AAF096C0ABF000018F4B902BA8C013F073
:1007FA00A9C014F0AAC015F0ABC016F0000E176E0F
:10080A00000E186E200E196E410E1A6E55EC0AF083
:10081A0013C093F014C094F015C095F016C096F06A
:10082A0000019351A25D016E9451A359026E955134
:10083A00A459036E9651A559046ED6EC15F004BE60
:10084A0032EF04F004500310021009E1020E015CB9
:10085A00D8A032EF04F034EF04F0F0EF03F093C0C5
:10086A002CF094C02DF095C02EF096C02FF0A2C0A7
:10087A0030F0A3C031F0A4C032F0A5C033F04FEC81
:10088A0012F0D8A04BEF04F04DEF04F0F0EF03F0B4
:10089A000001A851A25D016EA951A359026EAA5185
:1008AA00A459036EAB51A559046ED6EC15F004BEDB
:1008BA006CEF04F004500310021007E1020E015C11
:1008CA00D8B06AEF04F06CEF04F0B4EF04F0A8C0FB
:1008DA00A2F0A9C0A3F0AAC0A4F0ABC0A5F0CDEFC6
:1008EA0004F0A8C02CF0A9C02DF0AAC02EF0ABC00D
:1008FA002FF0000E306E000E316E200E326E410E59
:10090A00336E68EC0CF02CC0A8F02DC0A9F02EC0F4
:10091A00AAF02FC0ABF000018F07D8A09007A8510A
:10092A00A25D016EA951A359026EAA51A459036E80
:10093A00AB51A559046ED6EC15F004BEB2EF04F023
:10094A0004500310021007E1020E015CD8B0B0EFA8
:10095A0004F0B2EF04F0B4EF04F06CEF04F0A2C0BC
:10096A002CF0A3C02DF0A4C02EF0A5C02FF0A8C073
:10097A0030F0A9C031F0AAC032F0ABC033F04FEC6E
:10098A0012F0D8A0CBEF04F0CDEF04F076EF04F02C
:10099A005EC089F089C08AF00001DFBFD7EF04F09A
:1009AA00D9EF04F0DFEF04F0DEC082F0DFC083F09D
:1009BA00E2EF04F0836B060E826F82C08DF083C073
:1009CA008EF08D4B8E2B660E8A19D8A4EFEF04F0A9
:1009DA00F1EF04F010EF05F090BFF8EF04F0F6EF36
:1009EA0004F003EF05F0000EA86F000EA96F800E49
:1009FA00AA6F3F0EAB6F906B000E8F6F670E89194F
:100A0A00D8B40AEF05F00CEF05F010EF05F08F519E
:100A1A008D2790518E23986B000E976FA2C099F084
:100A2A00A3C09AF0A4C09BF0A5C09CF0A8C093F004
:100A3A00A9C094F0AAC095F0ABC096F0A0EF05F05B
:100A4A0099C02CF09AC02DF09BC02EF09CC02FF0BC
:100A5A00A8C030F0A9C031F0AAC032F0ABC033F060
:100A6A0068EC0CF02CC045F02DC046F02EC047F0C3
:100A7A002FC048F0E9EC0FF045C09DF046C09EF04B
:100A8A0047C09FF048C0A0F09DC001F09EC002F090
:100A9A009FC003F0A0C004F0CCEC11F001C08BF0B1
:100AAA0002C08CF099C02CF09AC02DF09BC02EF099
:100ABA009CC02FF09DC017F09EC018F09FC019F07F
:100ACA00A0C01AF0A8C013F0A9C014F0AAC015F06B
:100ADA00ABC016F055EC0AF013C030F014C031F078
:100AEA0015C032F016C033F029EC16F02CC099F07C
:100AFA002DC09AF02EC09BF02FC09CF0A8C02CF0FD
:100B0A00A9C02DF0AAC02EF0ABC02FF0000E306E97
:100B1A00000E316E200E326E410E336E68EC0CF010
:100B2A002CC0A8F02DC0A9F02EC0AAF02FC0ABF09F
:100B3A000001974B982B8D51975D9851800A5F6EF3
:100B4A008E51800A5F58D8A0ADEF05F0AFEF05F0DF
:100B5A0025EF05F0A8C013F0A9C014F0AAC015F03B
:100B6A00ABC016F0000E176E000E186EA00E196EAE
:100B7A00400E1A6E55EC0AF013C09DF014C09EF098
:100B8A0015C09FF016C0A0F099C02CF09AC02DF0A5
:100B9A009BC02EF09CC02FF09DC030F09EC031F05B
:100BAA009FC032F0A0C033F04FEC12F0D8B0E0EFA3
:100BBA0005F0E2EF05F0EDEF05F0000E00019D6F84
:100BCA00000E9E6F000E9F6F000EA06F16EF06F0CC
:100BDA0099C001F09AC002F09BC003F09CC004F0D7
:100BEA009DC005F09EC006F09FC007F0A0C008F0A7
:100BFA0009EC14F0D8A004EF06F006EF06F016EFA1
:100C0A0006F000018BB10CEF06F00EEF06F016EFBE
:100C1A0006F0000E9D6F000E9E6F000E9F6F000E75
:100C2A00A06FA2C001F0A3C002F0A4C003F0A5C047
:100C3A0004F09DC005F09EC006F09FC007F0A0C05A
:100C4A0008F0FAEC07F001C099F002C09AF003C06C
:100C5A009BF004C09CF099C02CF09AC02DF09BC068
:100C6A002EF09CC02FF0000E176E000E186E200E8C
:100C7A00196E410E1A6E93C013F094C014F095C009
:100C8A0015F096C016F055EC0AF013C030F014C0F7
:100C9A0031F015C032F016C033F04FEC12F0D8A084
:100CAA0059EF06F05BEF06F084EF06F000018F4B78
:100CBA00902B93C013F094C014F095C015F096C011
:100CCA0016F0000E176E000E186E200E196E410EE9
:100CDA001A6E55EC0AF013C093F014C094F015C0C4
:100CEA0095F016C096F0660E00018A19D8A480EF16
:100CFA0006F082EF06F084EF06F08D4B8E2B93C040
:100D0A00A8F094C0A9F095C0AAF096C0ABF08FC025
:100D1A0080F090C081F00001886B856B000E846FB3
:100D2A00986B000E976F7EEF07F099C02CF09AC06F
:100D3A002DF09BC02EF09CC02FF0A8C030F0A9C0A7
:100D4A0031F0AAC032F0ABC033F068EC0CF02CC022
:100D5A0045F02DC046F02EC047F02FC048F0E9EC10
:100D6A000FF045C09DF046C09EF047C09FF048C0B6
:100D7A00A0F09DC001F09EC002F09FC003F0A0C089
:100D8A0004F0CCEC11F002BED6EF06F0025007E1F7
:100D9A000A0E015CD8B0D4EF06F0D6EF06F0E6EF03
:100DAA0006F09DC001F09EC002F09FC003F0A0C0F3
:100DBA0004F0CCEC11F001C08BF002C08CF0EAEF29
:100DCA0006F000018C6B090E8B6F00018851D8A4C4
:100DDA00F1EF06F0F3EF06F01BEF07F081BFFAEF31
:100DEA0006F0F8EF06F01BEF07F0000EA625D96E05
:100DFA00010EA721DA6E2E0EDF6EA64BA72B9107E6
:100E0A00D8A09207010E886F1BEF07F0000EA625E7
:100E1A00D96E010EA721DA6E300EDF6EA64BA72B14
:100E2A009107D8A092078407D8A085078451851115
:100E3A00D8A422EF07F024EF07F00BEF07F0000E1B
:100E4A00A625D96E010EA721DA6E8B51300FDF6EFF
:100E5A00A64BA72B9107D8A0920799C02CF09AC04D
:100E6A002DF09BC02EF09CC02FF09DC017F09EC0A5
:100E7A0018F09FC019F0A0C01AF0A8C013F0A9C0BA
:100E8A0014F0AAC015F0ABC016F055EC0AF013C066
:100E9A0030F014C031F015C032F016C033F029EC2E
:100EAA0016F02CC099F02DC09AF02EC09BF02FC0DE
:100EBA009CF0A8C02CF0A9C02DF0AAC02EF0ABC09F
:100ECA002FF0000E306E000E316E200E326E410E83
:100EDA00336E68EC0CF02CC0A8F02DC0A9F02EC01F
:100EEA00AAF02FC0ABF000018007D8A08107974B6A
:100EFA00982B8D51975D9851800A5F6E8E51800AAA
:100F0A005F58D8B08BEF07F08DEF07F09BEF07F033
:100F1A00A7BF99EF07F0A75109E14B0EA65DD8A02C
:100F2A0099EF07F09BEF07F09AEF06F0986B4F0ED8
:100F3A00976F000E9725D96E010E9821DA6EDF6A37
:100F4A00000E5F6E010E606EA6515F5EA751605A79
:100F5A0097515F24016E98516020026E000E036E55
:100F6A00010E046EA6C005F0A7C006F001EC16F04B
:100F7A000001A651975DA66FA7519859A76FA15175
:100F8A00D8A4CAEF07F0CDEF07F0010ECEEF07F0B5
:100F9A00000E976F986BA151D8B4D6EF07F0D8EF2F
:100FAA0007F0E3EF07F0A607D8A0A707000EA625CB
:100FBA00D96E010EA721DA6EA1C0DFFF9751915FAA
:100FCA009851925B59C016F0000EA625176E010EB5
:100FDA00A721186E91C019F092C01AF0FAEC14F019
:100FEA0016C059F017C05AF012000450800B0D6E4B
:100FFA00045004240F6E03AE05EF08F007EF08F063
:10100A0008EF08F00F800F50D8B40EEF08F010EF79
:10101A0008F024EF08F00F28D8A416EF08F018EF0C
:10102A0008F020EF08F0000E016E000E026E000EAE
:10103A00036E000E046E038E046A2CEF08F0000E95
:10104A00016E000E026E000E036E000E046E085052
:10105A00800B0E6E0D500E18D8B436EF08F038EF2C
:10106A0008F039EF08F00D8C085008240E6E07AE10
:10107A0041EF08F043EF08F044EF08F00E800E50FD
:10108A00D8B44AEF08F04CEF08F060EF08F00E28E9
:10109A00D8A452EF08F054EF08F05CEF08F0000E05
:1010AA00056E000E066E000E076E000E086E078EA5
:1010BA00086A68EF08F0000E056E000E066E000E54
:1010CA00076E000E086E0F500E5CD8B06FEF08F076
:1010DA0071EF08F098EF08F00DAC76EF08F078EFB2
:1010EA0008F07AEF08F0800E0D1A0FC010F00EC04B
:1010FA000FF010C00EF001C010F005C001F010C0D2
:10110A0005F002C010F006C002F010C006F003C0DD
:10111A0010F007C003F010C007F004C010F008C0B8
:10112A0004F010C008F0106A0F500EC009F00A6AE5
:10113A00095E000E0A5A0ABEACEF08F00A5009E12D
:10114A001A0E095CD8A0ACEF08F0AEEF08F0E5EF94
:10115A0008F00150021003100410D8A4B7EF08F0E9
:10116A00BAEF08F0010EBBEF08F0000E106E000E89
:10117A00016E000E026E000E036E000E046E0EC0AB
:10118A000FF0EEEF08F010A0CDEF08F0CFEF08F067
:10119A00D5EF08F0D89010300109106ED7EF08F09B
:1011AA00D890103201A0DCEF08F0DEEF08F0DFEF94
:1011BA0008F0108E043404320332023201320F2A4C
:1011CA000E500F5CD8A0ECEF08F0EEEF08F0C8EF75
:1011DA0008F00DBCF3EF08F0F5EF08F035EF09F071
:1011EA000F50D8A4FBEF08F0FDEF08F007EF09F065
:1011FA00000E016E000E026E000E036E000E046EEB
:10120A0054EF0AF005500126065002220750032225
:10121A000850042204A014EF09F016EF09F0C2EFF7
:10122A0009F010A01BEF09F01DEF09F023EF09F0F8
:10123A00D89010300109106E25EF09F0D8901032BD
:10124A0001A02AEF09F02CEF09F02DEF09F0108E1A
:10125A00043404320332023201320F2AC2EF09F097
:10126A000550015C06500258075003580450800A82
:10127A00096E0850800A0958D8B046EF09F048EFBD
:10128A0009F073EF09F00150055C096E0250065827
:10129A000A6E035007580B6E045008580C6EFF0E66
:1012AA000924016EFF0E0A20026EFF0E0B20036E48
:1012BA00FF0E0C20046E800E0D1A106C1050D8A46C
:1012CA0069EF09F06BEF09F07BEF09F0010E0126D7
:1012DA00000E0222032204227BEF09F00550015E70
:1012EA000650025A0750035A0850045A0150021075
:1012FA0003100410D8A484EF09F086EF09F0BBEFBD
:10130A0009F01050D8A48CEF09F08EEF09F0BBEF6A
:10131A0009F0000E016E000E026E000E036E000E42
:10132A00046E54EF0AF0D8900136023603360436BA
:10133A0010AEA2EF09F0A4EF09F0A5EF09F00180C1
:10134A0010A0AAEF09F0ACEF09F0B0EF09F0D880CD
:10135A001036B2EF09F0D89010360F50D8B4B8EF63
:10136A0009F0BAEF09F0BBEF09F00F0603AEC0EFC0
:10137A0009F0C2EF09F098EF09F00E6A10AEC8EF53
:10138A0009F0CAEF09F0E2EF09F010C009F07F0E88
:10139A000916D8B4D3EF09F0D5EF09F0D9EF09F05F
:1013AA00010E0E6EE2EF09F001A0DEEF09F0E0EFA8
:1013BA0009F0E2EF09F0D5EF09F00E50D8B4E8EFE2
:1013CA0009F0EAEF09F015EF0AF0010E0126000E06
:1013DA0002220322042204A0F5EF09F0F7EF09F034
:1013EA0015EF0AF001C009F002C00AF003C00BF0C1
:1013FA0004C00CF00C340C320B320A32093209C028
:10140A0001F00AC002F00BC003F00CC004F00F2870
:10141A00D8B412EF0AF014EF0AF015EF0AF00F2A07
:10142A000F28D8B41BEF0AF01DEF0AF025EF0AF0D7
:10143A000F50D8A423EF0AF025EF0AF036EF0AF08E
:10144A00000E016E000E026E000E036E000E046E98
:10145A000F50D8A433EF0AF035EF0AF036EF0AF04E
:10146A000D6A0FA03BEF0AF03DEF0AF040EF0AF0D9
:10147A00038E41EF0AF0039ED8900F30046E0DAE32
:10148A0049EF0AF04BEF0AF04CEF0AF0048E01C064
:10149A0001F002C002F003C003F004C004F012001D
:1014AA001650800B1F6E16501624256E15AE60EF6F
:1014BA000AF062EF0AF063EF0AF025802550D8B4EB
:1014CA0069EF0AF06BEF0AF07EEF0AF02528D8A43C
:1014DA0071EF0AF073EF0AF07BEF0AF0000E136E59
:1014EA00000E146E000E156E000E166E158E86EF27
:1014FA000AF0000E136E000E146E000E156E000E2A
:10150A00166E1A50800B1F1A1A501A24206E19AE22
:10151A0091EF0AF093EF0AF094EF0AF0208020503E
:10152A00D8B49AEF0AF09CEF0AF0AFEF0AF020283D
:10153A00D8A4A2EF0AF0A4EF0AF0ACEF0AF0000E6A
:10154A00176E000E186E000E196E000E1A6E198EA6
:10155A00B7EF0AF0000E176E000E186E000E196E25
:10156A00000E1A6E2050D8B4BDEF0AF0BFEF0AF091
:10157A00C7EF0AF02550D8A4C5EF0AF0C7EF0AF062
:10158A00D1EF0AF0000E136E000E146E000E156EE7
:10159A00000E166E67EF0CF019501302F3CF2AF003
:1015AA00F4CF2BF02A50216E226A236A246A2B5028
:1015BA00266E276A286A296A18501402F3CF2AF07D
:1015CA00F4CF2BF02A502126000E22222322242295
:1015DA002B502626000E27222822292217501502D0
:1015EA00F3CF2AF0F4CF2BF02A502126000E222224
:1015FA00232224222B502626000E272228222922A3
:10160A0023C024F022C023F021C022F0216A1750FF
:10161A001402F3CF2AF0F4CF2BF02A5021262B50B4
:10162A002222000E2322000E242218501302F3CF86
:10163A002AF0F4CF2BF02A5021262B502222000E1A
:10164A002322000E242223C024F022C023F021C02A
:10165A0022F0216A17501302F3CF2AF0F4CF2BF0AD
:10166A002A5021262B502222000E2322000E242249
:10167A0019501402F3CF2AF0F4CF2BF02A50262661
:10168A002B502722000E2822000E2922185015025C
:10169A00F3CF2AF0F4CF2BF02A5026262B502722FC
:1016AA00000E2822000E292219501502F3CF2AF023
:1016BA00F4CF2BF02A501B6E2B501C6E1D6A1E6A2B
:1016CA001DC01EF01CC01DF01BC01CF01B6A1B5065
:1016DA0026261C5027221D5028221E50292221C0AE
:1016EA001BF022C01CF023C01DF024C01EF0190EEE
:1016FA0084EF0BF0D8901E321D321C321B32E82EBA
:10170A007FEF0BF01B5026261C5027221D50282243
:10171A001E50292223C024F022C023F021C022F027
:10172A00216A205025C01BF01C6A1B26000E1C22B1
:10173A00820E1B242A6EFF0E1C202B6EBAEF0BF0B2
:10174A00D890263627362836293624AEAFEF0BF046
:10175A00B1EF0BF0B2EF0BF02680D890213622368B
:10176A00233624362A06D8A02B0628AEBFEF0BF064
:10177A00C1EF0BF0A5EF0BF0206A24AEC7EF0BF018
:10178A00C9EF0BF0EDEF0BF0FF0E21141B6EFF0EED
:10179A0022141C6EFF0E23141D6E7F0E24141E6E5F
:1017AA001B501C101D101E10D8B4DEEF0BF0E0EF1A
:1017BA000BF0E4EF0BF0010E206EEDEF0BF026A01C
:1017CA00E9EF0BF0EBEF0BF0EDEF0BF0E0EF0BF0C6
:1017DA002050D8B4F3EF0BF0F5EF0BF019EF0CF043
:1017EA00010E2626000E27222822292229A000EFF0
:1017FA000CF002EF0CF019EF0CF026C01BF027C01A
:10180A001CF028C01DF029C01EF01E341E321D32E5
:10181A001C321B321BC026F01CC027F01DC028F04A
:10182A001EC029F02A4A2B2A2BBE24EF0CF02B507B
:10183A0008E12A28D8A024EF0CF026EF0CF030EFAC
:10184A000CF0000E266E000E276E800E286E7F0E9C
:10185A00296E5DEF0CF02BBE3DEF0CF02B5006E12C
:10186A002A04D8B03BEF0CF03DEF0CF048EF0CF037
:10187A00000E266E000E276E000E286E000E296ED0
:10188A001F6A5DEF0CF02AC025F0FF0E2616FF0E28
:10189A0027167F0E2816000E291625A057EF0CF0E2
:1018AA0059EF0CF05AEF0CF0288ED8902530296E9B
:1018BA001F50291226C013F027C014F028C015F0B3
:1018CA0029C016F012002F50800B3C6E2F502F2487
:1018DA00436E2EAE73EF0CF075EF0CF076EF0CF052
:1018EA0043804350D8B47CEF0CF07EEF0CF092EFBB
:1018FA000CF04328D8A484EF0CF086EF0CF08EEF9E
:10190A000CF0000E2C6E000E2D6E000E2E6E000EC8
:10191A002F6E2E8E2F6A9AEF0CF0000E2C6E000E90
:10192A002D6E000E2E6E000E2F6E3350800B3C1A59
:10193A0033503324446E32AEA5EF0CF0A7EF0CF00F
:10194A00A8EF0CF044804450D8B4AEEF0CF0B0EFDE
:10195A000CF0C4EF0CF04428D8A4B6EF0CF0B8EFA2
:10196A000CF0C0EF0CF0000E306E000E316E000E5F
:10197A00326E000E336E328E336ACCEF0CF0000EEC
:10198A00306E000E316E000E326E000E336E305025
:10199A00311032103310D8A4D5EF0CF0D7EF0CF079
:1019AA00EFEF0CF0000E2C6E000E2D6E000E2E6E58
:1019BA00000E2F6E800E2E127F0E2F123C502F1209
:1019CA002CC02CF02DC02DF02EC02EF02FC02FF0E1
:1019DA002EEF0EF04350D8A4F5EF0CF0F7EF0CF011
:1019EA0001EF0DF0000E2C6E000E2D6E000E2E6E05
:1019FA00000E2F6E2EEF0EF0445043C034F0356ABD
:101A0A00345E000E355A7F0E34243D6E000E3520AA
:101A1A003E6E2CC038F02DC039F02EC03AF02FC0DF
:101A2A003BF0000E2C6E000E2D6E000E2E6E000E78
:101A3A002F6E000E3F6E000E406E000E416E000EBD
:101A4A00426E446A61EF0DF04450D8B42FEF0DF0A6
:101A5A0031EF0DF048EF0DF0D890383639363A3676
:101A6A003B36D8902C362D362E362F3642AE40EFE6
:101A7A000DF042EF0DF043EF0DF02C80D8903F3679
:101A8A004036413642363050385C3150395832503F
:101A9A003A5833503B58D8A055EF0DF057EF0DF098
:101AAA0060EF0DF0428C3050385E3150395A325066
:101ABA003A5A33503B5A442A190E446467EF0DF0E0
:101ACA0069EF0DF029EF0DF0385039103A103B103C
:101ADA00D8B472EF0DF074EF0DF08CEF0DF03F807B
:101AEA008CEF0DF0D8902C362D362E362F3642AE8E
:101AFA0081EF0DF083EF0DF084EF0DF02C80D8907C
:101B0A003F364036413642363D06D8A03E062EAE16
:101B1A0091EF0DF093EF0DF077EF0DF0446A42AEBE
:101B2A0099EF0DF09BEF0DF0BFEF0DF0FF0E3F1494
:101B3A00346EFF0E4014356EFF0E4114366E7F0E62
:101B4A004214376E3450351036103710D8B4B0EF0F
:101B5A000DF0B2EF0DF0B6EF0DF0010E446EBFEFCF
:101B6A000DF02CA0BBEF0DF0BDEF0DF0BFEF0DF0A7
:101B7A00B2EF0DF04450D8B4C5EF0DF0C7EF0DF039
:101B8A00EBEF0DF0010E2C26000E2D222E222F2215
:101B9A002FA0D2EF0DF0D4EF0DF0EBEF0DF02CC02B
:101BAA0034F02DC035F02EC036F02FC037F0373460
:101BBA00373236323532343234C02CF035C02DF05B
:101BCA0036C02EF037C02FF03D4A3E2A3EBEF6EF11
:101BDA000DF03E5008E13D28D8A0F6EF0DF0F8EFE1
:101BEA000DF003EF0EF0000E3E6E3D68000E2C6EF7
:101BFA00000E2D6E000E2E6E000E2F6E3EBE10EFE2
:101C0A000EF03E5006E13D04D8B00EEF0EF010EF94
:101C1A000EF01CEF0EF03E6A000E3D6E000E2C6EAA
:101C2A00000E2D6E000E2E6E000E2F6E3C6A3DC009
:101C3A0043F043A023EF0EF025EF0EF028EF0EF04D
:101C4A002E8E29EF0EF02E9ED89043302F6EE3EFA2
:101C5A000CF012006250D96EDA6ADECFF6FFDECFE0
:101C6A00F7FF050EF76403D00800F55005D0F6CF4C
:101C7A00E1FFF7CFE2FFE750250AD8A447EF0EF0BD
:101C8A0049EF0EF0C6EF0FF06250D96EDA6ADE2A1B
:101C9A00000EDD220001DD6B000EDC6FDCC077F088
:101CAA00DE69DF696250D96EDA6ADECFF6FFDECF0F
:101CBA00F7FF050EF76403D00800F55005D0F6CFFC
:101CCA00E1FFF7CFE2FFE7502E0AD8A46FEF0EF03C
:101CDA0071EF0EF081EF0EF06250D96EDA6ADE2AE9
:101CEA00000EDD2262C001F063C002F04DEC13F079
:101CFA0001C0DEF002C0DFF06250D96EDA6ADECFD0
:101D0A006CF0DDCF6DF06CC0F6FF6DC0F7FFF86ABE
:101D1A00050EF76403D00800F55005D0F6CFE1FFB1
:101D2A00F7CFE2FFE7506E0AD8A49EEF0EF0A0EFBD
:101D3A000EF0C7EF0EF063C0D9FF64C0DAFFDF50C0
:101D4A00DF2ADF2AD96EDA6ADECF65F0DDCF66F0E8
:101D5A0065C0D9FF66C0DAFFDAC0DEFFDBC0DDFF8F
:101D6A00010E6C24656E000E6D20666E6250D96E8F
:101D7A00DA6A65C0DEFF66C0DDFF626A000E616E68
:101D8A00E8EF0FF06250D96EDA6ADECF6CF0DDCF81
:101D9A006DF06CC0F6FF6DC0F7FFF86A050EF764C8
:101DAA0003D00800F55005D0F6CFE1FFF7CFE2FFE8
:101DBA00E7506B6EECEF0EF06C4A6D2AFBEF0EF0FB
:101DCA006C0E6B6EFBEF0EF06B6AFBEF0EF06B5056
:101DDA004C0AD8B4E1EF0EF02A0AD8B4E5EF0EF0B7
:101DEA000A0AD8B4E1EF0EF0E9EF0EF06CC0F6FF84
:101DFA006DC0F7FFF86A050EF76403D00800F550C6
:101E0A0005D0F6CFE1FFF7CFE2FFE750660AD8A484
:101E1A0011EF0FF013EF0FF092EF0FF03FEF0FF00B
:101E2A0063C0D9FF64C0DAFFDFCF65F0040EDF2696
:101E3A006550D96EDA6ADECF67F0DECF68F0DECFA2
:101E4A0069F0DECF6AF04AEF0FF063C0D9FF64C0D1
:101E5A00DAFFDFCF65F0040EDF266550D96EDA6A45
:101E6A00DECF67F0DECF68F0DECF69F0DECF6AF052
:101E7A004AEF0FF06B504C0AD8B42AEF0FF0200A41
:101E8A00D8B415EF0FF04AEF0FF0010E6C24656E0F
:101E9A00000E6D20666E6250D96EDA6A65C0DEFF8A
:101EAA0066C0DDFF7CEF0FF061C059F067C05AF0E1
:101EBA0068C05BF069C05CF06AC05DF06CC0F6FF98
:101ECA006DC0F7FFF86A050EF76403D00800F550F5
:101EDA0005D0F6CFE1FFF7CFE2FFE7505E6E0DECDB
:101EEA0003F059C061F05AC062F0E8EF0FF06CC01D
:101EFA00F6FF6DC0F7FFF86A050EF76403D0080015
:101F0A00F55005D0F6CFE1FFF7CFE2FFE750660ABA
:101F1A00D8B459EF0FF092EF0FF06250D96EDA6A27
:101F2A00DECFF6FFDECFF7FF050EF76403D0080019
:101F3A00F55005D0F6CFE1FFF7CFE2FFE750250ACB
:101F4A00D8A4AAEF0FF0ACEF0FF0BEEF0FF062507B
:101F5A00D96EDA6ADE2A000EDD22096A250E086EBB
:101F6A0061C00AF0B4EC13F0626A010E616EE8EF28
:101F7A000FF06250D96EDA6ADE2A000EDD22C2EF55
:101F8A000EF06250D96EDA6ADECFF6FFDECFF7FFC7
:101F9A00050EF76403D00800F55005D0F6CFE1FF2F
:101FAA00F7CFE2FFE750656E6550086E096A61C0B7
:101FBA000AF0B4EC13F06250D96EDA6ADE2A000E27
:101FCA00DD22B9EF0FF01200D2C055F0D3C056F09F
:101FDA00D4C057F0D5C058F045C055F046C056F0A9
:101FEA0047C057F048C058F0810E496EFF0E4A6E3E
:101FFA0055C04BF056C04CF057C04DF058C04EF08B
:10200A00180E0DEF10F0D8904E324D324C324B3242
:10201A00E82E08EF10F04B504924536E000E4A2068
:10202A00546E54BE22EF10F0545009E1170E535C5F
:10203A00D8A022EF10F024EF10F02EEF10F045C0D8
:10204A0045F046C046F047C047F048C048F0F1EFB7
:10205A0010F054BE33EF10F035EF10F0A5EF10F08A
:10206A0053C049F0FF0E4A6EFF0E4B6E7F0E4C6E48
:10207A00000E4D6E496644EF10F04CEF10F04D34EF
:10208A004D324C324B324A32492E3FEF10F04AC0A1
:10209A004FF04BC050F04CC051F04DC052F04F5071
:1020AA005514496E505056144A6E515057144B6E7F
:1020BA00525058144C6E49504A104B104C10D8A428
:1020CA0069EF10F06BEF10F06DEF10F024EF10F0E5
:1020DA0055C049F056C04AF057C04BF058C04CF0B2
:1020EA00200E7DEF10F0D8904C324B324A324932F2
:1020FA00E82E78EF10F049504A104B104C10D8B423
:10210A0089EF10F08BEF10F093EF10F04F50552637
:10211A005050562251505722525058224F1C496E45
:10212A00501C4A6E511C4B6E521C4C6E495055162F
:10213A004A5056164B5057164C505816E9EF10F0A5
:10214A0055C049F056C04AF057C04BF058C04CF041
:10215A00200EB5EF10F0D8904C324B324A32493249
:10216A00E82EB0EF10F049504A104B104C10D8A48A
:10217A00C1EF10F0C3EF10F0CDEF10F0000E556E66
:10218A00000E566E000E576E000E586EE9EF10F0F4
:10219A00D8905534496E56344A6E57344B6E58347B
:1021AA004C6E49504A104B104C10D8B4DFEF10F067
:1021BA00E1EF10F0E9EF10F0000E556E000E566ECA
:1021CA00800E576EBF0E586E55C045F056C046F089
:1021DA0057C047F058C048F012000D6E0D50D8B4E1
:1021EA00F9EF10F0FBEF10F01DEF11F008BE02EF4F
:1021FA0011F000EF11F01DEF11F005C009F006C053
:10220A000AF007C00BF008C00CF0091E0A1E0B1ECC
:10221A000C1E092A000E0A220B220C2209C00FF0FA
:10222A000AC010F00BC011F00CC012F025EF11F02B
:10223A0005C00FF006C010F007C011F008C012F078
:10224A000550061007100810D8A42EEF11F030EF31
:10225A0011F03AEF11F0000E056E000E066E000E38
:10226A00076E000E086ECBEF11F0960E0E6E44EF5D
:10227A0011F00E2AD8901232113210320F32000E9B
:10228A000F14096E000E10140A6E000E11140B6E54
:10229A00FE0E12140C6E09500A100B100C10D8A462
:1022AA0059EF11F05BEF11F03EEF11F069EF11F009
:1022BA000E2A010E0F26000E102211221222D89089
:1022CA001232113210320F32000E0F14096E000E44
:1022DA0010140A6E000E11140B6EFF0E12140C6EFF
:1022EA0009500A100B100C10D8A47EEF11F080EFE1
:1022FA0011F05DEF11F088EF11F00E06D8900F364D
:10230A0010361136123611BE8DEF11F08FEF11F023
:10231A0097EF11F0020E0E6095EF11F097EF11F0A2
:10232A0082EF11F00EB09CEF11F09EEF11F09FEFCB
:10233A0011F0119ED8900E320EC009F00A6A0B6A8B
:10234A000C6A09C00CF00B6A0A6A096A09500F1272
:10235A000A5010120B5011120C5012120D50D8B410
:10236A00B9EF11F0BBEF11F0C3EF11F008BEC2EFE5
:10237A0011F0C0EF11F0C3EF11F0128E0FC005F08B
:10238A0010C006F011C007F012C008F012000334A2
:10239A0004340A6E0A50D8A4D5EF11F0D7EF11F021
:1023AA00E1EF11F0000E016E000E026E000E036ED8
:1023BA00000E046E4EEF12F001C005F002C006F0E6
:1023CA0003C007F004C008F0200EF1EF11F0D89016
:1023DA000832073206320532E82EECEF11F00550CA
:1023EA00096E038EFF0E0116FF0E0216FF0E03166C
:1023FA00000E0416960E0A5E0ABE08EF12F006EFE9
:10240A0012F01EEF12F00A50800A970FD8B010EFA0
:10241A0012F012EF12F014EF12F0D7EF11F0D89079
:10242A0004320332023201320A3E14EF12F036EF5E
:10243A0012F01F0E0A6424EF12F026EF12F02EEFAC
:10244A0012F0D7EF11F0D89001360236033604366F
:10245A000A060A50D8A434EF12F036EF12F028EF29
:10246A0012F00950D8B43CEF12F03EEF12F046EFEA
:10247A0012F0041E031E021E016C000E0222032229
:10248A00042201C001F002C002F003C003F004C03C
:10249A0004F01200000E2C14346E000E2D14356E4A
:1024AA00800E2E14366E7F0E2F14376E3450351070
:1024BA0036103710D8A464EF12F066EF12F06EEF00
:1024CA0012F0000E2C6E000E2D6E000E2E6E000EF7
:1024DA002F6E000E3014346E000E3114356E800EDD
:1024EA003214366E7F0E3314376E34503510361070
:1024FA003710D8A483EF12F085EF12F08DEF12F0A7
:10250A00000E306E000E316E000E326E000E336E0B
:10251A002FAE92EF12F094EF12F09DEF12F02C6CA6
:10252A002D1ED8B02D2A2E1ED8B02E2A800E2F5638
:10253A0033AEA2EF12F0A4EF12F0ADEF12F0306C4E
:10254A00311ED8B0312A321ED8B0322A800E335604
:10255A00000E2C1A000E2D1A000E2E1A800E2F1A9B
:10256A00000E301A000E311A000E321A800E331A7B
:10257A0030502C5C31502D5832502E5833502F5831
:10258A00D8B0CAEF12F0CCEF12F0CFEF12F0D89019
:10259A00D0EF12F0D8801200D6C00BF0D7C00CF0E2
:1025AA00D8C00DF0D9C00EF001C00BF002C00CF07B
:1025BA0003C00DF004C00EF00BC005F00CC006F00D
:1025CA000DC007F00EC008F0180EF1EF12F0D89007
:1025DA000832073206320532E82EECEF12F00550C7
:1025EA00096E0A6A09500A10D8A4FEEF12F000EF29
:1025FA0013F01EEF13F0D8900B34056E0C34066EF0
:10260A000D34076E0E34086E0550061007100810B8
:10261A00D8A412EF13F014EF13F019EF13F0026AB3
:10262A00020E016E4CEF13F0026A030E016E4CEFBC
:10263A0013F009280A10D8A425EF13F027EF13F096
:10264A0049EF13F00BC005F00CC006F00DC007F0FF
:10265A000EC008F0090ED890053606360736083639
:10266A00E82E30EF13F00550061007100810D8B402
:10267A0041EF13F044EF13F0010E45EF13F0000E93
:10268A00016E026A4CEF13F0026A040E016E120028
:10269A00076A000E066E0150D96EDA6ADECFF6FFBF
:1026AA00DECFF7FF050EF76403D00800F55005D01A
:1026BA00F6CFE1FFF7CFE2FFE7502A0AD8A468EF86
:1026CA0013F06AEF13F093EF13F00150D96EDA6A40
:1026DA00DE2A000EDD220250D96EDA6A020EDF26E9
:1026EA00DF5CD96EDA6ADECF06F0DECF07F0AFEF35
:1026FA0013F00A0E0602F3CF03F0F4CF04F0070238
:10270A00F350042605500324066E000E0420076EBB
:10271A000150D96EDA6ADE2A000EDD220150D96E26
:10272A00DA6ADECFF6FFDECFF7FF050EF76403D0D5
:10273A000800F55005D0F6CFE1FFF7CFE2FFE750EA
:10274A00D00F056E090E0564ADEF13F0AFEF13F06D
:10275A007EEF13F006C001F007C002F012000A5023
:10276A00D8B4BAEF13F0BCEF13F0C4EF13F00A5069
:10277A00D8A4C2EF13F0C4EF13F0C9EF13F0085056
:10278A004DEC17F008EF14F00A50D96EDA6A090E08
:10279A00D926DE50DE10D8B4D5EF13F0D7EF13F0F8
:1027AA00F0EF13F00A50D96EDA6A090ED9260A50E8
:1027BA00E16EE26A020EE126DE50E65CE650800A2D
:1027CA000F6EDE50800A0F58D8B0EEEF13F0F0EF1C
:1027DA0013F008EF14F00A50D96EDA6A020ED926FD
:1027EA00DF500B6E0A50D96EDA6ADF500B24D96EAD
:1027FA00DA6A08C0DFFF0A50D96EDA6A020ED926F1
:10280A00DE2A000EDD221200000E0114096E000EEF
:10281A0002140A6E800E03140B6E7F0E04140C6EE3
:10282A0009500A100B100C10D8A41EEF14F020EF58
:10283A0014F028EF14F0000E016E000E026E000E66
:10284A00036E000E046E000E0514096E000E0614C7
:10285A000A6E800E07140B6E7F0E08140C6E095058
:10286A000A100B100C10D8A43DEF14F03FEF14F02F
:10287A0047EF14F0000E056E000E066E000E076E8E
:10288A00000E086E055001180FE1065002180CE1FF
:10289A000750031809E108500418D8B457EF14F088
:1028AA0059EF14F05CEF14F0D8905DEF14F0D88073
:1028BA001200600ED36E956A836A010E926E806A68
:1028CA00010EC26E0E0EC16E890EC06EA2EC15F01C
:1028DA0036EC15F045C0CEF046C0CFF047C0D0F078
:1028EA0048C0D1F039EC17F0010E066E010EDDEC8E
:1028FA0016F0010E0001AC6FAC51D8A4060EAD6FF4
:10290A002CEC17F0010E066E020EDDEC16F0BE0E70
:10291A000001AC6F090EAD6FCEC0AEF0CFC0AFF004
:10292A00D0C0B0F0D1C0B1F06BEC16F0BE0E000111
:10293A00AC6FAD6B2CEC17F0080E766E9D0E756EB3
:10294A00060EE82EFED7752EFCD7762EFAD76DEF37
:10295A0014F0FEEF3FF0036E03C001F0013A0F0ED0
:10296A000116010E0116013A83500118EF0B0118E6
:10297A00836E03C001F0050E026ED8900132022E5A
:10298A00C2EF14F0010E0116013A014683500118F4
:10299A00DF0B0118836E03C001F0060E026ED89099
:1029AA000132022ED4EF14F0010E0116013A01464B
:1029BA00014683500118BF0B0118836E016A03AEEA
:1029CA0001D0012A010E0116013201328350011889
:1029DA007F0B0118836E838200D000D0000083929F
:1029EA00A60EE82EFED700D012001ABE01EF15F08F
:1029FA00FFEF14F004EF15F01A6A000E196E1D6A43
:102A0A00000E1C6E12EF15F0096A200E086E16C031
:102A1A000AF0B4EC13F01C4A1D2A19501C5C1D5014
:102A2A00800A1B6E1A50800A1B58D8A01FEF15F097
:102A3A0021EF15F009EF15F017C010F018C011F0CA
:102A4A0016C012F04CEC16F017C001F018C002F0D4
:102A5A00C2EC16F019500124166E1A500220176E95
:102A6A001200000E176E000E186EA00E196E400EA0
:102A7A001A6EF8EC16F001C005F002C006F0076AFB
:102A8A00086A000EF2EC10F005C013F006C014F04C
:102A9A0007C015F008C016F055EC0AF013C02CF068
:102AAA0014C02DF015C02EF016C02FF0000E306E97
:102ABA00C00E316E7F0E326E440E336E68EC0CF02F
:102ACA002CC045F02DC046F02EC047F02FC048F06C
:102ADA0012006FC072F070C073F00001DB6B000E61
:102AEA00DA6F86EF15F06EC061F0720E626E71C019
:102AFA0063F0646A2FEC0EF061500001DA2762502D
:102B0A00DB2372C0F6FF73C0F7FFF86A050EF7649D
:102B1A0003D00800F55005D0F6CFE1FFF7CFE2FF6A
:102B2A00E7500009D8A49CEF15F09EEF15F078EF56
:102B3A0015F06F6A000E6E6E1200956A836A8392B0
:102B4A008390820E076EDE0EE82EFED7072EFCD784
:102B5A00300EB0EC14F0210E076E760EE82EFED77A
:102B6A00072EFCD700D0300EB0EC14F0FA0EE82E87
:102B7A00FED7300EB0EC14F0200EB0EC14F0280E94
:102B8A00046E000E1EEC17F00C0E046E000E1EEC06
:102B9A0017F0060E046E000E1EEC17F039EC17F053
:102BAA00120004BEDBEF15F0DDEF15F0E7EF15F0CC
:102BBA0001C001F002C002F003C003F004C004F037
:102BCA0000EF16F001C005F002C006F003C007F0DE
:102BDA0004C008F0051E061E071E081E052A000E60
:102BEA0006220722082205C001F006C002F007C02B
:102BFA0003F008C004F0120003C00AF004C00BF08E
:102C0A0001C008F002C009F01BEF16F00AC0D9FF94
:102C1A000BC0DAFFDF50076E0A4A0B2A08C0D9FF39
:102C2A0009C0DAFF07C0DFFF084A092A0506D8A04B
:102C3A000606052806E10628D8A426EF16F028EF8E
:102C4A0016F00BEF16F01200000E301A000E311AB1
:102C5A00000E321A800E331A2CC001F02DC002F079
:102C6A002EC003F02FC004F030C005F031C006F0CA
:102C7A0032C007F033C008F0FAEC07F001C02CF0BC
:102C8A0002C02DF003C02EF004C02FF01200156A06
:102C9A00000E146E5AEF16F013C008F0096A12C03B
:102CAA000AF0B4EC13F0144A152A14501024D96E01
:102CBA0015501120DA6EDF50136E1350D8A468EF46
:102CCA0016F06AEF16F051EF16F01200AE0E000180
:102CDA00B26FACC0B3F0B66B000EB56FBD6B000E31
:102CEA00BC6FB30E6E6EADC06FF06F50D8A4060EF7
:102CFA00706EB20E716E6EEC15F00001AC51B52516
:102D0A00D96EDA6ADF6A120001C005F002C006F065
:102D1A00032A0304046E04C0F6FF060EF76E05C00C
:102D2A00D9FF06C0DAFF054A062A0800F5CFDFFFF9
:102D3A00DF50D8A4A3EF16F0A5EF16F08DEF16F02A
:102D4A0012000150021003100410D8B4AFEF16F0AD
:102D5A00B1EF16F0B9EF16F0000E011A000E021AC2
:102D6A00000E031A800E041A01C001F002C002F01C
:102D7A0003C003F004C004F0120001C003F002C053
:102D8A0004F0CAEF16F0014A022A01C0D9FF02C0B4
:102D9A00DAFFDF50D8A4D4EF16F0D6EF16F0C8EF5A
:102DAA0016F00350015C016E04500258026E1200C4
:102DBA00076E0704D8B4E4EF16F0E6EF16F0EBEF6F
:102DCA0016F0096AC00E086EEEEF16F0096A800E58
:102DDA00086E08C00AF006500A260AC004F0000E5F
:102DEA001EEC17F01200C282C2B2FEEF16F000EF1C
:102DFA0017F0F9EF16F0C350C4CF03F0046A03C00A
:102E0A0004F0036A0310016E0450026E120001EE10
:102E1A0000F0500EEE6AE806FDE100EED2F00E0E6A
:102E2A00EE6AE806FDE1776A000EF86E00015EEFD1
:102E3A0014F0056E05B002D0839001D0838004504F
:102E4A00B0EC14F00438F00BB0EC14F01200AE0E33
:102E5A00746E000E6E6EACC06FF0ADC070F0740E82
:102E6A00716E6EEC15F01200010E046E000E1EEC6F
:102E7A0017F00D0E066EFC0EE82EFED7062EFCD7B6
:102E8A001200066E06C004F0010E1EEC17F01200C6
:0A2E9A00076E075046EC17F0120017
:047FFC000CEF17F07F
:00000001FF
