:04000000FEEF3FF0E0
:1006000000252E3266205620202020202000546510
:100610006E73616F206C6964613A00696E66006E8A
:10062000616E00000001A16B5AC0A2F05BC0A3F094
:100630005CC0A4F05DC0A5F0A5BF23EF03F021EFDF
:1006400003F037EF03F0010EA16FA2C001F0A3C0C9
:1006500002F0A4C003F0A5C004F0A9EC16F001C09C
:10066000A2F002C0A3F003C0A4F004C0A5F00001F2
:10067000A76B000EA66FDCC091F0DDC092F0A15117
:10068000D8B445EF03F047EF03F059EF03F0A15161
:10069000D8A44DEF03F04FEF03F054EF03F0876B56
:1006A0002B0E866F57EF03F0876B2D0E866F86C07B
:1006B000A1F0A2C001F0A3C002F0A4C003F0A5C045
:1006C00004F0D6EC12F001040210D8A46AEF03F093
:1006D0006CEF03F09EEF03F00001A151D8B473EF6B
:1006E00003F075EF03F07DEF03F0A1C000F1910777
:1006F000D8A09207A76B010EA66F000EA625016E6B
:10070000010EA721026E1B0E036E8CEC16F0000189
:10071000FD0E9127FF0E922359C016F0000E176EA2
:10072000010E186E91C019F092C01AF0FDEC14F091
:1007300016C059F017C05AF0FEEF07F0A2C001F042
:10074000A3C002F0A4C003F0A5C004F0D6EC12F0E0
:1007500001500210D8A4AFEF03F0B1EF03F0CEEFD9
:1007600003F00001A151D8B4B8EF03F0BAEF03F0E1
:10077000C2EF03F0A1C000F19107D8A09207A76BC8
:10078000010EA66F000EA625016E010EA721026EB6
:100790001F0E036E8CEC16F087EF03F0000E0001C5
:1007A000A86F000EA96F800EAA6F3F0EAB6F906B03
:1007B000000E8F6FA2C001F0A3C002F0A4C003F02E
:1007C000A5C004F0000E056E000E066E000E076E4A
:1007D000000E086E0EEC14F0D8B0F1EF03F0F3EF5A
:1007E00003F0D2EF04F000EF04F093C0A8F094C03F
:1007F000A9F095C0AAF096C0ABF000018F4B902BEA
:10080000A8C013F0A9C014F0AAC015F0ABC016F030
:10081000000E176E000E186E200E196E410E1A6E25
:100820005AEC0AF013C093F014C094F015C095F080
:1008300016C096F000019351A25D016E9451A35928
:10084000026E9551A459036E9651A559046ED9ECC8
:1008500015F004BE37EF04F004500310021009E154
:10086000020E015CD8A037EF04F039EF04F0F5EF89
:1008700003F093C02CF094C02DF095C02EF096C0DC
:100880002FF0A2C030F0A3C031F0A4C032F0A5C058
:1008900033F054EC12F0D8A050EF04F052EF04F013
:1008A000F5EF03F00001A851A25D016EA951A35913
:1008B000026EAA51A459036EAB51A559046ED9EC2E
:1008C00015F004BE71EF04F004500310021007E1AC
:1008D000020E015CD8B06FEF04F071EF04F0B9EFD5
:1008E00004F0A8C0A2F0A9C0A3F0AAC0A4F0ABC0B5
:1008F000A5F0D2EF04F0A8C02CF0A9C02DF0AAC03A
:100900002EF0ABC02FF0000E306E000E316E200EB8
:10091000326E410E336E6DEC0CF02CC0A8F02DC081
:10092000A9F02EC0AAF02FC0ABF000018F07D8A00D
:100930009007A851A25D016EA951A359026EAA5158
:10094000A459036EAB51A559046ED9EC15F004BE41
:10095000B7EF04F004500310021007E1020E015C2F
:10096000D8B0B5EF04F0B7EF04F0B9EF04F071EFD1
:1009700004F0A2C02CF0A3C02DF0A4C02EF0A5C09E
:100980002FF0A8C030F0A9C031F0AAC032F0ABC03F
:1009900033F054EC12F0D8A0D0EF04F0D2EF04F012
:1009A0007BEF04F05EC089F089C08AF00001DFBFF0
:1009B000DCEF04F0DEEF04F0E4EF04F0DEC082F0E0
:1009C000DFC083F0E7EF04F0836B060E826F82C016
:1009D0008DF083C08EF08D4B8E2B660E8A19D8A4B5
:1009E000F4EF04F0F6EF04F015EF05F090BFFDEF23
:1009F00004F0FBEF04F008EF05F0000EA86F000E06
:100A0000A96F800EAA6F3F0EAB6F906B000E8F6FB9
:100A1000670E8919D8B40FEF05F011EF05F015EF47
:100A200005F08F518D2790518E23986B000E976F94
:100A3000A2C099F0A3C09AF0A4C09BF0A5C09CF0FE
:100A4000A8C093F0A9C094F0AAC095F0ABC096F0EE
:100A5000A5EF05F099C02CF09AC02DF09BC02EF0A8
:100A60009CC02FF0A8C030F0A9C031F0AAC032F06D
:100A7000ABC033F06DEC0CF02CC045F02DC046F04F
:100A80002EC047F02FC048F0EEEC0FF045C09DF0AF
:100A900046C09EF047C09FF048C0A0F09DC001F046
:100AA0009EC002F09FC003F0A0C004F0D1EC11F092
:100AB00001C08BF002C08CF099C02CF09AC02DF0D0
:100AC0009BC02EF09CC02FF09DC017F09EC018F068
:100AD0009FC019F0A0C01AF0A8C013F0A9C014F06C
:100AE000AAC015F0ABC016F05AEC0AF013C030F0F3
:100AF00014C031F015C032F016C033F02CEC16F0F3
:100B00002CC099F02DC09AF02EC09BF02FC09CF005
:100B1000A8C02CF0A9C02DF0AAC02EF0ABC02FF0B9
:100B2000000E306E000E316E200E326E410E336EAE
:100B30006DEC0CF02CC0A8F02DC0A9F02EC0AAF0CE
:100B40002FC0ABF00001974B982B8D51975D9851BA
:100B5000800A5F6E8E51800A5F58D8A0B2EF05F010
:100B6000B4EF05F02AEF05F0A8C013F0A9C014F007
:100B7000AAC015F0ABC016F0000E176E000E186E6E
:100B8000A00E196E400E1A6E5AEC0AF013C09DF0BA
:100B900014C09EF015C09FF016C0A0F099C02CF0B4
:100BA0009AC02DF09BC02EF09CC02FF09DC030F05D
:100BB0009EC031F09FC032F0A0C033F054EC12F070
:100BC000D8B0E5EF05F0E7EF05F0F2EF05F0000E25
:100BD00000019D6F000E9E6F000E9F6F000EA06FB4
:100BE0001BEF06F099C001F09AC002F09BC003F021
:100BF0009CC004F09DC005F09EC006F09FC007F0A9
:100C0000A0C008F00EEC14F0D8A009EF06F00BEF2E
:100C100006F01BEF06F000018BB111EF06F013EFA9
:100C200006F01BEF06F0000E9D6F000E9E6F000E8B
:100C30009F6F000EA06FA2C001F0A3C002F0A4C07D
:100C400003F0A5C004F09DC005F09EC006F09FC053
:100C500007F0A0C008F0FFEC07F001C099F002C057
:100C60009AF003C09BF004C09CF099C02CF09AC08D
:100C70002DF09BC02EF09CC02FF0000E176E000EC2
:100C8000186E200E196E410E1A6E93C013F094C0A8
:100C900014F095C015F096C016F05AEC0AF013C087
:100CA00030F014C031F015C032F016C033F054ECFF
:100CB00012F0D8A05EEF06F060EF06F089EF06F0C4
:100CC00000018F4B902B93C013F094C014F095C08B
:100CD00015F096C016F0000E176E000E186E200E5E
:100CE000196E410E1A6E5AEC0AF013C093F014C03C
:100CF00094F015C095F016C096F0660E00018A19A2
:100D0000D8A485EF06F087EF06F089EF06F08D4B4B
:100D10008E2B93C0A8F094C0A9F095C0AAF096C0FD
:100D2000ABF08FC080F090C081F00001886B856BC4
:100D3000000E846F986B000E976F83EF07F099C0D9
:100D40002CF09AC02DF09BC02EF09CC02FF0A8C0B4
:100D500030F0A9C031F0AAC032F0ABC033F06DEC76
:100D60000CF02CC045F02DC046F02EC047F02FC02F
:100D700048F0EEEC0FF045C09DF046C09EF047C035
:100D80009FF048C0A0F09DC001F09EC002F09FC03F
:100D900003F0A0C004F0D1EC11F002BEDBEF06F0CE
:100DA000025007E10A0E015CD8B0D9EF06F0DBEF84
:100DB00006F0EBEF06F09DC001F09EC002F09FC070
:100DC00003F0A0C004F0D1EC11F001C08BF002C020
:100DD0008CF0EFEF06F000018C6B090E8B6F0001B9
:100DE0008851D8A4F6EF06F0F8EF06F020EF07F0F0
:100DF00081BFFFEF06F0FDEF06F020EF07F0000ED9
:100E0000A625D96E010EA721DA6E2E0EDF6EA64B37
:100E1000A72B9107D8A09207010E886F20EF07F04B
:100E2000000EA625D96E010EA721DA6E300EDF6EF8
:100E3000A64BA72B9107D8A092078407D8A08507B7
:100E400084518511D8A427EF07F029EF07F010EFA0
:100E500007F0000EA625D96E010EA721DA6E8B5180
:100E6000300FDF6EA64BA72B9107D8A0920799C031
:100E70002CF09AC02DF09BC02EF09CC02FF09DC08E
:100E800017F09EC018F09FC019F0A0C01AF0A8C0BB
:100E900013F0A9C014F0AAC015F0ABC016F05AECBC
:100EA0000AF013C030F014C031F015C032F016C093
:100EB00033F02CEC16F02CC099F02DC09AF02EC017
:100EC0009BF02FC09CF0A8C02CF0A9C02DF0AAC0A8
:100ED0002EF0ABC02FF0000E306E000E316E200EE3
:100EE000326E410E336E6DEC0CF02CC0A8F02DC0AC
:100EF000A9F02EC0AAF02FC0ABF000018007D8A047
:100F00008107974B982B8D51975D9851800A5F6EA2
:100F10008E51800A5F58D8B090EF07F092EF07F03B
:100F2000A0EF07F0A7BF9EEF07F0A75109E14B0E16
:100F3000A65DD8A09EEF07F0A0EF07F09FEF06F0A8
:100F4000986B4F0E976F000E9725D96E010E982162
:100F5000DA6EDF6A000E5F6E010E606EA6515F5E94
:100F6000A751605A97515F24016E98516020026E1C
:100F7000000E036E010E046EA6C005F0A7C006F0B9
:100F800004EC16F00001A651975DA66FA751985981
:100F9000A76FA151D8A4CFEF07F0D2EF07F0010E51
:100FA000D3EF07F0000E976F986BA151D8B4DBEF29
:100FB00007F0DDEF07F0E8EF07F0A607D8A0A707D6
:100FC000000EA625D96E010EA721DA6EA1C0DFFFA3
:100FD0009751915F9851925B59C016F0000EA6256B
:100FE000176E010EA721186E91C019F092C01AF069
:100FF000FDEC14F016C059F017C05AF0120004505E
:10100000800B0D6E045004240F6E03AE0AEF08F03F
:101010000CEF08F00DEF08F00F800F50D8B413EF6D
:1010200008F015EF08F029EF08F00F28D8A41BEFFF
:1010300008F01DEF08F025EF08F0000E016E000E1D
:10104000026E000E036E000E046E038E046A31EF12
:1010500008F0000E016E000E026E000E036E000E10
:10106000046E0850800B0E6E0D500E18D8B43BEF76
:1010700008F03DEF08F03EEF08F00D8C0850082412
:101080000E6E07AE46EF08F048EF08F049EF08F0A3
:101090000E800E50D8B44FEF08F051EF08F065EF16
:1010A00008F00E28D8A457EF08F059EF08F061EFC8
:1010B00008F0000E056E000E066E000E076E000EA4
:1010C000086E078E086A6DEF08F0000E056E000EC0
:1010D000066E000E076E000E086E0F500E5CD8B044
:1010E00074EF08F076EF08F09DEF08F00DAC7BEFA1
:1010F00008F07DEF08F07FEF08F0800E0D1A0FC0AA
:1011000010F00EC00FF010C00EF001C010F005C0BE
:1011100001F010C005F002C010F006C002F010C0CF
:1011200006F003C010F007C003F010C007F004C0C1
:1011300010F008C004F010C008F0106A0F500EC084
:1011400009F00A6A095E000E0A5A0ABEB1EF08F0F9
:101150000A5009E11A0E095CD8A0B1EF08F0B3EF0C
:1011600008F0EAEF08F00150021003100410D8A4B0
:10117000BCEF08F0BFEF08F0010EC0EF08F0000E62
:10118000106E000E016E000E026E000E036E000E59
:10119000046E0EC00FF0F3EF08F010A0D2EF08F0CD
:1011A000D4EF08F0DAEF08F0D89010300109106E93
:1011B000DCEF08F0D890103201A0E1EF08F0E3EF87
:1011C00008F0E4EF08F0108E0434043203320232E7
:1011D00001320F2A0E500F5CD8A0F1EF08F0F3EFA8
:1011E00008F0CDEF08F00DBCF8EF08F0FAEF08F0CA
:1011F0003AEF09F00F50D8A400EF09F002EF09F020
:101200000CEF09F0000E016E000E026E000E036E70
:10121000000E046E59EF0AF0055001260650022216
:10122000075003220850042204A019EF09F01BEF15
:1012300009F0C7EF09F010A020EF09F022EF09F044
:1012400028EF09F0D89010300109106E2AEF09F04C
:10125000D890103201A02FEF09F031EF09F032EFF2
:1012600009F0108E043404320332023201320F2AA4
:10127000C7EF09F00550015C0650025807500358AB
:101280000450800A096E0850800A0958D8B04BEF04
:1012900009F04DEF09F078EF09F00150055C096E97
:1012A000025006580A6E035007580B6E0450085837
:1012B0000C6EFF0E0924016EFF0E0A20026EFF0E57
:1012C0000B20036EFF0E0C20046E800E0D1A106CA6
:1012D0001050D8A46EEF09F070EF09F080EF09F01C
:1012E000010E0126000E02220322042280EF09F0E3
:1012F0000550015E0650025A0750035A0850045A1E
:101300000150021003100410D8A489EF09F08BEFEC
:1013100009F0C0EF09F01050D8A491EF09F093EF55
:1013200009F0C0EF09F0000E016E000E026E000E13
:10133000036E000E046E59EF0AF0D89001360236A3
:101340000336043610AEA7EF09F0A9EF09F0AAEFB3
:1013500009F0018010A0AFEF09F0B1EF09F0B5EF8F
:1013600009F0D8801036B7EF09F0D89010360F503A
:10137000D8B4BDEF09F0BFEF09F0C0EF09F00F06D8
:1013800003AEC5EF09F0C7EF09F09DEF09F00E6A53
:1013900010AECDEF09F0CFEF09F0E7EF09F010C084
:1013A00009F07F0E0916D8B4D8EF09F0DAEF09F08A
:1013B000DEEF09F0010E0E6EE7EF09F001A0E3EF9A
:1013C00009F0E5EF09F0E7EF09F0DAEF09F00E5068
:1013D000D8B4EDEF09F0EFEF09F01AEF0AF0010EC3
:1013E0000126000E02220322042204A0FAEF09F0D3
:1013F000FCEF09F01AEF0AF001C009F002C00AF090
:1014000003C00BF004C00CF00C340C320B320A3267
:10141000093209C001F00AC002F00BC003F00CC091
:1014200004F00F28D8B417EF0AF019EF0AF01AEFFA
:101430000AF00F2A0F28D8B420EF0AF022EF0AF0A2
:101440002AEF0AF00F50D8A428EF0AF02AEF0AF08A
:101450003BEF0AF0000E016E000E026E000E036EEE
:10146000000E046E0F50D8A438EF0AF03AEF0AF0DD
:101470003BEF0AF00D6A0FA040EF0AF042EF0AF0CE
:1014800045EF0AF0038E46EF0AF0039ED8900F3026
:10149000046E0DAE4EEF0AF050EF0AF051EF0AF075
:1014A000048E01C001F002C002F003C003F004C0CA
:1014B00004F012001650800B1F6E16501624256E75
:1014C00015AE65EF0AF067EF0AF068EF0AF02580C5
:1014D0002550D8B46EEF0AF070EF0AF083EF0AF0EF
:1014E0002528D8A476EF0AF078EF0AF080EF0AF00A
:1014F000000E136E000E146E000E156E000E166EAA
:10150000158E8BEF0AF0000E136E000E146E000E97
:10151000156E000E166E1A50800B1F1A1A501A24E0
:10152000206E19AE96EF0AF098EF0AF099EF0AF0E4
:1015300020802050D8B49FEF0AF0A1EF0AF0B4EF5A
:101540000AF02028D8A4A7EF0AF0A9EF0AF0B1EF1B
:101550000AF0000E176E000E186E000E196E000EC7
:101560001A6E198EBCEF0AF0000E176E000E186E80
:10157000000E196E000E1A6E2050D8B4C2EF0AF099
:10158000C4EF0AF0CCEF0AF02550D8A4CAEF0AF055
:10159000CCEF0AF0D6EF0AF0000E136E000E146EB8
:1015A000000E156E000E166E6CEF0CF01950130243
:1015B000F3CF2AF0F4CF2BF02A50216E226A236A4F
:1015C000246A2B50266E276A286A296A185014024A
:1015D000F3CF2AF0F4CF2BF02A502126000E22223E
:1015E000232224222B502626000E272228222922BD
:1015F00017501502F3CF2AF0F4CF2BF02A502126F2
:10160000000E2222232224222B502626000E2722DF
:101610002822292223C024F022C023F021C022F056
:10162000216A17501402F3CF2AF0F4CF2BF02A507E
:1016300021262B502222000E2322000E2422185095
:101640001302F3CF2AF0F4CF2BF02A5021262B508F
:101650002222000E2322000E242223C024F022C0C6
:1016600023F021C022F0216A17501302F3CF2AF091
:10167000F4CF2BF02A5021262B502222000E2322B9
:10168000000E242219501402F3CF2AF0F4CF2BF0CD
:101690002A5026262B502722000E2822000E29220F
:1016A00018501502F3CF2AF0F4CF2BF02A5026263B
:1016B0002B502722000E2822000E29221950150235
:1016C000F3CF2AF0F4CF2BF02A501B6E2B501C6E58
:1016D0001D6A1E6A1DC01EF01CC01DF01BC01CF040
:1016E0001B6A1B5026261C5027221D5028221E50E4
:1016F000292221C01BF022C01CF023C01DF024C0F1
:101700001EF0190E89EF0BF0D8901E321D321C32DC
:101710001B32E82E84EF0BF01B5026261C5027228C
:101720001D5028221E50292223C024F022C023F05D
:1017300021C022F0216A205025C01BF01C6A1B2604
:10174000000E1C22820E1B242A6EFF0E1C202B6E04
:10175000BFEF0BF0D890263627362836293624AE30
:10176000B4EF0BF0B6EF0BF0B7EF0BF02680D8908C
:1017700021362236233624362A06D8A02B0628AE58
:10178000C4EF0BF0C6EF0BF0AAEF0BF0206A24AE0B
:10179000CCEF0BF0CEEF0BF0F2EF0BF0FF0E2114BD
:1017A0001B6EFF0E22141C6EFF0E23141D6E7F0E87
:1017B00024141E6E1B501C101D101E10D8B4E3EF15
:1017C0000BF0E5EF0BF0E9EF0BF0010E206EF2EFFE
:1017D0000BF026A0EEEF0BF0F0EF0BF0F2EF0BF0BA
:1017E000E5EF0BF02050D8B4F8EF0BF0FAEF0BF068
:1017F0001EEF0CF0010E2626000E27222822292299
:1018000029A005EF0CF007EF0CF01EEF0CF026C03E
:101810001BF027C01CF028C01DF029C01EF01E348C
:101820001E321D321C321B321BC026F01CC027F09A
:101830001DC028F01EC029F02A4A2B2A2BBE29EFF2
:101840000CF02B5008E12A28D8A029EF0CF02BEF40
:101850000CF035EF0CF0000E266E000E276E800E99
:10186000286E7F0E296E62EF0CF02BBE42EF0CF05B
:101870002B5006E12A04D8B040EF0CF042EF0CF0F8
:101880004DEF0CF0000E266E000E276E000E286E37
:10189000000E296E1F6A62EF0CF02AC025F0FF0EC1
:1018A0002616FF0E27167F0E2816000E291625A0D5
:1018B0005CEF0CF05EEF0CF05FEF0CF0288ED89030
:1018C0002530296E1F50291226C013F027C014F0AE
:1018D00028C015F029C016F012002F50800B3C6E66
:1018E0002F502F24436E2EAE78EF0CF07AEF0CF0D1
:1018F0007BEF0CF043804350D8B481EF0CF083EFC2
:101900000CF097EF0CF04328D8A489EF0CF08BEF84
:101910000CF093EF0CF0000E2C6E000E2D6E000EEE
:101920002E6E000E2F6E2E8E2F6A9FEF0CF0000E83
:101930002C6E000E2D6E000E2E6E000E2F6E33508C
:10194000800B3C1A33503324446E32AEAAEF0CF0B5
:10195000ACEF0CF0ADEF0CF044804450D8B4B3EFD2
:101960000CF0B5EF0CF0C9EF0CF04428D8A4BBEF95
:101970000CF0BDEF0CF0C5EF0CF0000E306E000E59
:10198000316E000E326E000E336E328E336AD1EF3E
:101990000CF0000E306E000E316E000E326E000E36
:1019A000336E3050311032103310D8A4DAEF0CF00F
:1019B000DCEF0CF0F4EF0CF0000E2C6E000E2D6E30
:1019C000000E2E6E000E2F6E800E2E127F0E2F1226
:1019D0003C502F122CC02CF02DC02DF02EC02EF01C
:1019E0002FC02FF033EF0EF04350D8A4FAEF0CF0D5
:1019F000FCEF0CF006EF0DF0000E2C6E000E2D6EBD
:101A0000000E2E6E000E2F6E33EF0EF0445043C0CA
:101A100034F0356A345E000E355A7F0E34243D6E44
:101A2000000E35203E6E2CC038F02DC039F02EC08F
:101A30003AF02FC03BF0000E2C6E000E2D6E000E03
:101A40002E6E000E2F6E000E3F6E000E406E000ECA
:101A5000416E000E426E446A66EF0DF04450D8B4F9
:101A600034EF0DF036EF0DF04DEF0DF0D890383625
:101A700039363A363B36D8902C362D362E362F3620
:101A800042AE45EF0DF047EF0DF048EF0DF02C8022
:101A9000D8903F364036413642363050385C31506F
:101AA000395832503A5833503B58D8A05AEF0DF0BD
:101AB0005CEF0DF065EF0DF0428C3050385E315028
:101AC000395A32503A5A33503B5A442A190E446418
:101AD0006CEF0DF06EEF0DF02EEF0DF03850391069
:101AE0003A103B10D8B477EF0DF079EF0DF091EF8D
:101AF0000DF03F8091EF0DF0D8902C362D362E361C
:101B00002F3642AE86EF0DF088EF0DF089EF0DF025
:101B10002C80D8903F364036413642363D06D8A01C
:101B20003E062EAE96EF0DF098EF0DF07CEF0DF027
:101B3000446A42AE9EEF0DF0A0EF0DF0C4EF0DF041
:101B4000FF0E3F14346EFF0E4014356EFF0E41142D
:101B5000366E7F0E4214376E345035103610371003
:101B6000D8B4B5EF0DF0B7EF0DF0BBEF0DF0010EEF
:101B7000446EC4EF0DF02CA0C0EF0DF0C2EF0DF0DD
:101B8000C4EF0DF0B7EF0DF04450D8B4CAEF0DF02C
:101B9000CCEF0DF0F0EF0DF0010E2C26000E2D22F3
:101BA0002E222F222FA0D7EF0DF0D9EF0DF0F0EF5E
:101BB0000DF02CC034F02DC035F02EC036F02FC003
:101BC00037F03734373236323532343234C02CF0D5
:101BD00035C02DF036C02EF037C02FF03D4A3E2ADA
:101BE0003EBEFBEF0DF03E5008E13D28D8A0FBEFD4
:101BF0000DF0FDEF0DF008EF0EF0000E3E6E3D68AB
:101C0000000E2C6E000E2D6E000E2E6E000E2F6E2E
:101C10003EBE15EF0EF03E5006E13D04D8B013EF86
:101C20000EF015EF0EF021EF0EF03E6A000E3D6E45
:101C3000000E2C6E000E2D6E000E2E6E000E2F6EFE
:101C40003C6A3DC043F043A028EF0EF02AEF0EF0AF
:101C50002DEF0EF02E8E2EEF0EF02E9ED8904330EC
:101C60002F6EE8EF0CF012006250D96EDA6ADECF08
:101C7000F6FFDECFF7FF050EF76403D00800F5503E
:101C800005D0F6CFE1FFF7CFE2FFE750250AD8A451
:101C90004CEF0EF04EEF0EF0CBEF0FF06250D96E1E
:101CA000DA6ADE2A000EDD220001DD6B000EDC6F39
:101CB000DCC077F0DE69DF696250D96EDA6ADECFA8
:101CC000F6FFDECFF7FF050EF76403D00800F550EE
:101CD00005D0F6CFE1FFF7CFE2FFE7502E0AD8A4F8
:101CE00074EF0EF076EF0EF086EF0EF06250D96EC4
:101CF000DA6ADE2A000EDD2262C001F063C002F063
:101D000052EC13F001C0DEF002C0DFF06250D96E79
:101D1000DA6ADECF6CF0DDCF6DF06CC0F6FF6DC01F
:101D2000F7FFF86A050EF76403D00800F55005D0F8
:101D3000F6CFE1FFF7CFE2FFE7506E0AD8A4A3EF9A
:101D40000EF0A5EF0EF0CCEF0EF063C0D9FF64C02B
:101D5000DAFFDF50DF2ADF2AD96EDA6ADECF65F0DC
:101D6000DDCF66F065C0D9FF66C0DAFFDAC0DEFFFE
:101D7000DBC0DDFF010E6C24656E000E6D20666E0B
:101D80006250D96EDA6A65C0DEFF66C0DDFF626A46
:101D9000000E616EEDEF0FF06250D96EDA6ADECFA1
:101DA0006CF0DDCF6DF06CC0F6FF6DC0F7FFF86A28
:101DB000050EF76403D00800F55005D0F6CFE1FF1B
:101DC000F7CFE2FFE7506B6EF1EF0EF06C4A6D2A31
:101DD00000EF0FF06C0E6B6E00EF0FF06B6A00EF10
:101DE0000FF06B504C0AD8B4E6EF0EF02A0AD8B4C4
:101DF000EAEF0EF00A0AD8B4E6EF0EF0EEEF0EF0BE
:101E00006CC0F6FF6DC0F7FFF86A050EF76403D0EB
:101E10000800F55005D0F6CFE1FFF7CFE2FFE7501D
:101E2000660AD8A416EF0FF018EF0FF097EF0FF037
:101E300044EF0FF063C0D9FF64C0DAFFDFCF65F075
:101E4000040EDF266550D96EDA6ADECF67F0DECF8A
:101E500068F0DECF69F0DECF6AF04FEF0FF063C0BD
:101E6000D9FF64C0DAFFDFCF65F0040EDF266550CE
:101E7000D96EDA6ADECF67F0DECF68F0DECF69F0C8
:101E8000DECF6AF04FEF0FF06B504C0AD8B42FEF53
:101E90000FF0200AD8B41AEF0FF04FEF0FF0010E39
:101EA0006C24656E000E6D20666E6250D96EDA6A23
:101EB00065C0DEFF66C0DDFF81EF0FF061C059F045
:101EC00067C05AF068C05BF069C05CF06AC05DF042
:101ED0006CC0F6FF6DC0F7FFF86A050EF76403D01B
:101EE0000800F55005D0F6CFE1FFF7CFE2FFE7504D
:101EF0005E6E12EC03F059C061F05AC062F0EDEF73
:101F00000FF06CC0F6FF6DC0F7FFF86A050EF764BE
:101F100003D00800F55005D0F6CFE1FFF7CFE2FF80
:101F2000E750660AD8B45EEF0FF097EF0FF06250FB
:101F3000D96EDA6ADECFF6FFDECFF7FF050EF76463
:101F400003D00800F55005D0F6CFE1FFF7CFE2FF50
:101F5000E750250AD8A4AFEF0FF0B1EF0FF0C3EFB1
:101F60000FF06250D96EDA6ADE2A000EDD22096AAD
:101F7000250E086E61C00AF0B9EC13F0626A010E1A
:101F8000616EEDEF0FF06250D96EDA6ADE2A000E54
:101F9000DD22C7EF0EF06250D96EDA6ADECFF6FFAF
:101FA000DECFF7FF050EF76403D00800F55005D02B
:101FB000F6CFE1FFF7CFE2FFE750656E6550086EA0
:101FC000096A61C00AF0B9EC13F06250D96EDA6A9E
:101FD000DE2A000EDD22BEEF0FF01200D2C055F057
:101FE000D3C056F0D4C057F0D5C058F045C055F016
:101FF00046C056F047C057F048C058F0810E496EB1
:10200000FF0E4A6E55C04BF056C04CF057C04DF015
:1020100058C04EF0180E12EF10F0D8904E324D32DC
:102020004C324B32E82E0DEF10F04B504924536EDA
:10203000000E4A20546E54BE27EF10F0545009E1B0
:10204000170E535CD8A027EF10F029EF10F033EFF4
:1020500010F045C045F046C046F047C047F048C0C4
:1020600048F0F6EF10F054BE38EF10F03AEF10F0F1
:10207000AAEF10F053C049F0FF0E4A6EFF0E4B6EF0
:102080007F0E4C6E000E4D6E496649EF10F051EF19
:1020900010F04D344D324C324B324A32492E44EF1F
:1020A00010F04AC04FF04BC050F04CC051F04DC042
:1020B00052F04F505514496E505056144A6E5150BC
:1020C00057144B6E525058144C6E49504A104B10D6
:1020D0004C10D8A46EEF10F070EF10F072EF10F00B
:1020E00029EF10F055C049F056C04AF057C04BF0E8
:1020F00058C04CF0200E82EF10F0D8904C324B328A
:102100004A324932E82E7DEF10F049504A104B1008
:102110004C10D8B48EEF10F090EF10F098EF10F054
:102120004F50552650505622515057225250582247
:102130004F1C496E501C4A6E511C4B6E521C4C6E0B
:10214000495055164A5056164B5057164C50581673
:10215000EEEF10F055C049F056C04AF057C04BF0B2
:1021600058C04CF0200EBAEF10F0D8904C324B32E1
:102170004A324932E82EB5EF10F049504A104B1060
:102180004C10D8A4C6EF10F0C8EF10F0D2EF10F04A
:10219000000E556E000E566E000E576E000E586EF5
:1021A000EEEF10F0D8905534496E56344A6E5734DD
:1021B0004B6E58344C6E49504A104B104C10D8B4EA
:1021C000E4EF10F0E6EF10F0EEEF10F0000E556EB9
:1021D000000E566E800E576EBF0E586E55C045F0FD
:1021E00056C046F057C047F058C048F012000D6E78
:1021F0000D50D8B4FEEF10F000EF11F022EF11F007
:1022000008BE07EF11F005EF11F022EF11F005C045
:1022100009F006C00AF007C00BF008C00CF0091E58
:102220000A1E0B1E0C1E092A000E0A220B220C226B
:1022300009C00FF00AC010F00BC011F00CC012F072
:102240002AEF11F005C00FF006C010F007C011F022
:1022500008C012F00550061007100810D8A433EF7C
:1022600011F035EF11F03FEF11F0000E056E000E8A
:10227000066E000E076E000E086ED0EF11F0960E7F
:102280000E6E49EF11F00E2AD89012321132103230
:102290000F32000E0F14096E000E10140A6E000E9D
:1022A00011140B6EFE0E12140C6E09500A100B1056
:1022B0000C10D8A45EEF11F060EF11F043EF11F0B5
:1022C0006EEF11F00E2A010E0F26000E10221122C1
:1022D0001222D8901232113210320F32000E0F1427
:1022E000096E000E10140A6E000E11140B6EFF0E14
:1022F00012140C6E09500A100B100C10D8A483EFA6
:1023000011F085EF11F062EF11F08DEF11F00E0674
:10231000D8900F3610361136123611BE92EF11F0EA
:1023200094EF11F09CEF11F0020E0E609AEF11F095
:102330009CEF11F087EF11F00EB0A1EF11F0A3EFB9
:1023400011F0A4EF11F0119ED8900E320EC009F0DA
:102350000A6A0B6A0C6A09C00CF00B6A0A6A096AFD
:1023600009500F120A5010120B5011120C50121279
:102370000D50D8B4BEEF11F0C0EF11F0C8EF11F05E
:1023800008BEC7EF11F0C5EF11F0C8EF11F0128EC3
:102390000FC005F010C006F011C007F012C008F021
:1023A0001200033404340A6E0A50D8A4DAEF11F094
:1023B000DCEF11F0E6EF11F0000E016E000E026E80
:1023C000000E036E000E046E53EF12F001C005F014
:1023D00002C006F003C007F004C008F0200EF6EFBC
:1023E00011F0D8900832073206320532E82EF1EFAC
:1023F00011F00550096E038EFF0E0116FF0E021636
:10240000FF0E0316000E0416960E0A5E0ABE0DEFAE
:1024100012F00BEF12F023EF12F00A50800A970F20
:10242000D8B015EF12F017EF12F019EF12F0DCEF41
:1024300011F0D89004320332023201320A3E19EF11
:1024400012F03BEF12F01F0E0A6429EF12F02BEF8F
:1024500012F033EF12F0DCEF11F0D89001360236B3
:10246000033604360A060A50D8A439EF12F03BEFBF
:1024700012F02DEF12F00950D8B441EF12F043EFF3
:1024800012F04BEF12F0041E031E021E016C000E30
:1024900002220322042201C001F002C002F003C0A4
:1024A00003F004C004F01200000E2C14346E000E71
:1024B0002D14356E800E2E14366E7F0E2F14376E4F
:1024C0003450351036103710D8A469EF12F06BEF86
:1024D00012F073EF12F0000E2C6E000E2D6E000E37
:1024E0002E6E000E2F6E000E3014346E000E31145E
:1024F000356E800E3214366E7F0E3314376E3450C4
:10250000351036103710D8A488EF12F08AEF12F089
:1025100092EF12F0000E306E000E316E000E326E31
:10252000000E336E2FAE97EF12F099EF12F0A2EF7C
:1025300012F02C6C2D1ED8B02D2A2E1ED8B02E2AAB
:10254000800E2F5633AEA7EF12F0A9EF12F0B2EFC4
:1025500012F0306C311ED8B0312A321ED8B0322A77
:10256000800E3356000E2C1A000E2D1A000E2E1A55
:10257000800E2F1A000E301A000E311A000E321A79
:10258000800E331A30502C5C31502D5832502E585A
:1025900033502F58D8B0CFEF12F0D1EF12F0D4EF64
:1025A00012F0D890D5EF12F0D8801200D6C00BF000
:1025B000D7C00CF0D8C00DF0D9C00EF001C00BF0A0
:1025C00002C00CF003C00DF004C00EF00BC005F00B
:1025D0000CC006F00DC007F00EC008F0180EF6EFA4
:1025E00012F0D8900832073206320532E82EF1EFA9
:1025F00012F00550096E0A6A09500A10D8A403EFB8
:1026000013F005EF13F023EF13F0D8900B34056EA1
:102610000C34066E0D34076E0E34086E055006102D
:1026200007100810D8A417EF13F019EF13F01EEFDE
:1026300013F0026A020E016E51EF13F0026A030EEC
:10264000016E51EF13F009280A10D8A42AEF13F0F5
:102650002CEF13F04EEF13F00BC005F00CC006F09A
:102660000DC007F00EC008F0090ED89005360636EA
:1026700007360836E82E35EF13F005500610071020
:102680000810D8B446EF13F049EF13F0010E4AEFEB
:1026900013F0000E016E026A51EF13F0026A040E8D
:1026A000016E1200076A000E066E0150D96EDA6ADA
:1026B000DECFF6FFDECFF7FF050EF76403D008008C
:1026C000F55005D0F6CFE1FFF7CFE2FFE7502A0A39
:1026D000D8A46DEF13F06FEF13F098EF13F00150E3
:1026E000D96EDA6ADE2A000EDD220250D96EDA6A6D
:1026F000020EDF26DF5CD96EDA6ADECF06F0DECFAF
:1027000007F0B4EF13F00A0E0602F3CF03F0F4CF94
:1027100004F00702F350042605500324066E000E51
:102720000420076E0150D96EDA6ADE2A000EDD221F
:102730000150D96EDA6ADECFF6FFDECFF7FF050E65
:10274000F76403D00800F55005D0F6CFE1FFF7CFCE
:10275000E2FFE750D00F056E090E0564B2EF13F0EB
:10276000B4EF13F083EF13F006C001F007C002F0DE
:1027700012000A50D8B4BFEF13F0C1EF13F0C9EF45
:1027800013F00A50D8A4C7EF13F0C9EF13F0CEEF3F
:1027900013F0085050EC17F00DEF14F00A50D96EFA
:1027A000DA6A090ED926DE50DE10D8B4DAEF13F05B
:1027B000DCEF13F0F5EF13F00A50D96EDA6A090E68
:1027C000D9260A50E16EE26A020EE126DE50E65C8E
:1027D000E650800A0F6EDE50800A0F58D8B0F3EF33
:1027E00013F0F5EF13F00DEF14F00A50D96EDA6A1A
:1027F000020ED926DF500B6E0A50D96EDA6ADF500E
:102800000B24D96EDA6A08C0DFFF0A50D96EDA6A83
:10281000020ED926DE2A000EDD221200000E01145F
:10282000096E000E02140A6E800E03140B6E7F0EEA
:1028300004140C6E09500A100B100C10D8A423EFCE
:1028400014F025EF14F02DEF14F0000E016E000EC1
:10285000026E000E036E000E046E000E0514096E6B
:10286000000E06140A6E800E07140B6E7F0E0814FD
:102870000C6E09500A100B100C10D8A442EF14F083
:1028800044EF14F04CEF14F0000E056E000E066ECF
:10289000000E076E000E086E055001180FE106507D
:1028A00002180CE10750031809E108500418D8B4C5
:1028B0005CEF14F05EEF14F061EF14F0D89062EF6B
:1028C00014F0D8801200010E926E806A956A836AB5
:1028D000010EC26E0E0EC16E890EC06EA5EC15F013
:1028E00039EC15F045C0CEF046C0CFF047C0D0F06F
:1028F00048C0D1F03CEC17F0000E066E010EE0EC83
:1029000016F00E0E0001AC6FAC51D8A4060EAD6FE0
:102910002FEC17F0000E066E020EE0EC16F0BE0E65
:102920000001AC6F010EAD6FCEC0AEF0CFC0AFF006
:10293000D0C0B0F0D1C0B1F06EEC16F0BE0E000108
:10294000AC6FAD6B2FEC17F0080E766E9D0E756EAA
:10295000060EE82EFED7752EFCD7762EFAD770EF2E
:1029600014F0FEEF3FF0036E03C001F0013A0F0ECA
:102970000116010E0116013A83500118EF0B0118E0
:10298000836E03C001F0050E026ED8900132022E54
:10299000C5EF14F0010E0116013A014683500118EB
:1029A000DF0B0118836E03C001F0060E026ED89093
:1029B0000132022ED7EF14F0010E0116013A014642
:1029C000014683500118BF0B0118836E016A03AEE4
:1029D00001D0012A010E0116013201328350011883
:1029E0007F0B0118836E838200D000D00000839299
:1029F000A60EE82EFED700D012001ABE04EF15F086
:102A000002EF15F007EF15F01A6A000E196E1D6A35
:102A1000000E1C6E15EF15F0096A200E086E16C028
:102A20000AF0B9EC13F01C4A1D2A19501C5C1D5009
:102A3000800A1B6E1A50800A1B58D8A022EF15F08E
:102A400024EF15F00CEF15F017C010F018C011F0BE
:102A500016C012F04FEC16F017C001F018C002F0CB
:102A6000C5EC16F019500124166E1A500220176E8C
:102A70001200000E176E000E186EA00E196E400E9A
:102A80001A6EFBEC16F001C005F002C006F0076AF2
:102A9000086A000EF7EC10F005C013F006C014F041
:102AA00007C015F008C016F05AEC0AF013C02CF05D
:102AB00014C02DF015C02EF016C02FF0000E306E91
:102AC000C00E316E7F0E326E440E336E6DEC0CF024
:102AD0002CC045F02DC046F02EC047F02FC048F066
:102AE00012006FC072F070C073F00001DB6B000E5B
:102AF000DA6F89EF15F06EC061F0720E626E71C010
:102B000063F0646A34EC0EF061500001DA27625021
:102B1000DB2372C0F6FF73C0F7FFF86A050EF76497
:102B200003D00800F55005D0F6CFE1FFF7CFE2FF64
:102B3000E7500009D8A49FEF15F0A1EF15F07BEF47
:102B400015F06F6A000E6E6E1200956A836A8392AA
:102B50008390820E076EDE0EE82EFED7072EFCD77E
:102B6000300EB3EC14F0210E076E760EE82EFED771
:102B7000072EFCD700D0300EB3EC14F0FA0EE82E7E
:102B8000FED7300EB3EC14F0200EB3EC14F0280E88
:102B9000046E000E21EC17F00C0E046E000E21ECFA
:102BA00017F0060E046E000E21EC17F03CEC17F047
:102BB000120004BEDEEF15F0E0EF15F0EAEF15F0BD
:102BC00001C001F002C002F003C003F004C004F031
:102BD00003EF16F001C005F002C006F003C007F0D5
:102BE00004C008F0051E061E071E081E052A000E5A
:102BF00006220722082205C001F006C002F007C025
:102C000003F008C004F0120003C00AF004C00BF087
:102C100001C008F002C009F01EEF16F00AC0D9FF8B
:102C20000BC0DAFFDF50076E0A4A0B2A08C0D9FF33
:102C300009C0DAFF07C0DFFF084A092A0506D8A045
:102C40000606052806E10628D8A429EF16F02BEF82
:102C500016F00EEF16F01200000E301A000E311AA8
:102C6000000E321A800E331A2CC001F02DC002F073
:102C70002EC003F02FC004F030C005F031C006F0C4
:102C800032C007F033C008F0FFEC07F001C02CF0B1
:102C900002C02DF003C02EF004C02FF01200156A00
:102CA000000E146E5DEF16F013C008F0096A12C032
:102CB0000AF0B9EC13F0144A152A14501024D96EF6
:102CC00015501120DA6EDF50136E1350D8A46BEF3D
:102CD00016F06DEF16F054EF16F01200AE0E000174
:102CE000B26FACC0B3F0B66B000EB56FBD6B000E2B
:102CF000BC6FB30E6E6EADC06FF06F50D8A4060EF1
:102D0000706EB20E716E71EC15F00001AC51B5250C
:102D1000D96EDA6ADF6A120001C005F002C006F05F
:102D2000032A0304046E04C0F6FF060EF76E05C006
:102D3000D9FF06C0DAFF054A062A0800F5CFDFFFF3
:102D4000DF50D8A4A6EF16F0A8EF16F090EF16F01B
:102D500012000150021003100410D8B4B2EF16F0A4
:102D6000B4EF16F0BCEF16F0000E011A000E021AB6
:102D7000000E031A800E041A01C001F002C002F016
:102D800003C003F004C004F0120001C003F002C04D
:102D900004F0CDEF16F0014A022A01C0D9FF02C0AB
:102DA000DAFFDF50D8A4D7EF16F0D9EF16F0CBEF4B
:102DB00016F00350015C016E04500258026E1200BE
:102DC000076E0704D8B4E7EF16F0E9EF16F0EEEF60
:102DD00016F0096AC00E086EF1EF16F0096A800E4F
:102DE000086E08C00AF006500A260AC004F0000E59
:102DF00021EC17F01200C282C2B201EF17F003EF0C
:102E000017F0FCEF16F0C350C4CF03F0046A03C000
:102E100004F0036A0310016E0450026E120001EE0A
:102E200000F0500EEE6AE806FDE100EED2F00E0E64
:102E3000EE6AE806FDE1776A000EF86E000163EFC6
:102E400014F0056E05B002D0839001D08380045049
:102E5000B3EC14F00438F00BB3EC14F01200AE0E27
:102E6000746E000E6E6EACC06FF0ADC070F0740E7C
:102E7000716E71EC15F01200010E046E000E21EC63
:102E800017F00D0E066EFC0EE82EFED7062EFCD7B0
:102E90001200066E06C004F0010E21EC17F01200BD
:0A2EA000076E075049EC17F012000E
:047FFC000FEF17F07C
:020000040030CA
:04000000FF021F1EBE
:0200060081FF78
:00000001FF
