:0400000007EF00F016
:0A000800018201ED03F082EF03F026
:1006000000000600F2A407EF03F009EF03F00EEF7D
:1006100003F0F29496EC03F058EC03F0F2A213EF1F
:1006200003F015EF03F021EF03F0F2920250D8B47B
:100630001CEF03F01FEF03F0010E20EF03F0000E9C
:10064000026EF0A026EF03F028EF03F02EEF03F088
:10065000F090026A046A036A79EC03F001921100D7
:100660000F0EC16E070EB46E956A8C6A93809382EA
:10067000F19EF19CF19AF292F090F288F086D59C6E
:10068000D59AD596D584D582D58091EC03F0F29495
:10069000F28AD58EF28CF28E046A036A026A03C073
:1006A00006F00F0E06160438F00B06108C6E1200C2
:1006B0000250D8A45EEF03F060EF03F062EF03F0A6
:1006C00078EF03F0032A090E036469EF03F06BEF80
:1006D00003F076EF03F0036A042A050E046473EF57
:1006E00003F075EF03F076EF03F0046A79EC03F0A2
:1006F000120003C005F00F0E05160438F00B0510AC
:100700008C6E1200046A036A026A01900192000171
:100710008AEF03F030EC03F000008CEF03F007EFFA
:1007200000F0B30ED76ECD0ED66E1200B30ED76E9C
:06073000CD0ED66E120092
:020000040030CA
:0E000000FF021F1EFF8181FF0FC00FE00F40A7
:00000001FF
